{
  "contractName": "PStoreNFT",
  "abi": [
    {
      "inputs": [
        {
          "internalType": "string",
          "name": "_name",
          "type": "string"
        },
        {
          "internalType": "string",
          "name": "_symbol",
          "type": "string"
        },
        {
          "internalType": "uint256",
          "name": "_royaltyFee",
          "type": "uint256"
        },
        {
          "internalType": "address",
          "name": "_artist",
          "type": "address"
        }
      ],
      "stateMutability": "nonpayable",
      "type": "constructor"
    },
    {
      "anonymous": false,
      "inputs": [
        {
          "indexed": true,
          "internalType": "address",
          "name": "owner",
          "type": "address"
        },
        {
          "indexed": true,
          "internalType": "address",
          "name": "approved",
          "type": "address"
        },
        {
          "indexed": true,
          "internalType": "uint256",
          "name": "tokenId",
          "type": "uint256"
        }
      ],
      "name": "Approval",
      "type": "event"
    },
    {
      "anonymous": false,
      "inputs": [
        {
          "indexed": true,
          "internalType": "address",
          "name": "owner",
          "type": "address"
        },
        {
          "indexed": true,
          "internalType": "address",
          "name": "operator",
          "type": "address"
        },
        {
          "indexed": false,
          "internalType": "bool",
          "name": "approved",
          "type": "bool"
        }
      ],
      "name": "ApprovalForAll",
      "type": "event"
    },
    {
      "anonymous": false,
      "inputs": [
        {
          "indexed": true,
          "internalType": "address",
          "name": "previousOwner",
          "type": "address"
        },
        {
          "indexed": true,
          "internalType": "address",
          "name": "newOwner",
          "type": "address"
        }
      ],
      "name": "OwnershipTransferred",
      "type": "event"
    },
    {
      "anonymous": false,
      "inputs": [
        {
          "indexed": false,
          "internalType": "uint256",
          "name": "id",
          "type": "uint256"
        },
        {
          "indexed": true,
          "internalType": "address",
          "name": "owner",
          "type": "address"
        },
        {
          "indexed": false,
          "internalType": "uint256",
          "name": "cost",
          "type": "uint256"
        },
        {
          "indexed": false,
          "internalType": "string",
          "name": "metadataURI",
          "type": "string"
        },
        {
          "indexed": false,
          "internalType": "uint256",
          "name": "timestamp",
          "type": "uint256"
        }
      ],
      "name": "Sale",
      "type": "event"
    },
    {
      "anonymous": false,
      "inputs": [
        {
          "indexed": true,
          "internalType": "address",
          "name": "from",
          "type": "address"
        },
        {
          "indexed": true,
          "internalType": "address",
          "name": "to",
          "type": "address"
        },
        {
          "indexed": true,
          "internalType": "uint256",
          "name": "tokenId",
          "type": "uint256"
        }
      ],
      "name": "Transfer",
      "type": "event"
    },
    {
      "inputs": [
        {
          "internalType": "address",
          "name": "to",
          "type": "address"
        },
        {
          "internalType": "uint256",
          "name": "tokenId",
          "type": "uint256"
        }
      ],
      "name": "approve",
      "outputs": [],
      "stateMutability": "nonpayable",
      "type": "function"
    },
    {
      "inputs": [],
      "name": "artist",
      "outputs": [
        {
          "internalType": "address",
          "name": "",
          "type": "address"
        }
      ],
      "stateMutability": "view",
      "type": "function"
    },
    {
      "inputs": [
        {
          "internalType": "address",
          "name": "owner",
          "type": "address"
        }
      ],
      "name": "balanceOf",
      "outputs": [
        {
          "internalType": "uint256",
          "name": "",
          "type": "uint256"
        }
      ],
      "stateMutability": "view",
      "type": "function"
    },
    {
      "inputs": [],
      "name": "cost",
      "outputs": [
        {
          "internalType": "uint256",
          "name": "",
          "type": "uint256"
        }
      ],
      "stateMutability": "view",
      "type": "function"
    },
    {
      "inputs": [
        {
          "internalType": "uint256",
          "name": "tokenId",
          "type": "uint256"
        }
      ],
      "name": "getApproved",
      "outputs": [
        {
          "internalType": "address",
          "name": "",
          "type": "address"
        }
      ],
      "stateMutability": "view",
      "type": "function"
    },
    {
      "inputs": [
        {
          "internalType": "uint256",
          "name": "",
          "type": "uint256"
        }
      ],
      "name": "holderOf",
      "outputs": [
        {
          "internalType": "address",
          "name": "",
          "type": "address"
        }
      ],
      "stateMutability": "view",
      "type": "function"
    },
    {
      "inputs": [
        {
          "internalType": "address",
          "name": "owner",
          "type": "address"
        },
        {
          "internalType": "address",
          "name": "operator",
          "type": "address"
        }
      ],
      "name": "isApprovedForAll",
      "outputs": [
        {
          "internalType": "bool",
          "name": "",
          "type": "bool"
        }
      ],
      "stateMutability": "view",
      "type": "function"
    },
    {
      "inputs": [],
      "name": "name",
      "outputs": [
        {
          "internalType": "string",
          "name": "",
          "type": "string"
        }
      ],
      "stateMutability": "view",
      "type": "function"
    },
    {
      "inputs": [],
      "name": "owner",
      "outputs": [
        {
          "internalType": "address",
          "name": "",
          "type": "address"
        }
      ],
      "stateMutability": "view",
      "type": "function"
    },
    {
      "inputs": [
        {
          "internalType": "uint256",
          "name": "tokenId",
          "type": "uint256"
        }
      ],
      "name": "ownerOf",
      "outputs": [
        {
          "internalType": "address",
          "name": "",
          "type": "address"
        }
      ],
      "stateMutability": "view",
      "type": "function"
    },
    {
      "inputs": [],
      "name": "renounceOwnership",
      "outputs": [],
      "stateMutability": "nonpayable",
      "type": "function"
    },
    {
      "inputs": [],
      "name": "royaltyFee",
      "outputs": [
        {
          "internalType": "uint256",
          "name": "",
          "type": "uint256"
        }
      ],
      "stateMutability": "view",
      "type": "function"
    },
    {
      "inputs": [
        {
          "internalType": "address",
          "name": "from",
          "type": "address"
        },
        {
          "internalType": "address",
          "name": "to",
          "type": "address"
        },
        {
          "internalType": "uint256",
          "name": "tokenId",
          "type": "uint256"
        }
      ],
      "name": "safeTransferFrom",
      "outputs": [],
      "stateMutability": "payable",
      "type": "function"
    },
    {
      "inputs": [
        {
          "internalType": "address",
          "name": "from",
          "type": "address"
        },
        {
          "internalType": "address",
          "name": "to",
          "type": "address"
        },
        {
          "internalType": "uint256",
          "name": "tokenId",
          "type": "uint256"
        },
        {
          "internalType": "bytes",
          "name": "_data",
          "type": "bytes"
        }
      ],
      "name": "safeTransferFrom",
      "outputs": [],
      "stateMutability": "payable",
      "type": "function"
    },
    {
      "inputs": [
        {
          "internalType": "address",
          "name": "operator",
          "type": "address"
        },
        {
          "internalType": "bool",
          "name": "approved",
          "type": "bool"
        }
      ],
      "name": "setApprovalForAll",
      "outputs": [],
      "stateMutability": "nonpayable",
      "type": "function"
    },
    {
      "inputs": [],
      "name": "supply",
      "outputs": [
        {
          "internalType": "uint256",
          "name": "",
          "type": "uint256"
        }
      ],
      "stateMutability": "view",
      "type": "function"
    },
    {
      "inputs": [
        {
          "internalType": "bytes4",
          "name": "interfaceId",
          "type": "bytes4"
        }
      ],
      "name": "supportsInterface",
      "outputs": [
        {
          "internalType": "bool",
          "name": "",
          "type": "bool"
        }
      ],
      "stateMutability": "view",
      "type": "function"
    },
    {
      "inputs": [],
      "name": "symbol",
      "outputs": [
        {
          "internalType": "string",
          "name": "",
          "type": "string"
        }
      ],
      "stateMutability": "view",
      "type": "function"
    },
    {
      "inputs": [
        {
          "internalType": "uint256",
          "name": "index",
          "type": "uint256"
        }
      ],
      "name": "tokenByIndex",
      "outputs": [
        {
          "internalType": "uint256",
          "name": "",
          "type": "uint256"
        }
      ],
      "stateMutability": "view",
      "type": "function"
    },
    {
      "inputs": [
        {
          "internalType": "address",
          "name": "owner",
          "type": "address"
        },
        {
          "internalType": "uint256",
          "name": "index",
          "type": "uint256"
        }
      ],
      "name": "tokenOfOwnerByIndex",
      "outputs": [
        {
          "internalType": "uint256",
          "name": "",
          "type": "uint256"
        }
      ],
      "stateMutability": "view",
      "type": "function"
    },
    {
      "inputs": [
        {
          "internalType": "uint256",
          "name": "tokenId",
          "type": "uint256"
        }
      ],
      "name": "tokenURI",
      "outputs": [
        {
          "internalType": "string",
          "name": "",
          "type": "string"
        }
      ],
      "stateMutability": "view",
      "type": "function"
    },
    {
      "inputs": [],
      "name": "totalSupply",
      "outputs": [
        {
          "internalType": "uint256",
          "name": "",
          "type": "uint256"
        }
      ],
      "stateMutability": "view",
      "type": "function"
    },
    {
      "inputs": [],
      "name": "totalTx",
      "outputs": [
        {
          "internalType": "uint256",
          "name": "",
          "type": "uint256"
        }
      ],
      "stateMutability": "view",
      "type": "function"
    },
    {
      "inputs": [
        {
          "internalType": "address",
          "name": "from",
          "type": "address"
        },
        {
          "internalType": "address",
          "name": "to",
          "type": "address"
        },
        {
          "internalType": "uint256",
          "name": "tokenId",
          "type": "uint256"
        }
      ],
      "name": "transferFrom",
      "outputs": [],
      "stateMutability": "payable",
      "type": "function"
    },
    {
      "inputs": [
        {
          "internalType": "address",
          "name": "newOwner",
          "type": "address"
        }
      ],
      "name": "transferOwnership",
      "outputs": [],
      "stateMutability": "nonpayable",
      "type": "function"
    },
    {
      "inputs": [
        {
          "internalType": "string",
          "name": "title",
          "type": "string"
        },
        {
          "internalType": "string",
          "name": "description",
          "type": "string"
        },
        {
          "internalType": "string",
          "name": "metadataURI",
          "type": "string"
        },
        {
          "internalType": "uint256",
          "name": "salesPrice",
          "type": "uint256"
        }
      ],
      "name": "payToMint",
      "outputs": [],
      "stateMutability": "payable",
      "type": "function"
    },
    {
      "inputs": [
        {
          "internalType": "uint256",
          "name": "id",
          "type": "uint256"
        }
      ],
      "name": "payToBuy",
      "outputs": [],
      "stateMutability": "payable",
      "type": "function"
    },
    {
      "inputs": [
        {
          "internalType": "uint256",
          "name": "id",
          "type": "uint256"
        },
        {
          "internalType": "uint256",
          "name": "newPrice",
          "type": "uint256"
        }
      ],
      "name": "changePrice",
      "outputs": [
        {
          "internalType": "bool",
          "name": "",
          "type": "bool"
        }
      ],
      "stateMutability": "nonpayable",
      "type": "function"
    },
    {
      "inputs": [],
      "name": "getAllNFTs",
      "outputs": [
        {
          "components": [
            {
              "internalType": "uint256",
              "name": "id",
              "type": "uint256"
            },
            {
              "internalType": "address",
              "name": "owner",
              "type": "address"
            },
            {
              "internalType": "uint256",
              "name": "cost",
              "type": "uint256"
            },
            {
              "internalType": "string",
              "name": "title",
              "type": "string"
            },
            {
              "internalType": "string",
              "name": "description",
              "type": "string"
            },
            {
              "internalType": "string",
              "name": "metadataURI",
              "type": "string"
            },
            {
              "internalType": "uint256",
              "name": "timestamp",
              "type": "uint256"
            }
          ],
          "internalType": "struct PStoreNFT.TransactionStruct[]",
          "name": "",
          "type": "tuple[]"
        }
      ],
      "stateMutability": "view",
      "type": "function"
    },
    {
      "inputs": [
        {
          "internalType": "uint256",
          "name": "id",
          "type": "uint256"
        }
      ],
      "name": "getNFT",
      "outputs": [
        {
          "components": [
            {
              "internalType": "uint256",
              "name": "id",
              "type": "uint256"
            },
            {
              "internalType": "address",
              "name": "owner",
              "type": "address"
            },
            {
              "internalType": "uint256",
              "name": "cost",
              "type": "uint256"
            },
            {
              "internalType": "string",
              "name": "title",
              "type": "string"
            },
            {
              "internalType": "string",
              "name": "description",
              "type": "string"
            },
            {
              "internalType": "string",
              "name": "metadataURI",
              "type": "string"
            },
            {
              "internalType": "uint256",
              "name": "timestamp",
              "type": "uint256"
            }
          ],
          "internalType": "struct PStoreNFT.TransactionStruct",
          "name": "",
          "type": "tuple"
        }
      ],
      "stateMutability": "view",
      "type": "function"
    },
    {
      "inputs": [],
      "name": "getAllTransactions",
      "outputs": [
        {
          "components": [
            {
              "internalType": "uint256",
              "name": "id",
              "type": "uint256"
            },
            {
              "internalType": "address",
              "name": "owner",
              "type": "address"
            },
            {
              "internalType": "uint256",
              "name": "cost",
              "type": "uint256"
            },
            {
              "internalType": "string",
              "name": "title",
              "type": "string"
            },
            {
              "internalType": "string",
              "name": "description",
              "type": "string"
            },
            {
              "internalType": "string",
              "name": "metadataURI",
              "type": "string"
            },
            {
              "internalType": "uint256",
              "name": "timestamp",
              "type": "uint256"
            }
          ],
          "internalType": "struct PStoreNFT.TransactionStruct[]",
          "name": "",
          "type": "tuple[]"
        }
      ],
      "stateMutability": "view",
      "type": "function"
    }
  ],
  "bytecode": "0x60806040526000600f556000601055662386f26fc100006011553480156200002657600080fd5b50604051620059ca380380620059ca83398181016040528101906200004c9190620004af565b8383816000908051906020019062000066929190620001c2565b5080600190805190602001906200007f929190620001c2565b505050620000a262000096620000f460201b60201c565b620000fc60201b60201c565b81600e8190555080600d60006101000a81548173ffffffffffffffffffffffffffffffffffffffff021916908373ffffffffffffffffffffffffffffffffffffffff16021790555050505050620005c4565b600033905090565b6000600a60009054906101000a900473ffffffffffffffffffffffffffffffffffffffff16905081600a60006101000a81548173ffffffffffffffffffffffffffffffffffffffff021916908373ffffffffffffffffffffffffffffffffffffffff1602179055508173ffffffffffffffffffffffffffffffffffffffff168173ffffffffffffffffffffffffffffffffffffffff167f8be0079c531659141344cd1fd0a4f28419497f9722a3daafe3b4186f6b6457e060405160405180910390a35050565b828054620001d0906200058e565b90600052602060002090601f016020900481019282620001f4576000855562000240565b82601f106200020f57805160ff191683800117855562000240565b8280016001018555821562000240579182015b828111156200023f57825182559160200191906001019062000222565b5b5090506200024f919062000253565b5090565b5b808211156200026e57600081600090555060010162000254565b5090565b6000604051905090565b600080fd5b600080fd5b600080fd5b600080fd5b6000601f19601f8301169050919050565b7f4e487b7100000000000000000000000000000000000000000000000000000000600052604160045260246000fd5b620002db8262000290565b810181811067ffffffffffffffff82111715620002fd57620002fc620002a1565b5b80604052505050565b60006200031262000272565b9050620003208282620002d0565b919050565b600067ffffffffffffffff821115620003435762000342620002a1565b5b6200034e8262000290565b9050602081019050919050565b60005b838110156200037b5780820151818401526020810190506200035e565b838111156200038b576000848401525b50505050565b6000620003a8620003a28462000325565b62000306565b905082815260208101848484011115620003c757620003c66200028b565b5b620003d48482856200035b565b509392505050565b600082601f830112620003f457620003f362000286565b5b81516200040684826020860162000391565b91505092915050565b6000819050919050565b62000424816200040f565b81146200043057600080fd5b50565b600081519050620004448162000419565b92915050565b600073ffffffffffffffffffffffffffffffffffffffff82169050919050565b600062000477826200044a565b9050919050565b62000489816200046a565b81146200049557600080fd5b50565b600081519050620004a9816200047e565b92915050565b60008060008060808587031215620004cc57620004cb6200027c565b5b600085015167ffffffffffffffff811115620004ed57620004ec62000281565b5b620004fb87828801620003dc565b945050602085015167ffffffffffffffff8111156200051f576200051e62000281565b5b6200052d87828801620003dc565b9350506040620005408782880162000433565b9250506060620005538782880162000498565b91505092959194509250565b7f4e487b7100000000000000000000000000000000000000000000000000000000600052602260045260246000fd5b60006002820490506001821680620005a757607f821691505b60208210811415620005be57620005bd6200055f565b5b50919050565b6153f680620005d46000396000f3fe6080604052600436106101d85760003560e01c806370a0823111610102578063b3de019c11610095578063dbacc23711610064578063dbacc237146106a5578063e0391b09146106e2578063e985e9c51461070d578063f2fde38b1461074a576101d8565b8063b3de019c146105e4578063b88d4fde14610621578063b8997a971461063d578063c87b56dd14610668576101d8565b80638da5cb5b116100d15780638da5cb5b1461054957806395d89b41146105745780639ba4b0171461059f578063a22cb465146105bb576101d8565b806370a08231146104ae578063715018a6146104eb5780637220cf3914610502578063799c0c1e1461052d576101d8565b806323b872dd1161017a57806343bc16121161014957806343bc1612146103cc5780634f6ccce7146103f7578063576f7ea7146104345780636352211e14610471576101d8565b806323b872dd1461032c57806327506f53146103485780632f745c591461037357806342842e0e146103b0576101d8565b8063081812fc116101b6578063081812fc14610270578063095ea7b3146102ad57806313faede6146102d657806318160ddd14610301576101d8565b806301ffc9a7146101dd578063047fc9aa1461021a57806306fdde0314610245575b600080fd5b3480156101e957600080fd5b5061020460048036038101906101ff919061388f565b610773565b60405161021191906138d7565b60405180910390f35b34801561022657600080fd5b5061022f6107ed565b60405161023c919061390b565b60405180910390f35b34801561025157600080fd5b5061025a6107f3565b60405161026791906139bf565b60405180910390f35b34801561027c57600080fd5b5061029760048036038101906102929190613a0d565b610885565b6040516102a49190613a7b565b60405180910390f35b3480156102b957600080fd5b506102d460048036038101906102cf9190613ac2565b61090a565b005b3480156102e257600080fd5b506102eb610a22565b6040516102f8919061390b565b60405180910390f35b34801561030d57600080fd5b50610316610a28565b604051610323919061390b565b60405180910390f35b61034660048036038101906103419190613b02565b610a35565b005b34801561035457600080fd5b5061035d610a95565b60405161036a9190613d29565b60405180910390f35b34801561037f57600080fd5b5061039a60048036038101906103959190613ac2565b610d1e565b6040516103a7919061390b565b60405180910390f35b6103ca60048036038101906103c59190613b02565b610dc3565b005b3480156103d857600080fd5b506103e1610de3565b6040516103ee9190613a7b565b60405180910390f35b34801561040357600080fd5b5061041e60048036038101906104199190613a0d565b610e09565b60405161042b919061390b565b60405180910390f35b34801561044057600080fd5b5061045b60048036038101906104569190613a0d565b610e7a565b6040516104689190613df5565b60405180910390f35b34801561047d57600080fd5b5061049860048036038101906104939190613a0d565b6110ec565b6040516104a59190613a7b565b60405180910390f35b3480156104ba57600080fd5b506104d560048036038101906104d09190613e17565b61119e565b6040516104e2919061390b565b60405180910390f35b3480156104f757600080fd5b50610500611256565b005b34801561050e57600080fd5b5061051761126a565b604051610524919061390b565b60405180910390f35b61054760048036038101906105429190613f79565b611270565b005b34801561055557600080fd5b5061055e611643565b60405161056b9190613a7b565b60405180910390f35b34801561058057600080fd5b5061058961166d565b60405161059691906139bf565b60405180910390f35b6105b960048036038101906105b49190613a0d565b6116ff565b005b3480156105c757600080fd5b506105e260048036038101906105dd9190614060565b611d54565b005b3480156105f057600080fd5b5061060b600480360381019061060691906140a0565b611d6a565b60405161061891906138d7565b60405180910390f35b61063b60048036038101906106369190614181565b611ead565b005b34801561064957600080fd5b50610652611f0f565b60405161065f919061390b565b60405180910390f35b34801561067457600080fd5b5061068f600480360381019061068a9190613a0d565b611f15565b60405161069c91906139bf565b60405180910390f35b3480156106b157600080fd5b506106cc60048036038101906106c79190613a0d565b611fbc565b6040516106d99190613a7b565b60405180910390f35b3480156106ee57600080fd5b506106f7611fef565b6040516107049190613d29565b60405180910390f35b34801561071957600080fd5b50610734600480360381019061072f9190614204565b612278565b60405161074191906138d7565b60405180910390f35b34801561075657600080fd5b50610771600480360381019061076c9190613e17565b61230c565b005b60007f780e9d63000000000000000000000000000000000000000000000000000000007bffffffffffffffffffffffffffffffffffffffffffffffffffffffff1916827bffffffffffffffffffffffffffffffffffffffffffffffffffffffff191614806107e657506107e582612390565b5b9050919050565b600f5481565b60606000805461080290614273565b80601f016020809104026020016040519081016040528092919081815260200182805461082e90614273565b801561087b5780601f106108505761010080835404028352916020019161087b565b820191906000526020600020905b81548152906001019060200180831161085e57829003601f168201915b5050505050905090565b600061089082612472565b6108cf576040517f08c379a00000000000000000000000000000000000000000000000000000000081526004016108c690614317565b60405180910390fd5b6004600083815260200190815260200160002060009054906101000a900473ffffffffffffffffffffffffffffffffffffffff169050919050565b6000610915826110ec565b90508073ffffffffffffffffffffffffffffffffffffffff168373ffffffffffffffffffffffffffffffffffffffff161415610986576040517f08c379a000000000000000000000000000000000000000000000000000000000815260040161097d906143a9565b60405180910390fd5b8073ffffffffffffffffffffffffffffffffffffffff166109a56124de565b73ffffffffffffffffffffffffffffffffffffffff1614806109d457506109d3816109ce6124de565b612278565b5b610a13576040517f08c379a0000000000000000000000000000000000000000000000000000000008152600401610a0a9061443b565b60405180910390fd5b610a1d83836124e6565b505050565b60115481565b6000600880549050905090565b610a46610a406124de565b8261259f565b610a85576040517f08c379a0000000000000000000000000000000000000000000000000000000008152600401610a7c906144cd565b60405180910390fd5b610a9083838361267d565b505050565b60606012805480602002602001604051908101604052809291908181526020016000905b82821015610d1557838290600052602060002090600702016040518060e0016040529081600082015481526020016001820160009054906101000a900473ffffffffffffffffffffffffffffffffffffffff1673ffffffffffffffffffffffffffffffffffffffff1673ffffffffffffffffffffffffffffffffffffffff16815260200160028201548152602001600382018054610b5690614273565b80601f0160208091040260200160405190810160405280929190818152602001828054610b8290614273565b8015610bcf5780601f10610ba457610100808354040283529160200191610bcf565b820191906000526020600020905b815481529060010190602001808311610bb257829003601f168201915b50505050508152602001600482018054610be890614273565b80601f0160208091040260200160405190810160405280929190818152602001828054610c1490614273565b8015610c615780601f10610c3657610100808354040283529160200191610c61565b820191906000526020600020905b815481529060010190602001808311610c4457829003601f168201915b50505050508152602001600582018054610c7a90614273565b80601f0160208091040260200160405190810160405280929190818152602001828054610ca690614273565b8015610cf35780601f10610cc857610100808354040283529160200191610cf3565b820191906000526020600020905b815481529060010190602001808311610cd657829003601f168201915b5050505050815260200160068201548152505081526020019060010190610ab9565b50505050905090565b6000610d298361119e565b8210610d6a576040517f08c379a0000000000000000000000000000000000000000000000000000000008152600401610d619061455f565b60405180910390fd5b600660008473ffffffffffffffffffffffffffffffffffffffff1673ffffffffffffffffffffffffffffffffffffffff168152602001908152602001600020600083815260200190815260200160002054905092915050565b610dde83838360405180602001604052806000815250611ead565b505050565b600d60009054906101000a900473ffffffffffffffffffffffffffffffffffffffff1681565b6000610e13610a28565b8210610e54576040517f08c379a0000000000000000000000000000000000000000000000000000000008152600401610e4b906145f1565b60405180910390fd5b60088281548110610e6857610e67614611565b5b90600052602060002001549050919050565b610e8261372d565b6013600183610e91919061466f565b81548110610ea257610ea1614611565b5b90600052602060002090600702016040518060e0016040529081600082015481526020016001820160009054906101000a900473ffffffffffffffffffffffffffffffffffffffff1673ffffffffffffffffffffffffffffffffffffffff1673ffffffffffffffffffffffffffffffffffffffff16815260200160028201548152602001600382018054610f3590614273565b80601f0160208091040260200160405190810160405280929190818152602001828054610f6190614273565b8015610fae5780601f10610f8357610100808354040283529160200191610fae565b820191906000526020600020905b815481529060010190602001808311610f9157829003601f168201915b50505050508152602001600482018054610fc790614273565b80601f0160208091040260200160405190810160405280929190818152602001828054610ff390614273565b80156110405780601f1061101557610100808354040283529160200191611040565b820191906000526020600020905b81548152906001019060200180831161102357829003601f168201915b5050505050815260200160058201805461105990614273565b80601f016020809104026020016040519081016040528092919081815260200182805461108590614273565b80156110d25780601f106110a7576101008083540402835291602001916110d2565b820191906000526020600020905b8154815290600101906020018083116110b557829003601f168201915b505050505081526020016006820154815250509050919050565b6000806002600084815260200190815260200160002060009054906101000a900473ffffffffffffffffffffffffffffffffffffffff169050600073ffffffffffffffffffffffffffffffffffffffff168173ffffffffffffffffffffffffffffffffffffffff161415611195576040517f08c379a000000000000000000000000000000000000000000000000000000000815260040161118c90614715565b60405180910390fd5b80915050919050565b60008073ffffffffffffffffffffffffffffffffffffffff168273ffffffffffffffffffffffffffffffffffffffff16141561120f576040517f08c379a0000000000000000000000000000000000000000000000000000000008152600401611206906147a7565b60405180910390fd5b600360008373ffffffffffffffffffffffffffffffffffffffff1673ffffffffffffffffffffffffffffffffffffffff168152602001908152602001600020549050919050565b61125e6128d9565b6112686000612957565b565b60105481565b6011543410156112b5576040517f08c379a00000000000000000000000000000000000000000000000000000000081526004016112ac90614813565b60405180910390fd5b6000600b836040516112c7919061486f565b908152602001604051809103902060009054906101000a900460ff1660ff1614611326576040517f08c379a000000000000000000000000000000000000000000000000000000000815260040161131d906148d2565b60405180910390fd5b61132e611643565b73ffffffffffffffffffffffffffffffffffffffff163373ffffffffffffffffffffffffffffffffffffffff16141561139c576040517f08c379a00000000000000000000000000000000000000000000000000000000081526004016113939061493e565b60405180910390fd5b60006064600e54346113ae919061495e565b6113b891906149e7565b90506113e6600d60009054906101000a900473ffffffffffffffffffffffffffffffffffffffff1682612a1d565b6114026113f1611643565b82346113fd919061466f565b612a1d565b600f600081548092919061141590614a18565b919050555060136040518060e00160405280600f5481526020013373ffffffffffffffffffffffffffffffffffffffff1681526020018481526020018781526020018681526020018581526020014281525090806001815401808255809150506001900390600052602060002090600702016000909190919091506000820151816000015560208201518160010160006101000a81548173ffffffffffffffffffffffffffffffffffffffff021916908373ffffffffffffffffffffffffffffffffffffffff160217905550604082015181600201556060820151816003019080519060200190611507929190613780565b506080820151816004019080519060200190611524929190613780565b5060a0820151816005019080519060200190611541929190613780565b5060c0820151816006015550503373ffffffffffffffffffffffffffffffffffffffff167fb9508407a6eccb191d8da3286f4173697cf95604e9ea192fe5ab7c862b5221f6600f5434864260405161159c9493929190614a61565b60405180910390a26115b033600f54612a98565b6001600b846040516115c2919061486f565b908152602001604051809103902060006101000a81548160ff021916908360ff16021790555033600c6000600f54815260200190815260200160002060006101000a81548173ffffffffffffffffffffffffffffffffffffffff021916908373ffffffffffffffffffffffffffffffffffffffff1602179055505050505050565b6000600a60009054906101000a900473ffffffffffffffffffffffffffffffffffffffff16905090565b60606001805461167c90614273565b80601f01602080910402602001604051908101604052809291908181526020018280546116a890614273565b80156116f55780601f106116ca576101008083540402835291602001916116f5565b820191906000526020600020905b8154815290600101906020018083116116d857829003601f168201915b5050505050905090565b601360018261170e919061466f565b8154811061171f5761171e614611565b5b906000526020600020906007020160020154341015611773576040517f08c379a000000000000000000000000000000000000000000000000000000000815260040161176a90614af9565b60405180910390fd5b6013600182611782919061466f565b8154811061179357611792614611565b5b906000526020600020906007020160010160009054906101000a900473ffffffffffffffffffffffffffffffffffffffff1673ffffffffffffffffffffffffffffffffffffffff163373ffffffffffffffffffffffffffffffffffffffff161415611833576040517f08c379a000000000000000000000000000000000000000000000000000000000815260040161182a90614b65565b60405180910390fd5b60006064600e5434611845919061495e565b61184f91906149e7565b905061187d600d60009054906101000a900473ffffffffffffffffffffffffffffffffffffffff1682612a1d565b6118e3601360018461188f919061466f565b815481106118a05761189f614611565b5b906000526020600020906007020160010160009054906101000a900473ffffffffffffffffffffffffffffffffffffffff1682346118de919061466f565b612a1d565b601060008154809291906118f690614a18565b919050555060126040518060e0016040528060105481526020013373ffffffffffffffffffffffffffffffffffffffff1681526020013481526020016013600186611941919061466f565b8154811061195257611951614611565b5b9060005260206000209060070201600301805461196e90614273565b80601f016020809104026020016040519081016040528092919081815260200182805461199a90614273565b80156119e75780601f106119bc576101008083540402835291602001916119e7565b820191906000526020600020905b8154815290600101906020018083116119ca57829003601f168201915b505050505081526020016013600186611a00919061466f565b81548110611a1157611a10614611565b5b90600052602060002090600702016004018054611a2d90614273565b80601f0160208091040260200160405190810160405280929190818152602001828054611a5990614273565b8015611aa65780601f10611a7b57610100808354040283529160200191611aa6565b820191906000526020600020905b815481529060010190602001808311611a8957829003601f168201915b505050505081526020016013600186611abf919061466f565b81548110611ad057611acf614611565b5b90600052602060002090600702016005018054611aec90614273565b80601f0160208091040260200160405190810160405280929190818152602001828054611b1890614273565b8015611b655780601f10611b3a57610100808354040283529160200191611b65565b820191906000526020600020905b815481529060010190602001808311611b4857829003601f168201915b505050505081526020014281525090806001815401808255809150506001900390600052602060002090600702016000909190919091506000820151816000015560208201518160010160006101000a81548173ffffffffffffffffffffffffffffffffffffffff021916908373ffffffffffffffffffffffffffffffffffffffff160217905550604082015181600201556060820151816003019080519060200190611c13929190613780565b506080820151816004019080519060200190611c30929190613780565b5060a0820151816005019080519060200190611c4d929190613780565b5060c0820151816006015550503373ffffffffffffffffffffffffffffffffffffffff167fb9508407a6eccb191d8da3286f4173697cf95604e9ea192fe5ab7c862b5221f6601054346013600187611ca5919061466f565b81548110611cb657611cb5614611565b5b906000526020600020906007020160050142604051611cd89493929190614c1a565b60405180910390a2336013600184611cf0919061466f565b81548110611d0157611d00614611565b5b906000526020600020906007020160010160006101000a81548173ffffffffffffffffffffffffffffffffffffffff021916908373ffffffffffffffffffffffffffffffffffffffff1602179055505050565b611d66611d5f6124de565b8383612ab6565b5050565b6000808211611dae576040517f08c379a0000000000000000000000000000000000000000000000000000000008152600401611da590614cb2565b60405180910390fd5b6013600184611dbd919061466f565b81548110611dce57611dcd614611565b5b906000526020600020906007020160010160009054906101000a900473ffffffffffffffffffffffffffffffffffffffff1673ffffffffffffffffffffffffffffffffffffffff163373ffffffffffffffffffffffffffffffffffffffff1614611e6d576040517f08c379a0000000000000000000000000000000000000000000000000000000008152600401611e6490614b65565b60405180910390fd5b816013600185611e7d919061466f565b81548110611e8e57611e8d614611565b5b9060005260206000209060070201600201819055506001905092915050565b611ebe611eb86124de565b8361259f565b611efd576040517f08c379a0000000000000000000000000000000000000000000000000000000008152600401611ef4906144cd565b60405180910390fd5b611f0984848484612c23565b50505050565b600e5481565b6060611f2082612472565b611f5f576040517f08c379a0000000000000000000000000000000000000000000000000000000008152600401611f5690614d44565b60405180910390fd5b6000611f69612c7f565b90506000815111611f895760405180602001604052806000815250611fb4565b80611f9384612c96565b604051602001611fa4929190614d64565b6040516020818303038152906040525b915050919050565b600c6020528060005260406000206000915054906101000a900473ffffffffffffffffffffffffffffffffffffffff1681565b60606013805480602002602001604051908101604052809291908181526020016000905b8282101561226f57838290600052602060002090600702016040518060e0016040529081600082015481526020016001820160009054906101000a900473ffffffffffffffffffffffffffffffffffffffff1673ffffffffffffffffffffffffffffffffffffffff1673ffffffffffffffffffffffffffffffffffffffff168152602001600282015481526020016003820180546120b090614273565b80601f01602080910402602001604051908101604052809291908181526020018280546120dc90614273565b80156121295780601f106120fe57610100808354040283529160200191612129565b820191906000526020600020905b81548152906001019060200180831161210c57829003601f168201915b5050505050815260200160048201805461214290614273565b80601f016020809104026020016040519081016040528092919081815260200182805461216e90614273565b80156121bb5780601f10612190576101008083540402835291602001916121bb565b820191906000526020600020905b81548152906001019060200180831161219e57829003601f168201915b505050505081526020016005820180546121d490614273565b80601f016020809104026020016040519081016040528092919081815260200182805461220090614273565b801561224d5780601f106122225761010080835404028352916020019161224d565b820191906000526020600020905b81548152906001019060200180831161223057829003601f168201915b5050505050815260200160068201548152505081526020019060010190612013565b50505050905090565b6000600560008473ffffffffffffffffffffffffffffffffffffffff1673ffffffffffffffffffffffffffffffffffffffff16815260200190815260200160002060008373ffffffffffffffffffffffffffffffffffffffff1673ffffffffffffffffffffffffffffffffffffffff16815260200190815260200160002060009054906101000a900460ff16905092915050565b6123146128d9565b600073ffffffffffffffffffffffffffffffffffffffff168173ffffffffffffffffffffffffffffffffffffffff161415612384576040517f08c379a000000000000000000000000000000000000000000000000000000000815260040161237b90614dfa565b60405180910390fd5b61238d81612957565b50565b60007f80ac58cd000000000000000000000000000000000000000000000000000000007bffffffffffffffffffffffffffffffffffffffffffffffffffffffff1916827bffffffffffffffffffffffffffffffffffffffffffffffffffffffff1916148061245b57507f5b5e139f000000000000000000000000000000000000000000000000000000007bffffffffffffffffffffffffffffffffffffffffffffffffffffffff1916827bffffffffffffffffffffffffffffffffffffffffffffffffffffffff1916145b8061246b575061246a82612d6e565b5b9050919050565b60008073ffffffffffffffffffffffffffffffffffffffff166002600084815260200190815260200160002060009054906101000a900473ffffffffffffffffffffffffffffffffffffffff1673ffffffffffffffffffffffffffffffffffffffff1614159050919050565b600033905090565b816004600083815260200190815260200160002060006101000a81548173ffffffffffffffffffffffffffffffffffffffff021916908373ffffffffffffffffffffffffffffffffffffffff160217905550808273ffffffffffffffffffffffffffffffffffffffff16612559836110ec565b73ffffffffffffffffffffffffffffffffffffffff167f8c5be1e5ebec7d5bd14f71427d1e84f3dd0314c0f7b2291e5b200ac8c7c3b92560405160405180910390a45050565b60006125aa82612472565b6125e9576040517f08c379a00000000000000000000000000000000000000000000000000000000081526004016125e090614e8c565b60405180910390fd5b60006125f4836110ec565b90508073ffffffffffffffffffffffffffffffffffffffff168473ffffffffffffffffffffffffffffffffffffffff16148061266357508373ffffffffffffffffffffffffffffffffffffffff1661264b84610885565b73ffffffffffffffffffffffffffffffffffffffff16145b8061267457506126738185612278565b5b91505092915050565b8273ffffffffffffffffffffffffffffffffffffffff1661269d826110ec565b73ffffffffffffffffffffffffffffffffffffffff16146126f3576040517f08c379a00000000000000000000000000000000000000000000000000000000081526004016126ea90614f1e565b60405180910390fd5b600073ffffffffffffffffffffffffffffffffffffffff168273ffffffffffffffffffffffffffffffffffffffff161415612763576040517f08c379a000000000000000000000000000000000000000000000000000000000815260040161275a90614fb0565b60405180910390fd5b61276e838383612dd8565b6127796000826124e6565b6001600360008573ffffffffffffffffffffffffffffffffffffffff1673ffffffffffffffffffffffffffffffffffffffff16815260200190815260200160002060008282546127c9919061466f565b925050819055506001600360008473ffffffffffffffffffffffffffffffffffffffff1673ffffffffffffffffffffffffffffffffffffffff16815260200190815260200160002060008282546128209190614fd0565b92505081905550816002600083815260200190815260200160002060006101000a81548173ffffffffffffffffffffffffffffffffffffffff021916908373ffffffffffffffffffffffffffffffffffffffff160217905550808273ffffffffffffffffffffffffffffffffffffffff168473ffffffffffffffffffffffffffffffffffffffff167fddf252ad1be2c89b69c2b068fc378daa952ba7f163c4a11628f55a4df523b3ef60405160405180910390a4505050565b6128e16124de565b73ffffffffffffffffffffffffffffffffffffffff166128ff611643565b73ffffffffffffffffffffffffffffffffffffffff1614612955576040517f08c379a000000000000000000000000000000000000000000000000000000000815260040161294c90615072565b60405180910390fd5b565b6000600a60009054906101000a900473ffffffffffffffffffffffffffffffffffffffff16905081600a60006101000a81548173ffffffffffffffffffffffffffffffffffffffff021916908373ffffffffffffffffffffffffffffffffffffffff1602179055508173ffffffffffffffffffffffffffffffffffffffff168173ffffffffffffffffffffffffffffffffffffffff167f8be0079c531659141344cd1fd0a4f28419497f9722a3daafe3b4186f6b6457e060405160405180910390a35050565b60008273ffffffffffffffffffffffffffffffffffffffff1682604051612a43906150c3565b60006040518083038185875af1925050503d8060008114612a80576040519150601f19603f3d011682016040523d82523d6000602084013e612a85565b606091505b5050905080612a9357600080fd5b505050565b612ab2828260405180602001604052806000815250612eec565b5050565b8173ffffffffffffffffffffffffffffffffffffffff168373ffffffffffffffffffffffffffffffffffffffff161415612b25576040517f08c379a0000000000000000000000000000000000000000000000000000000008152600401612b1c90615124565b60405180910390fd5b80600560008573ffffffffffffffffffffffffffffffffffffffff1673ffffffffffffffffffffffffffffffffffffffff16815260200190815260200160002060008473ffffffffffffffffffffffffffffffffffffffff1673ffffffffffffffffffffffffffffffffffffffff16815260200190815260200160002060006101000a81548160ff0219169083151502179055508173ffffffffffffffffffffffffffffffffffffffff168373ffffffffffffffffffffffffffffffffffffffff167f17307eab39ab6107e8899845ad3d59bd9653f200f220920489ca2b5937696c3183604051612c1691906138d7565b60405180910390a3505050565b612c2e84848461267d565b612c3a84848484612f47565b612c79576040517f08c379a0000000000000000000000000000000000000000000000000000000008152600401612c70906151b6565b60405180910390fd5b50505050565b606060405180602001604052806000815250905090565b606060006001612ca5846130de565b01905060008167ffffffffffffffff811115612cc457612cc3613e4e565b5b6040519080825280601f01601f191660200182016040528015612cf65781602001600182028036833780820191505090505b509050600082602001820190505b600115612d63578080600190039150507f3031323334353637383961626364656600000000000000000000000000000000600a86061a8153600a8581612d4d57612d4c6149b8565b5b0494506000851415612d5e57612d63565b612d04565b819350505050919050565b60007f01ffc9a7000000000000000000000000000000000000000000000000000000007bffffffffffffffffffffffffffffffffffffffffffffffffffffffff1916827bffffffffffffffffffffffffffffffffffffffffffffffffffffffff1916149050919050565b612de3838383613231565b600073ffffffffffffffffffffffffffffffffffffffff168373ffffffffffffffffffffffffffffffffffffffff161415612e2657612e2181613236565b612e65565b8173ffffffffffffffffffffffffffffffffffffffff168373ffffffffffffffffffffffffffffffffffffffff1614612e6457612e63838261327f565b5b5b600073ffffffffffffffffffffffffffffffffffffffff168273ffffffffffffffffffffffffffffffffffffffff161415612ea857612ea3816133ec565b612ee7565b8273ffffffffffffffffffffffffffffffffffffffff168273ffffffffffffffffffffffffffffffffffffffff1614612ee657612ee582826134bd565b5b5b505050565b612ef6838361353c565b612f036000848484612f47565b612f42576040517f08c379a0000000000000000000000000000000000000000000000000000000008152600401612f39906151b6565b60405180910390fd5b505050565b6000612f688473ffffffffffffffffffffffffffffffffffffffff1661370a565b156130d1578373ffffffffffffffffffffffffffffffffffffffff1663150b7a02612f916124de565b8786866040518563ffffffff1660e01b8152600401612fb3949392919061522b565b602060405180830381600087803b158015612fcd57600080fd5b505af1925050508015612ffe57506040513d601f19601f82011682018060405250810190612ffb919061528c565b60015b613081573d806000811461302e576040519150601f19603f3d011682016040523d82523d6000602084013e613033565b606091505b50600081511415613079576040517f08c379a0000000000000000000000000000000000000000000000000000000008152600401613070906151b6565b60405180910390fd5b805181602001fd5b63150b7a0260e01b7bffffffffffffffffffffffffffffffffffffffffffffffffffffffff1916817bffffffffffffffffffffffffffffffffffffffffffffffffffffffff1916149150506130d6565b600190505b949350505050565b600080600090507a184f03e93ff9f4daa797ed6e38ed64bf6a1f010000000000000000831061313c577a184f03e93ff9f4daa797ed6e38ed64bf6a1f0100000000000000008381613132576131316149b8565b5b0492506040810190505b6d04ee2d6d415b85acef81000000008310613179576d04ee2d6d415b85acef8100000000838161316f5761316e6149b8565b5b0492506020810190505b662386f26fc1000083106131a857662386f26fc10000838161319e5761319d6149b8565b5b0492506010810190505b6305f5e10083106131d1576305f5e10083816131c7576131c66149b8565b5b0492506008810190505b61271083106131f65761271083816131ec576131eb6149b8565b5b0492506004810190505b60648310613219576064838161320f5761320e6149b8565b5b0492506002810190505b600a8310613228576001810190505b80915050919050565b505050565b6008805490506009600083815260200190815260200160002081905550600881908060018154018082558091505060019003906000526020600020016000909190919091505550565b6000600161328c8461119e565b613296919061466f565b905060006007600084815260200190815260200160002054905081811461337b576000600660008673ffffffffffffffffffffffffffffffffffffffff1673ffffffffffffffffffffffffffffffffffffffff168152602001908152602001600020600084815260200190815260200160002054905080600660008773ffffffffffffffffffffffffffffffffffffffff1673ffffffffffffffffffffffffffffffffffffffff168152602001908152602001600020600084815260200190815260200160002081905550816007600083815260200190815260200160002081905550505b6007600084815260200190815260200160002060009055600660008573ffffffffffffffffffffffffffffffffffffffff1673ffffffffffffffffffffffffffffffffffffffff16815260200190815260200160002060008381526020019081526020016000206000905550505050565b60006001600880549050613400919061466f565b90506000600960008481526020019081526020016000205490506000600883815481106134305761342f614611565b5b90600052602060002001549050806008838154811061345257613451614611565b5b9060005260206000200181905550816009600083815260200190815260200160002081905550600960008581526020019081526020016000206000905560088054806134a1576134a06152b9565b5b6001900381819060005260206000200160009055905550505050565b60006134c88361119e565b905081600660008573ffffffffffffffffffffffffffffffffffffffff1673ffffffffffffffffffffffffffffffffffffffff168152602001908152602001600020600083815260200190815260200160002081905550806007600084815260200190815260200160002081905550505050565b600073ffffffffffffffffffffffffffffffffffffffff168273ffffffffffffffffffffffffffffffffffffffff1614156135ac576040517f08c379a00000000000000000000000000000000000000000000000000000000081526004016135a390615334565b60405180910390fd5b6135b581612472565b156135f5576040517f08c379a00000000000000000000000000000000000000000000000000000000081526004016135ec906153a0565b60405180910390fd5b61360160008383612dd8565b6001600360008473ffffffffffffffffffffffffffffffffffffffff1673ffffffffffffffffffffffffffffffffffffffff16815260200190815260200160002060008282546136519190614fd0565b92505081905550816002600083815260200190815260200160002060006101000a81548173ffffffffffffffffffffffffffffffffffffffff021916908373ffffffffffffffffffffffffffffffffffffffff160217905550808273ffffffffffffffffffffffffffffffffffffffff16600073ffffffffffffffffffffffffffffffffffffffff167fddf252ad1be2c89b69c2b068fc378daa952ba7f163c4a11628f55a4df523b3ef60405160405180910390a45050565b6000808273ffffffffffffffffffffffffffffffffffffffff163b119050919050565b6040518060e0016040528060008152602001600073ffffffffffffffffffffffffffffffffffffffff16815260200160008152602001606081526020016060815260200160608152602001600081525090565b82805461378c90614273565b90600052602060002090601f0160209004810192826137ae57600085556137f5565b82601f106137c757805160ff19168380011785556137f5565b828001600101855582156137f5579182015b828111156137f45782518255916020019190600101906137d9565b5b5090506138029190613806565b5090565b5b8082111561381f576000816000905550600101613807565b5090565b6000604051905090565b600080fd5b600080fd5b60007fffffffff0000000000000000000000000000000000000000000000000000000082169050919050565b61386c81613837565b811461387757600080fd5b50565b60008135905061388981613863565b92915050565b6000602082840312156138a5576138a461382d565b5b60006138b38482850161387a565b91505092915050565b60008115159050919050565b6138d1816138bc565b82525050565b60006020820190506138ec60008301846138c8565b92915050565b6000819050919050565b613905816138f2565b82525050565b600060208201905061392060008301846138fc565b92915050565b600081519050919050565b600082825260208201905092915050565b60005b83811015613960578082015181840152602081019050613945565b8381111561396f576000848401525b50505050565b6000601f19601f8301169050919050565b600061399182613926565b61399b8185613931565b93506139ab818560208601613942565b6139b481613975565b840191505092915050565b600060208201905081810360008301526139d98184613986565b905092915050565b6139ea816138f2565b81146139f557600080fd5b50565b600081359050613a07816139e1565b92915050565b600060208284031215613a2357613a2261382d565b5b6000613a31848285016139f8565b91505092915050565b600073ffffffffffffffffffffffffffffffffffffffff82169050919050565b6000613a6582613a3a565b9050919050565b613a7581613a5a565b82525050565b6000602082019050613a906000830184613a6c565b92915050565b613a9f81613a5a565b8114613aaa57600080fd5b50565b600081359050613abc81613a96565b92915050565b60008060408385031215613ad957613ad861382d565b5b6000613ae785828601613aad565b9250506020613af8858286016139f8565b9150509250929050565b600080600060608486031215613b1b57613b1a61382d565b5b6000613b2986828701613aad565b9350506020613b3a86828701613aad565b9250506040613b4b868287016139f8565b9150509250925092565b600081519050919050565b600082825260208201905092915050565b6000819050602082019050919050565b613b8a816138f2565b82525050565b613b9981613a5a565b82525050565b600082825260208201905092915050565b6000613bbb82613926565b613bc58185613b9f565b9350613bd5818560208601613942565b613bde81613975565b840191505092915050565b600060e083016000830151613c016000860182613b81565b506020830151613c146020860182613b90565b506040830151613c276040860182613b81565b5060608301518482036060860152613c3f8282613bb0565b91505060808301518482036080860152613c598282613bb0565b91505060a083015184820360a0860152613c738282613bb0565b91505060c0830151613c8860c0860182613b81565b508091505092915050565b6000613c9f8383613be9565b905092915050565b6000602082019050919050565b6000613cbf82613b55565b613cc98185613b60565b935083602082028501613cdb85613b71565b8060005b85811015613d175784840389528151613cf88582613c93565b9450613d0383613ca7565b925060208a01995050600181019050613cdf565b50829750879550505050505092915050565b60006020820190508181036000830152613d438184613cb4565b905092915050565b600060e083016000830151613d636000860182613b81565b506020830151613d766020860182613b90565b506040830151613d896040860182613b81565b5060608301518482036060860152613da18282613bb0565b91505060808301518482036080860152613dbb8282613bb0565b91505060a083015184820360a0860152613dd58282613bb0565b91505060c0830151613dea60c0860182613b81565b508091505092915050565b60006020820190508181036000830152613e0f8184613d4b565b905092915050565b600060208284031215613e2d57613e2c61382d565b5b6000613e3b84828501613aad565b91505092915050565b600080fd5b600080fd5b7f4e487b7100000000000000000000000000000000000000000000000000000000600052604160045260246000fd5b613e8682613975565b810181811067ffffffffffffffff82111715613ea557613ea4613e4e565b5b80604052505050565b6000613eb8613823565b9050613ec48282613e7d565b919050565b600067ffffffffffffffff821115613ee457613ee3613e4e565b5b613eed82613975565b9050602081019050919050565b82818337600083830152505050565b6000613f1c613f1784613ec9565b613eae565b905082815260208101848484011115613f3857613f37613e49565b5b613f43848285613efa565b509392505050565b600082601f830112613f6057613f5f613e44565b5b8135613f70848260208601613f09565b91505092915050565b60008060008060808587031215613f9357613f9261382d565b5b600085013567ffffffffffffffff811115613fb157613fb0613832565b5b613fbd87828801613f4b565b945050602085013567ffffffffffffffff811115613fde57613fdd613832565b5b613fea87828801613f4b565b935050604085013567ffffffffffffffff81111561400b5761400a613832565b5b61401787828801613f4b565b9250506060614028878288016139f8565b91505092959194509250565b61403d816138bc565b811461404857600080fd5b50565b60008135905061405a81614034565b92915050565b600080604083850312156140775761407661382d565b5b600061408585828601613aad565b92505060206140968582860161404b565b9150509250929050565b600080604083850312156140b7576140b661382d565b5b60006140c5858286016139f8565b92505060206140d6858286016139f8565b9150509250929050565b600067ffffffffffffffff8211156140fb576140fa613e4e565b5b61410482613975565b9050602081019050919050565b600061412461411f846140e0565b613eae565b9050828152602081018484840111156141405761413f613e49565b5b61414b848285613efa565b509392505050565b600082601f83011261416857614167613e44565b5b8135614178848260208601614111565b91505092915050565b6000806000806080858703121561419b5761419a61382d565b5b60006141a987828801613aad565b94505060206141ba87828801613aad565b93505060406141cb878288016139f8565b925050606085013567ffffffffffffffff8111156141ec576141eb613832565b5b6141f887828801614153565b91505092959194509250565b6000806040838503121561421b5761421a61382d565b5b600061422985828601613aad565b925050602061423a85828601613aad565b9150509250929050565b7f4e487b7100000000000000000000000000000000000000000000000000000000600052602260045260246000fd5b6000600282049050600182168061428b57607f821691505b6020821081141561429f5761429e614244565b5b50919050565b7f4552433732313a20617070726f76656420717565727920666f72206e6f6e657860008201527f697374656e7420746f6b656e0000000000000000000000000000000000000000602082015250565b6000614301602c83613931565b915061430c826142a5565b604082019050919050565b60006020820190508181036000830152614330816142f4565b9050919050565b7f4552433732313a20617070726f76616c20746f2063757272656e74206f776e6560008201527f7200000000000000000000000000000000000000000000000000000000000000602082015250565b6000614393602183613931565b915061439e82614337565b604082019050919050565b600060208201905081810360008301526143c281614386565b9050919050565b7f4552433732313a20617070726f76652063616c6c6572206973206e6f74206f7760008201527f6e6572206e6f7220617070726f76656420666f7220616c6c0000000000000000602082015250565b6000614425603883613931565b9150614430826143c9565b604082019050919050565b6000602082019050818103600083015261445481614418565b9050919050565b7f4552433732313a207472616e736665722063616c6c6572206973206e6f74206f60008201527f776e6572206e6f7220617070726f766564000000000000000000000000000000602082015250565b60006144b7603183613931565b91506144c28261445b565b604082019050919050565b600060208201905081810360008301526144e6816144aa565b9050919050565b7f455243373231456e756d657261626c653a206f776e657220696e646578206f7560008201527f74206f6620626f756e6473000000000000000000000000000000000000000000602082015250565b6000614549602b83613931565b9150614554826144ed565b604082019050919050565b600060208201905081810360008301526145788161453c565b9050919050565b7f455243373231456e756d657261626c653a20676c6f62616c20696e646578206f60008201527f7574206f6620626f756e64730000000000000000000000000000000000000000602082015250565b60006145db602c83613931565b91506145e68261457f565b604082019050919050565b6000602082019050818103600083015261460a816145ce565b9050919050565b7f4e487b7100000000000000000000000000000000000000000000000000000000600052603260045260246000fd5b7f4e487b7100000000000000000000000000000000000000000000000000000000600052601160045260246000fd5b600061467a826138f2565b9150614685836138f2565b92508282101561469857614697614640565b5b828203905092915050565b7f4552433732313a206f776e657220717565727920666f72206e6f6e657869737460008201527f656e7420746f6b656e0000000000000000000000000000000000000000000000602082015250565b60006146ff602983613931565b915061470a826146a3565b604082019050919050565b6000602082019050818103600083015261472e816146f2565b9050919050565b7f4552433732313a2062616c616e636520717565727920666f7220746865207a6560008201527f726f206164647265737300000000000000000000000000000000000000000000602082015250565b6000614791602a83613931565b915061479c82614735565b604082019050919050565b600060208201905081810360008301526147c081614784565b9050919050565b7f457468657220746f6f206c6f7720666f72206d696e74696e6721000000000000600082015250565b60006147fd601a83613931565b9150614808826147c7565b602082019050919050565b6000602082019050818103600083015261482c816147f0565b9050919050565b600081905092915050565b600061484982613926565b6148538185614833565b9350614863818560208601613942565b80840191505092915050565b600061487b828461483e565b915081905092915050565b7f54686973204e465420697320616c7265616479206d696e746564210000000000600082015250565b60006148bc601b83613931565b91506148c782614886565b602082019050919050565b600060208201905081810360008301526148eb816148af565b9050919050565b7f53616c6573206e6f7420616c6c6f776564210000000000000000000000000000600082015250565b6000614928601283613931565b9150614933826148f2565b602082019050919050565b600060208201905081810360008301526149578161491b565b9050919050565b6000614969826138f2565b9150614974836138f2565b9250817fffffffffffffffffffffffffffffffffffffffffffffffffffffffffffffffff04831182151516156149ad576149ac614640565b5b828202905092915050565b7f4e487b7100000000000000000000000000000000000000000000000000000000600052601260045260246000fd5b60006149f2826138f2565b91506149fd836138f2565b925082614a0d57614a0c6149b8565b5b828204905092915050565b6000614a23826138f2565b91507fffffffffffffffffffffffffffffffffffffffffffffffffffffffffffffffff821415614a5657614a55614640565b5b600182019050919050565b6000608082019050614a7660008301876138fc565b614a8360208301866138fc565b8181036040830152614a958185613986565b9050614aa460608301846138fc565b95945050505050565b7f457468657220746f6f206c6f7720666f72207075726368617365210000000000600082015250565b6000614ae3601b83613931565b9150614aee82614aad565b602082019050919050565b60006020820190508181036000830152614b1281614ad6565b9050919050565b7f4f7065726174696f6e204e6f7420416c6c6f7765642100000000000000000000600082015250565b6000614b4f601683613931565b9150614b5a82614b19565b602082019050919050565b60006020820190508181036000830152614b7e81614b42565b9050919050565b60008190508160005260206000209050919050565b60008154614ba781614273565b614bb18186613931565b94506001821660008114614bcc5760018114614bde57614c11565b60ff1983168652602086019350614c11565b614be785614b85565b60005b83811015614c0957815481890152600182019150602081019050614bea565b808801955050505b50505092915050565b6000608082019050614c2f60008301876138fc565b614c3c60208301866138fc565b8181036040830152614c4e8185614b9a565b9050614c5d60608301846138fc565b95945050505050565b7f457468657220746f6f206c6f7721000000000000000000000000000000000000600082015250565b6000614c9c600e83613931565b9150614ca782614c66565b602082019050919050565b60006020820190508181036000830152614ccb81614c8f565b9050919050565b7f4552433732314d657461646174613a2055524920717565727920666f72206e6f60008201527f6e6578697374656e7420746f6b656e0000000000000000000000000000000000602082015250565b6000614d2e602f83613931565b9150614d3982614cd2565b604082019050919050565b60006020820190508181036000830152614d5d81614d21565b9050919050565b6000614d70828561483e565b9150614d7c828461483e565b91508190509392505050565b7f4f776e61626c653a206e6577206f776e657220697320746865207a65726f206160008201527f6464726573730000000000000000000000000000000000000000000000000000602082015250565b6000614de4602683613931565b9150614def82614d88565b604082019050919050565b60006020820190508181036000830152614e1381614dd7565b9050919050565b7f4552433732313a206f70657261746f7220717565727920666f72206e6f6e657860008201527f697374656e7420746f6b656e0000000000000000000000000000000000000000602082015250565b6000614e76602c83613931565b9150614e8182614e1a565b604082019050919050565b60006020820190508181036000830152614ea581614e69565b9050919050565b7f4552433732313a207472616e73666572206f6620746f6b656e2074686174206960008201527f73206e6f74206f776e0000000000000000000000000000000000000000000000602082015250565b6000614f08602983613931565b9150614f1382614eac565b604082019050919050565b60006020820190508181036000830152614f3781614efb565b9050919050565b7f4552433732313a207472616e7366657220746f20746865207a65726f2061646460008201527f7265737300000000000000000000000000000000000000000000000000000000602082015250565b6000614f9a602483613931565b9150614fa582614f3e565b604082019050919050565b60006020820190508181036000830152614fc981614f8d565b9050919050565b6000614fdb826138f2565b9150614fe6836138f2565b9250827fffffffffffffffffffffffffffffffffffffffffffffffffffffffffffffffff0382111561501b5761501a614640565b5b828201905092915050565b7f4f776e61626c653a2063616c6c6572206973206e6f7420746865206f776e6572600082015250565b600061505c602083613931565b915061506782615026565b602082019050919050565b6000602082019050818103600083015261508b8161504f565b9050919050565b600081905092915050565b50565b60006150ad600083615092565b91506150b88261509d565b600082019050919050565b60006150ce826150a0565b9150819050919050565b7f4552433732313a20617070726f766520746f2063616c6c657200000000000000600082015250565b600061510e601983613931565b9150615119826150d8565b602082019050919050565b6000602082019050818103600083015261513d81615101565b9050919050565b7f4552433732313a207472616e7366657220746f206e6f6e20455243373231526560008201527f63656976657220696d706c656d656e7465720000000000000000000000000000602082015250565b60006151a0603283613931565b91506151ab82615144565b604082019050919050565b600060208201905081810360008301526151cf81615193565b9050919050565b600081519050919050565b600082825260208201905092915050565b60006151fd826151d6565b61520781856151e1565b9350615217818560208601613942565b61522081613975565b840191505092915050565b60006080820190506152406000830187613a6c565b61524d6020830186613a6c565b61525a60408301856138fc565b818103606083015261526c81846151f2565b905095945050505050565b60008151905061528681613863565b92915050565b6000602082840312156152a2576152a161382d565b5b60006152b084828501615277565b91505092915050565b7f4e487b7100000000000000000000000000000000000000000000000000000000600052603160045260246000fd5b7f4552433732313a206d696e7420746f20746865207a65726f2061646472657373600082015250565b600061531e602083613931565b9150615329826152e8565b602082019050919050565b6000602082019050818103600083015261534d81615311565b9050919050565b7f4552433732313a20746f6b656e20616c7265616479206d696e74656400000000600082015250565b600061538a601c83613931565b915061539582615354565b602082019050919050565b600060208201905081810360008301526153b98161537d565b905091905056fea26469706673582212202b44869631acb2b62a2576e0230900ba1041a797f579ec7283b5c09047df9df064736f6c63430008090033",
  "immutableReferences": {},
  "source": "// SPDX-License-Identifier: MIT\r\npragma solidity >=0.7.0 <0.9.0;\r\n\r\nimport \"./ERC721.sol\";\r\nimport \"./ERC721Enumerable.sol\";\r\nimport \"@openzeppelin/contracts/access/Ownable.sol\";\r\n\r\ncontract PStoreNFT is ERC721Enumerable, Ownable {\r\n    using Strings for uint256;\r\n    mapping(string => uint8) existingURIs;\r\n    mapping(uint256 => address) public holderOf;\r\n\r\n    address public artist;\r\n    uint256 public royaltyFee;\r\n    uint256 public supply = 0;\r\n    uint256 public totalTx = 0;\r\n    uint256 public cost = 0.01 ether;\r\n\r\n    event Sale(\r\n        uint256 id,\r\n        address indexed owner,\r\n        uint256 cost,\r\n        string metadataURI,\r\n        uint256 timestamp\r\n    );\r\n\r\n    struct TransactionStruct {\r\n        uint256 id;\r\n        address owner;\r\n        uint256 cost;\r\n        string title;\r\n        string description;\r\n        string metadataURI;\r\n        uint256 timestamp;\r\n    }\r\n\r\n    TransactionStruct[] transactions;\r\n    TransactionStruct[] minted;\r\n\r\n    constructor(\r\n        string memory _name,\r\n        string memory _symbol,\r\n        uint256 _royaltyFee,\r\n        address _artist\r\n    ) ERC721(_name, _symbol) {\r\n        royaltyFee = _royaltyFee;\r\n        artist = _artist;\r\n    }\r\n\r\n    function payToMint(\r\n        string memory title,\r\n        string memory description,\r\n        string memory metadataURI,\r\n        uint256 salesPrice\r\n    ) external payable {\r\n        require(msg.value >= cost, \"Ether too low for minting!\");\r\n        require(existingURIs[metadataURI] == 0, \"This NFT is already minted!\");\r\n        require(msg.sender != owner(), \"Sales not allowed!\");\r\n        \r\n\r\n        uint256 royalty = (msg.value * royaltyFee) / 100;\r\n        payTo(artist, royalty);\r\n        payTo(owner(), (msg.value - royalty));\r\n\r\n        supply++;\r\n\r\n        minted.push(\r\n            TransactionStruct(\r\n                supply,\r\n                msg.sender,\r\n                salesPrice,\r\n                title,\r\n                description,\r\n                metadataURI,\r\n                block.timestamp\r\n            )\r\n        );\r\n\r\n        emit Sale(\r\n            supply,\r\n            msg.sender,\r\n            msg.value,\r\n            metadataURI,\r\n            block.timestamp\r\n        );\r\n\r\n        _safeMint(msg.sender, supply);\r\n        existingURIs[metadataURI] = 1;\r\n        holderOf[supply] = msg.sender;\r\n    }\r\n\r\n    function payToBuy(uint256 id) external payable {\r\n        require(msg.value >= minted[id - 1].cost, \"Ether too low for purchase!\");\r\n        require(msg.sender != minted[id - 1].owner, \"Operation Not Allowed!\");\r\n\r\n        uint256 royalty = (msg.value * royaltyFee) / 100;\r\n        payTo(artist, royalty);\r\n        payTo(minted[id - 1].owner, (msg.value - royalty));\r\n\r\n        totalTx++;\r\n\r\n        transactions.push(\r\n            TransactionStruct(\r\n                totalTx,\r\n                msg.sender,\r\n                msg.value,\r\n                minted[id - 1].title,\r\n                minted[id - 1].description,\r\n                minted[id - 1].metadataURI,\r\n                block.timestamp\r\n            )\r\n        );\r\n\r\n        emit Sale(\r\n            totalTx,\r\n            msg.sender,\r\n            msg.value,\r\n            minted[id - 1].metadataURI,\r\n            block.timestamp\r\n        );\r\n\r\n        minted[id - 1].owner = msg.sender;\r\n    }\r\n\r\n    function changePrice(uint256 id, uint256 newPrice) external returns (bool) {\r\n        require(newPrice > 0 ether, \"Ether too low!\");\r\n        require(msg.sender == minted[id - 1].owner, \"Operation Not Allowed!\");\r\n\r\n        minted[id - 1].cost = newPrice;\r\n        return true;\r\n    }\r\n\r\n    function payTo(address to, uint256 amount) internal {\r\n        (bool success, ) = payable(to).call{value: amount}(\"\");\r\n        require(success);\r\n    }\r\n\r\n    function getAllNFTs() external view returns (TransactionStruct[] memory) {\r\n        return minted;\r\n    }\r\n\r\n    function getNFT(uint256 id) external view returns (TransactionStruct memory) {\r\n        return minted[id - 1];\r\n    }\r\n\r\n    function getAllTransactions() external view returns (TransactionStruct[] memory) {\r\n        return transactions;\r\n    }\r\n}",
  "sourcePath": "D:\\KP\\Projects\\jual-beli-nft\\src\\contracts\\PStoreNFT.sol",
  "compiler": {
    "name": "solc",
    "version": "0.8.9+commit.e5eed63a.Emscripten.clang"
  },
  "schemaVersion": "3.4.11",
  "updatedAt": "2023-01-31T02:54:12.237Z",
  "devdoc": {
    "kind": "dev",
    "methods": {
      "approve(address,uint256)": {
        "details": "See {IERC721-approve}."
      },
      "balanceOf(address)": {
        "details": "See {IERC721-balanceOf}."
      },
      "getApproved(uint256)": {
        "details": "See {IERC721-getApproved}."
      },
      "isApprovedForAll(address,address)": {
        "details": "See {IERC721-isApprovedForAll}."
      },
      "name()": {
        "details": "See {IERC721Metadata-name}."
      },
      "owner()": {
        "details": "Returns the address of the current owner."
      },
      "ownerOf(uint256)": {
        "details": "See {IERC721-ownerOf}."
      },
      "renounceOwnership()": {
        "details": "Leaves the contract without owner. It will not be possible to call `onlyOwner` functions anymore. Can only be called by the current owner. NOTE: Renouncing ownership will leave the contract without an owner, thereby removing any functionality that is only available to the owner."
      },
      "safeTransferFrom(address,address,uint256)": {
        "details": "See {IERC721-safeTransferFrom}."
      },
      "safeTransferFrom(address,address,uint256,bytes)": {
        "details": "See {IERC721-safeTransferFrom}."
      },
      "setApprovalForAll(address,bool)": {
        "details": "See {IERC721-setApprovalForAll}."
      },
      "supportsInterface(bytes4)": {
        "details": "See {IERC165-supportsInterface}."
      },
      "symbol()": {
        "details": "See {IERC721Metadata-symbol}."
      },
      "tokenByIndex(uint256)": {
        "details": "See {IERC721Enumerable-tokenByIndex}."
      },
      "tokenOfOwnerByIndex(address,uint256)": {
        "details": "See {IERC721Enumerable-tokenOfOwnerByIndex}."
      },
      "tokenURI(uint256)": {
        "details": "See {IERC721Metadata-tokenURI}."
      },
      "totalSupply()": {
        "details": "See {IERC721Enumerable-totalSupply}."
      },
      "transferFrom(address,address,uint256)": {
        "details": "See {IERC721-transferFrom}."
      },
      "transferOwnership(address)": {
        "details": "Transfers ownership of the contract to a new account (`newOwner`). Can only be called by the current owner."
      }
    },
    "version": 1
  },
  "userdoc": {
    "kind": "user",
    "methods": {},
    "version": 1
  }
}