{
  "contractName": "PStoreNFTv2",
  "abi": [
    {
      "inputs": [
        {
          "internalType": "string",
          "name": "_name",
          "type": "string"
        },
        {
          "internalType": "string",
          "name": "_symbol",
          "type": "string"
        }
      ],
      "stateMutability": "nonpayable",
      "type": "constructor"
    },
    {
      "anonymous": false,
      "inputs": [
        {
          "indexed": true,
          "internalType": "address",
          "name": "owner",
          "type": "address"
        },
        {
          "indexed": true,
          "internalType": "address",
          "name": "approved",
          "type": "address"
        },
        {
          "indexed": true,
          "internalType": "uint256",
          "name": "tokenId",
          "type": "uint256"
        }
      ],
      "name": "Approval",
      "type": "event"
    },
    {
      "anonymous": false,
      "inputs": [
        {
          "indexed": true,
          "internalType": "address",
          "name": "owner",
          "type": "address"
        },
        {
          "indexed": true,
          "internalType": "address",
          "name": "operator",
          "type": "address"
        },
        {
          "indexed": false,
          "internalType": "bool",
          "name": "approved",
          "type": "bool"
        }
      ],
      "name": "ApprovalForAll",
      "type": "event"
    },
    {
      "anonymous": false,
      "inputs": [
        {
          "indexed": true,
          "internalType": "address",
          "name": "previousOwner",
          "type": "address"
        },
        {
          "indexed": true,
          "internalType": "address",
          "name": "newOwner",
          "type": "address"
        }
      ],
      "name": "OwnershipTransferred",
      "type": "event"
    },
    {
      "anonymous": false,
      "inputs": [
        {
          "indexed": false,
          "internalType": "uint256",
          "name": "id",
          "type": "uint256"
        },
        {
          "indexed": true,
          "internalType": "address",
          "name": "owner",
          "type": "address"
        },
        {
          "indexed": false,
          "internalType": "uint256",
          "name": "cost",
          "type": "uint256"
        },
        {
          "indexed": false,
          "internalType": "string",
          "name": "metadataURI",
          "type": "string"
        },
        {
          "indexed": false,
          "internalType": "uint256",
          "name": "timestamp",
          "type": "uint256"
        }
      ],
      "name": "Sale",
      "type": "event"
    },
    {
      "anonymous": false,
      "inputs": [
        {
          "indexed": true,
          "internalType": "address",
          "name": "from",
          "type": "address"
        },
        {
          "indexed": true,
          "internalType": "address",
          "name": "to",
          "type": "address"
        },
        {
          "indexed": true,
          "internalType": "uint256",
          "name": "tokenId",
          "type": "uint256"
        }
      ],
      "name": "Transfer",
      "type": "event"
    },
    {
      "inputs": [
        {
          "internalType": "address",
          "name": "to",
          "type": "address"
        },
        {
          "internalType": "uint256",
          "name": "tokenId",
          "type": "uint256"
        }
      ],
      "name": "approve",
      "outputs": [],
      "stateMutability": "nonpayable",
      "type": "function"
    },
    {
      "inputs": [
        {
          "internalType": "address",
          "name": "owner",
          "type": "address"
        }
      ],
      "name": "balanceOf",
      "outputs": [
        {
          "internalType": "uint256",
          "name": "",
          "type": "uint256"
        }
      ],
      "stateMutability": "view",
      "type": "function",
      "constant": true
    },
    {
      "inputs": [],
      "name": "cost",
      "outputs": [
        {
          "internalType": "uint256",
          "name": "",
          "type": "uint256"
        }
      ],
      "stateMutability": "view",
      "type": "function",
      "constant": true
    },
    {
      "inputs": [
        {
          "internalType": "uint256",
          "name": "tokenId",
          "type": "uint256"
        }
      ],
      "name": "getApproved",
      "outputs": [
        {
          "internalType": "address",
          "name": "",
          "type": "address"
        }
      ],
      "stateMutability": "view",
      "type": "function",
      "constant": true
    },
    {
      "inputs": [
        {
          "internalType": "uint256",
          "name": "",
          "type": "uint256"
        }
      ],
      "name": "holderOf",
      "outputs": [
        {
          "internalType": "address",
          "name": "",
          "type": "address"
        }
      ],
      "stateMutability": "view",
      "type": "function",
      "constant": true
    },
    {
      "inputs": [
        {
          "internalType": "address",
          "name": "owner",
          "type": "address"
        },
        {
          "internalType": "address",
          "name": "operator",
          "type": "address"
        }
      ],
      "name": "isApprovedForAll",
      "outputs": [
        {
          "internalType": "bool",
          "name": "",
          "type": "bool"
        }
      ],
      "stateMutability": "view",
      "type": "function",
      "constant": true
    },
    {
      "inputs": [],
      "name": "name",
      "outputs": [
        {
          "internalType": "string",
          "name": "",
          "type": "string"
        }
      ],
      "stateMutability": "view",
      "type": "function",
      "constant": true
    },
    {
      "inputs": [],
      "name": "owner",
      "outputs": [
        {
          "internalType": "address",
          "name": "",
          "type": "address"
        }
      ],
      "stateMutability": "view",
      "type": "function",
      "constant": true
    },
    {
      "inputs": [
        {
          "internalType": "uint256",
          "name": "tokenId",
          "type": "uint256"
        }
      ],
      "name": "ownerOf",
      "outputs": [
        {
          "internalType": "address",
          "name": "",
          "type": "address"
        }
      ],
      "stateMutability": "view",
      "type": "function",
      "constant": true
    },
    {
      "inputs": [],
      "name": "renounceOwnership",
      "outputs": [],
      "stateMutability": "nonpayable",
      "type": "function"
    },
    {
      "inputs": [
        {
          "internalType": "address",
          "name": "from",
          "type": "address"
        },
        {
          "internalType": "address",
          "name": "to",
          "type": "address"
        },
        {
          "internalType": "uint256",
          "name": "tokenId",
          "type": "uint256"
        }
      ],
      "name": "safeTransferFrom",
      "outputs": [],
      "stateMutability": "payable",
      "type": "function",
      "payable": true
    },
    {
      "inputs": [
        {
          "internalType": "address",
          "name": "from",
          "type": "address"
        },
        {
          "internalType": "address",
          "name": "to",
          "type": "address"
        },
        {
          "internalType": "uint256",
          "name": "tokenId",
          "type": "uint256"
        },
        {
          "internalType": "bytes",
          "name": "_data",
          "type": "bytes"
        }
      ],
      "name": "safeTransferFrom",
      "outputs": [],
      "stateMutability": "payable",
      "type": "function",
      "payable": true
    },
    {
      "inputs": [
        {
          "internalType": "address",
          "name": "operator",
          "type": "address"
        },
        {
          "internalType": "bool",
          "name": "approved",
          "type": "bool"
        }
      ],
      "name": "setApprovalForAll",
      "outputs": [],
      "stateMutability": "nonpayable",
      "type": "function"
    },
    {
      "inputs": [],
      "name": "supply",
      "outputs": [
        {
          "internalType": "uint256",
          "name": "",
          "type": "uint256"
        }
      ],
      "stateMutability": "view",
      "type": "function",
      "constant": true
    },
    {
      "inputs": [
        {
          "internalType": "bytes4",
          "name": "interfaceId",
          "type": "bytes4"
        }
      ],
      "name": "supportsInterface",
      "outputs": [
        {
          "internalType": "bool",
          "name": "",
          "type": "bool"
        }
      ],
      "stateMutability": "view",
      "type": "function",
      "constant": true
    },
    {
      "inputs": [],
      "name": "symbol",
      "outputs": [
        {
          "internalType": "string",
          "name": "",
          "type": "string"
        }
      ],
      "stateMutability": "view",
      "type": "function",
      "constant": true
    },
    {
      "inputs": [
        {
          "internalType": "uint256",
          "name": "index",
          "type": "uint256"
        }
      ],
      "name": "tokenByIndex",
      "outputs": [
        {
          "internalType": "uint256",
          "name": "",
          "type": "uint256"
        }
      ],
      "stateMutability": "view",
      "type": "function",
      "constant": true
    },
    {
      "inputs": [
        {
          "internalType": "address",
          "name": "owner",
          "type": "address"
        },
        {
          "internalType": "uint256",
          "name": "index",
          "type": "uint256"
        }
      ],
      "name": "tokenOfOwnerByIndex",
      "outputs": [
        {
          "internalType": "uint256",
          "name": "",
          "type": "uint256"
        }
      ],
      "stateMutability": "view",
      "type": "function",
      "constant": true
    },
    {
      "inputs": [
        {
          "internalType": "uint256",
          "name": "tokenId",
          "type": "uint256"
        }
      ],
      "name": "tokenURI",
      "outputs": [
        {
          "internalType": "string",
          "name": "",
          "type": "string"
        }
      ],
      "stateMutability": "view",
      "type": "function",
      "constant": true
    },
    {
      "inputs": [],
      "name": "totalSupply",
      "outputs": [
        {
          "internalType": "uint256",
          "name": "",
          "type": "uint256"
        }
      ],
      "stateMutability": "view",
      "type": "function",
      "constant": true
    },
    {
      "inputs": [],
      "name": "totalTx",
      "outputs": [
        {
          "internalType": "uint256",
          "name": "",
          "type": "uint256"
        }
      ],
      "stateMutability": "view",
      "type": "function",
      "constant": true
    },
    {
      "inputs": [
        {
          "internalType": "address",
          "name": "from",
          "type": "address"
        },
        {
          "internalType": "address",
          "name": "to",
          "type": "address"
        },
        {
          "internalType": "uint256",
          "name": "tokenId",
          "type": "uint256"
        }
      ],
      "name": "transferFrom",
      "outputs": [],
      "stateMutability": "payable",
      "type": "function",
      "payable": true
    },
    {
      "inputs": [
        {
          "internalType": "address",
          "name": "newOwner",
          "type": "address"
        }
      ],
      "name": "transferOwnership",
      "outputs": [],
      "stateMutability": "nonpayable",
      "type": "function"
    },
    {
      "inputs": [
        {
          "internalType": "string",
          "name": "title",
          "type": "string"
        },
        {
          "internalType": "string",
          "name": "description",
          "type": "string"
        },
        {
          "internalType": "string",
          "name": "metadataURI",
          "type": "string"
        },
        {
          "internalType": "uint256",
          "name": "salesPrice",
          "type": "uint256"
        },
        {
          "internalType": "uint256",
          "name": "_royaltyPercent",
          "type": "uint256"
        }
      ],
      "name": "payToMint",
      "outputs": [],
      "stateMutability": "payable",
      "type": "function",
      "payable": true
    },
    {
      "inputs": [
        {
          "internalType": "uint256",
          "name": "id",
          "type": "uint256"
        }
      ],
      "name": "payToBuy",
      "outputs": [],
      "stateMutability": "payable",
      "type": "function",
      "payable": true
    },
    {
      "inputs": [
        {
          "internalType": "uint256",
          "name": "id",
          "type": "uint256"
        },
        {
          "internalType": "uint256",
          "name": "newPrice",
          "type": "uint256"
        }
      ],
      "name": "changePrice",
      "outputs": [
        {
          "internalType": "bool",
          "name": "",
          "type": "bool"
        }
      ],
      "stateMutability": "nonpayable",
      "type": "function"
    },
    {
      "inputs": [],
      "name": "getAllNFTs",
      "outputs": [
        {
          "components": [
            {
              "internalType": "uint256",
              "name": "id",
              "type": "uint256"
            },
            {
              "internalType": "address",
              "name": "owner",
              "type": "address"
            },
            {
              "internalType": "address",
              "name": "creator",
              "type": "address"
            },
            {
              "internalType": "uint256",
              "name": "cost",
              "type": "uint256"
            },
            {
              "internalType": "uint256",
              "name": "royaltyPercent",
              "type": "uint256"
            },
            {
              "internalType": "string",
              "name": "title",
              "type": "string"
            },
            {
              "internalType": "string",
              "name": "description",
              "type": "string"
            },
            {
              "internalType": "string",
              "name": "metadataURI",
              "type": "string"
            },
            {
              "internalType": "uint256",
              "name": "timestamp",
              "type": "uint256"
            }
          ],
          "internalType": "struct PStoreNFTv2.TransactionStruct[]",
          "name": "",
          "type": "tuple[]"
        }
      ],
      "stateMutability": "view",
      "type": "function",
      "constant": true
    },
    {
      "inputs": [
        {
          "internalType": "uint256",
          "name": "id",
          "type": "uint256"
        }
      ],
      "name": "getNFT",
      "outputs": [
        {
          "components": [
            {
              "internalType": "uint256",
              "name": "id",
              "type": "uint256"
            },
            {
              "internalType": "address",
              "name": "owner",
              "type": "address"
            },
            {
              "internalType": "address",
              "name": "creator",
              "type": "address"
            },
            {
              "internalType": "uint256",
              "name": "cost",
              "type": "uint256"
            },
            {
              "internalType": "uint256",
              "name": "royaltyPercent",
              "type": "uint256"
            },
            {
              "internalType": "string",
              "name": "title",
              "type": "string"
            },
            {
              "internalType": "string",
              "name": "description",
              "type": "string"
            },
            {
              "internalType": "string",
              "name": "metadataURI",
              "type": "string"
            },
            {
              "internalType": "uint256",
              "name": "timestamp",
              "type": "uint256"
            }
          ],
          "internalType": "struct PStoreNFTv2.TransactionStruct",
          "name": "",
          "type": "tuple"
        }
      ],
      "stateMutability": "view",
      "type": "function",
      "constant": true
    },
    {
      "inputs": [],
      "name": "getAllTransactions",
      "outputs": [
        {
          "components": [
            {
              "internalType": "uint256",
              "name": "id",
              "type": "uint256"
            },
            {
              "internalType": "address",
              "name": "owner",
              "type": "address"
            },
            {
              "internalType": "address",
              "name": "creator",
              "type": "address"
            },
            {
              "internalType": "uint256",
              "name": "cost",
              "type": "uint256"
            },
            {
              "internalType": "uint256",
              "name": "royaltyPercent",
              "type": "uint256"
            },
            {
              "internalType": "string",
              "name": "title",
              "type": "string"
            },
            {
              "internalType": "string",
              "name": "description",
              "type": "string"
            },
            {
              "internalType": "string",
              "name": "metadataURI",
              "type": "string"
            },
            {
              "internalType": "uint256",
              "name": "timestamp",
              "type": "uint256"
            }
          ],
          "internalType": "struct PStoreNFTv2.TransactionStruct[]",
          "name": "",
          "type": "tuple[]"
        }
      ],
      "stateMutability": "view",
      "type": "function",
      "constant": true
    }
  ],
  "bytecode": "0x60806040526000600d556000600e55662386f26fc10000600f553480156200002657600080fd5b5060405162005b4038038062005b4083398181016040528101906200004c9190620003c5565b818181600090805190602001906200006692919062000178565b5080600190805190602001906200007f92919062000178565b505050620000a262000096620000aa60201b60201c565b620000b260201b60201c565b5050620004af565b600033905090565b6000600a60009054906101000a900473ffffffffffffffffffffffffffffffffffffffff16905081600a60006101000a81548173ffffffffffffffffffffffffffffffffffffffff021916908373ffffffffffffffffffffffffffffffffffffffff1602179055508173ffffffffffffffffffffffffffffffffffffffff168173ffffffffffffffffffffffffffffffffffffffff167f8be0079c531659141344cd1fd0a4f28419497f9722a3daafe3b4186f6b6457e060405160405180910390a35050565b828054620001869062000479565b90600052602060002090601f016020900481019282620001aa5760008555620001f6565b82601f10620001c557805160ff1916838001178555620001f6565b82800160010185558215620001f6579182015b82811115620001f5578251825591602001919060010190620001d8565b5b50905062000205919062000209565b5090565b5b80821115620002245760008160009055506001016200020a565b5090565b6000604051905090565b600080fd5b600080fd5b600080fd5b600080fd5b6000601f19601f8301169050919050565b7f4e487b7100000000000000000000000000000000000000000000000000000000600052604160045260246000fd5b620002918262000246565b810181811067ffffffffffffffff82111715620002b357620002b262000257565b5b80604052505050565b6000620002c862000228565b9050620002d6828262000286565b919050565b600067ffffffffffffffff821115620002f957620002f862000257565b5b620003048262000246565b9050602081019050919050565b60005b838110156200033157808201518184015260208101905062000314565b8381111562000341576000848401525b50505050565b60006200035e6200035884620002db565b620002bc565b9050828152602081018484840111156200037d576200037c62000241565b5b6200038a84828562000311565b509392505050565b600082601f830112620003aa57620003a96200023c565b5b8151620003bc84826020860162000347565b91505092915050565b60008060408385031215620003df57620003de62000232565b5b600083015167ffffffffffffffff8111156200040057620003ff62000237565b5b6200040e8582860162000392565b925050602083015167ffffffffffffffff81111562000432576200043162000237565b5b620004408582860162000392565b9150509250929050565b7f4e487b7100000000000000000000000000000000000000000000000000000000600052602260045260246000fd5b600060028204905060018216806200049257607f821691505b60208210811415620004a957620004a86200044a565b5b50919050565b61568180620004bf6000396000f3fe6080604052600436106101c25760003560e01c80636352211e116100f7578063a22cb46511610095578063dbacc23711610064578063dbacc23714610639578063e0391b0914610676578063e985e9c5146106a1578063f2fde38b146106de576101c2565b8063a22cb4651461057a578063b3de019c146105a3578063b88d4fde146105e0578063c87b56dd146105fc576101c2565b80637220cf39116100d15780637220cf39146104dd5780638da5cb5b1461050857806395d89b41146105335780639ba4b0171461055e576101c2565b80636352211e1461044c57806370a0823114610489578063715018a6146104c6576101c2565b806323b872dd1161016457806342842e0e1161013e57806342842e0e1461039a5780634f6ccce7146103b657806352fe0e2a146103f3578063576f7ea71461040f576101c2565b806323b872dd1461031657806327506f53146103325780632f745c591461035d576101c2565b8063081812fc116101a0578063081812fc1461025a578063095ea7b31461029757806313faede6146102c057806318160ddd146102eb576101c2565b806301ffc9a7146101c7578063047fc9aa1461020457806306fdde031461022f575b600080fd5b3480156101d357600080fd5b506101ee60048036038101906101e99190613ab4565b610707565b6040516101fb9190613afc565b60405180910390f35b34801561021057600080fd5b50610219610781565b6040516102269190613b30565b60405180910390f35b34801561023b57600080fd5b50610244610787565b6040516102519190613be4565b60405180910390f35b34801561026657600080fd5b50610281600480360381019061027c9190613c32565b610819565b60405161028e9190613ca0565b60405180910390f35b3480156102a357600080fd5b506102be60048036038101906102b99190613ce7565b61089e565b005b3480156102cc57600080fd5b506102d56109b6565b6040516102e29190613b30565b60405180910390f35b3480156102f757600080fd5b506103006109bc565b60405161030d9190613b30565b60405180910390f35b610330600480360381019061032b9190613d27565b6109c9565b005b34801561033e57600080fd5b50610347610a29565b6040516103549190613f77565b60405180910390f35b34801561036957600080fd5b50610384600480360381019061037f9190613ce7565b610d13565b6040516103919190613b30565b60405180910390f35b6103b460048036038101906103af9190613d27565b610db8565b005b3480156103c257600080fd5b506103dd60048036038101906103d89190613c32565b610dd8565b6040516103ea9190613b30565b60405180910390f35b61040d600480360381019061040891906140ce565b610e49565b005b34801561041b57600080fd5b5061043660048036038101906104319190613c32565b61123c565b6040516104439190614270565b60405180910390f35b34801561045857600080fd5b50610473600480360381019061046e9190613c32565b61150f565b6040516104809190613ca0565b60405180910390f35b34801561049557600080fd5b506104b060048036038101906104ab9190614292565b6115c1565b6040516104bd9190613b30565b60405180910390f35b3480156104d257600080fd5b506104db611679565b005b3480156104e957600080fd5b506104f261168d565b6040516104ff9190613b30565b60405180910390f35b34801561051457600080fd5b5061051d611693565b60405161052a9190613ca0565b60405180910390f35b34801561053f57600080fd5b506105486116bd565b6040516105559190613be4565b60405180910390f35b61057860048036038101906105739190613c32565b61174f565b005b34801561058657600080fd5b506105a1600480360381019061059c91906142eb565b611ef9565b005b3480156105af57600080fd5b506105ca60048036038101906105c5919061432b565b611f0f565b6040516105d79190613afc565b60405180910390f35b6105fa60048036038101906105f5919061440c565b612052565b005b34801561060857600080fd5b50610623600480360381019061061e9190613c32565b6120b4565b6040516106309190613be4565b60405180910390f35b34801561064557600080fd5b50610660600480360381019061065b9190613c32565b61215b565b60405161066d9190613ca0565b60405180910390f35b34801561068257600080fd5b5061068b61218e565b6040516106989190613f77565b60405180910390f35b3480156106ad57600080fd5b506106c860048036038101906106c3919061448f565b612478565b6040516106d59190613afc565b60405180910390f35b3480156106ea57600080fd5b5061070560048036038101906107009190614292565b61250c565b005b60007f780e9d63000000000000000000000000000000000000000000000000000000007bffffffffffffffffffffffffffffffffffffffffffffffffffffffff1916827bffffffffffffffffffffffffffffffffffffffffffffffffffffffff1916148061077a575061077982612590565b5b9050919050565b600d5481565b606060008054610796906144fe565b80601f01602080910402602001604051908101604052809291908181526020018280546107c2906144fe565b801561080f5780601f106107e45761010080835404028352916020019161080f565b820191906000526020600020905b8154815290600101906020018083116107f257829003601f168201915b5050505050905090565b600061082482612672565b610863576040517f08c379a000000000000000000000000000000000000000000000000000000000815260040161085a906145a2565b60405180910390fd5b6004600083815260200190815260200160002060009054906101000a900473ffffffffffffffffffffffffffffffffffffffff169050919050565b60006108a98261150f565b90508073ffffffffffffffffffffffffffffffffffffffff168373ffffffffffffffffffffffffffffffffffffffff16141561091a576040517f08c379a000000000000000000000000000000000000000000000000000000000815260040161091190614634565b60405180910390fd5b8073ffffffffffffffffffffffffffffffffffffffff166109396126de565b73ffffffffffffffffffffffffffffffffffffffff1614806109685750610967816109626126de565b612478565b5b6109a7576040517f08c379a000000000000000000000000000000000000000000000000000000000815260040161099e906146c6565b60405180910390fd5b6109b183836126e6565b505050565b600f5481565b6000600880549050905090565b6109da6109d46126de565b8261279f565b610a19576040517f08c379a0000000000000000000000000000000000000000000000000000000008152600401610a1090614758565b60405180910390fd5b610a2483838361287d565b505050565b60606010805480602002602001604051908101604052809291908181526020016000905b82821015610d0a578382906000526020600020906009020160405180610120016040529081600082015481526020016001820160009054906101000a900473ffffffffffffffffffffffffffffffffffffffff1673ffffffffffffffffffffffffffffffffffffffff1673ffffffffffffffffffffffffffffffffffffffff1681526020016002820160009054906101000a900473ffffffffffffffffffffffffffffffffffffffff1673ffffffffffffffffffffffffffffffffffffffff1673ffffffffffffffffffffffffffffffffffffffff1681526020016003820154815260200160048201548152602001600582018054610b4b906144fe565b80601f0160208091040260200160405190810160405280929190818152602001828054610b77906144fe565b8015610bc45780601f10610b9957610100808354040283529160200191610bc4565b820191906000526020600020905b815481529060010190602001808311610ba757829003601f168201915b50505050508152602001600682018054610bdd906144fe565b80601f0160208091040260200160405190810160405280929190818152602001828054610c09906144fe565b8015610c565780601f10610c2b57610100808354040283529160200191610c56565b820191906000526020600020905b815481529060010190602001808311610c3957829003601f168201915b50505050508152602001600782018054610c6f906144fe565b80601f0160208091040260200160405190810160405280929190818152602001828054610c9b906144fe565b8015610ce85780601f10610cbd57610100808354040283529160200191610ce8565b820191906000526020600020905b815481529060010190602001808311610ccb57829003601f168201915b5050505050815260200160088201548152505081526020019060010190610a4d565b50505050905090565b6000610d1e836115c1565b8210610d5f576040517f08c379a0000000000000000000000000000000000000000000000000000000008152600401610d56906147ea565b60405180910390fd5b600660008473ffffffffffffffffffffffffffffffffffffffff1673ffffffffffffffffffffffffffffffffffffffff168152602001908152602001600020600083815260200190815260200160002054905092915050565b610dd383838360405180602001604052806000815250612052565b505050565b6000610de26109bc565b8210610e23576040517f08c379a0000000000000000000000000000000000000000000000000000000008152600401610e1a9061487c565b60405180910390fd5b60088281548110610e3757610e3661489c565b5b90600052602060002001549050919050565b600f54341015610e8e576040517f08c379a0000000000000000000000000000000000000000000000000000000008152600401610e8590614917565b60405180910390fd5b6000600b84604051610ea09190614973565b908152602001604051809103902060009054906101000a900460ff1660ff1614610eff576040517f08c379a0000000000000000000000000000000000000000000000000000000008152600401610ef6906149d6565b60405180910390fd5b610f07611693565b73ffffffffffffffffffffffffffffffffffffffff163373ffffffffffffffffffffffffffffffffffffffff161415610f75576040517f08c379a0000000000000000000000000000000000000000000000000000000008152600401610f6c90614a42565b60405180910390fd5b610f86610f80611693565b34612ad9565b600d6000815480929190610f9990614a91565b91905055506011604051806101200160405280600d5481526020013373ffffffffffffffffffffffffffffffffffffffff1681526020013373ffffffffffffffffffffffffffffffffffffffff1681526020018481526020018381526020018781526020018681526020018581526020014281525090806001815401808255809150506001900390600052602060002090600902016000909190919091506000820151816000015560208201518160010160006101000a81548173ffffffffffffffffffffffffffffffffffffffff021916908373ffffffffffffffffffffffffffffffffffffffff16021790555060408201518160020160006101000a81548173ffffffffffffffffffffffffffffffffffffffff021916908373ffffffffffffffffffffffffffffffffffffffff160217905550606082015181600301556080820151816004015560a08201518160050190805190602001906110ff92919061392d565b5060c082015181600601908051906020019061111c92919061392d565b5060e082015181600701908051906020019061113992919061392d565b50610100820151816008015550503373ffffffffffffffffffffffffffffffffffffffff167fb9508407a6eccb191d8da3286f4173697cf95604e9ea192fe5ab7c862b5221f6600d543486426040516111959493929190614ada565b60405180910390a26111a933600d54612b54565b6001600b846040516111bb9190614973565b908152602001604051809103902060006101000a81548160ff021916908360ff16021790555033600c6000600d54815260200190815260200160002060006101000a81548173ffffffffffffffffffffffffffffffffffffffff021916908373ffffffffffffffffffffffffffffffffffffffff1602179055505050505050565b6112446139b3565b60116001836112539190614b26565b815481106112645761126361489c565b5b906000526020600020906009020160405180610120016040529081600082015481526020016001820160009054906101000a900473ffffffffffffffffffffffffffffffffffffffff1673ffffffffffffffffffffffffffffffffffffffff1673ffffffffffffffffffffffffffffffffffffffff1681526020016002820160009054906101000a900473ffffffffffffffffffffffffffffffffffffffff1673ffffffffffffffffffffffffffffffffffffffff1673ffffffffffffffffffffffffffffffffffffffff1681526020016003820154815260200160048201548152602001600582018054611358906144fe565b80601f0160208091040260200160405190810160405280929190818152602001828054611384906144fe565b80156113d15780601f106113a6576101008083540402835291602001916113d1565b820191906000526020600020905b8154815290600101906020018083116113b457829003601f168201915b505050505081526020016006820180546113ea906144fe565b80601f0160208091040260200160405190810160405280929190818152602001828054611416906144fe565b80156114635780601f1061143857610100808354040283529160200191611463565b820191906000526020600020905b81548152906001019060200180831161144657829003601f168201915b5050505050815260200160078201805461147c906144fe565b80601f01602080910402602001604051908101604052809291908181526020018280546114a8906144fe565b80156114f55780601f106114ca576101008083540402835291602001916114f5565b820191906000526020600020905b8154815290600101906020018083116114d857829003601f168201915b505050505081526020016008820154815250509050919050565b6000806002600084815260200190815260200160002060009054906101000a900473ffffffffffffffffffffffffffffffffffffffff169050600073ffffffffffffffffffffffffffffffffffffffff168173ffffffffffffffffffffffffffffffffffffffff1614156115b8576040517f08c379a00000000000000000000000000000000000000000000000000000000081526004016115af90614bcc565b60405180910390fd5b80915050919050565b60008073ffffffffffffffffffffffffffffffffffffffff168273ffffffffffffffffffffffffffffffffffffffff161415611632576040517f08c379a000000000000000000000000000000000000000000000000000000000815260040161162990614c5e565b60405180910390fd5b600360008373ffffffffffffffffffffffffffffffffffffffff1673ffffffffffffffffffffffffffffffffffffffff168152602001908152602001600020549050919050565b611681612b72565b61168b6000612bf0565b565b600e5481565b6000600a60009054906101000a900473ffffffffffffffffffffffffffffffffffffffff16905090565b6060600180546116cc906144fe565b80601f01602080910402602001604051908101604052809291908181526020018280546116f8906144fe565b80156117455780601f1061171a57610100808354040283529160200191611745565b820191906000526020600020905b81548152906001019060200180831161172857829003601f168201915b5050505050905090565b601160018261175e9190614b26565b8154811061176f5761176e61489c565b5b9060005260206000209060090201600301543410156117c3576040517f08c379a00000000000000000000000000000000000000000000000000000000081526004016117ba90614cca565b60405180910390fd5b60116001826117d29190614b26565b815481106117e3576117e261489c565b5b906000526020600020906009020160010160009054906101000a900473ffffffffffffffffffffffffffffffffffffffff1673ffffffffffffffffffffffffffffffffffffffff163373ffffffffffffffffffffffffffffffffffffffff161415611883576040517f08c379a000000000000000000000000000000000000000000000000000000000815260040161187a90614d36565b60405180910390fd5b6000606460116001846118969190614b26565b815481106118a7576118a661489c565b5b906000526020600020906009020160040154346118c49190614d56565b6118ce9190614ddf565b905061192b60116001846118e29190614b26565b815481106118f3576118f261489c565b5b906000526020600020906009020160020160009054906101000a900473ffffffffffffffffffffffffffffffffffffffff1682612ad9565b611991601160018461193d9190614b26565b8154811061194e5761194d61489c565b5b906000526020600020906009020160010160009054906101000a900473ffffffffffffffffffffffffffffffffffffffff16823461198c9190614b26565b612ad9565b600e60008154809291906119a490614a91565b91905055506010604051806101200160405280600e5481526020013373ffffffffffffffffffffffffffffffffffffffff16815260200160116001866119ea9190614b26565b815481106119fb576119fa61489c565b5b906000526020600020906009020160020160009054906101000a900473ffffffffffffffffffffffffffffffffffffffff1673ffffffffffffffffffffffffffffffffffffffff1681526020013481526020016011600186611a5d9190614b26565b81548110611a6e57611a6d61489c565b5b90600052602060002090600902016004015481526020016011600186611a949190614b26565b81548110611aa557611aa461489c565b5b90600052602060002090600902016005018054611ac1906144fe565b80601f0160208091040260200160405190810160405280929190818152602001828054611aed906144fe565b8015611b3a5780601f10611b0f57610100808354040283529160200191611b3a565b820191906000526020600020905b815481529060010190602001808311611b1d57829003601f168201915b505050505081526020016011600186611b539190614b26565b81548110611b6457611b6361489c565b5b90600052602060002090600902016006018054611b80906144fe565b80601f0160208091040260200160405190810160405280929190818152602001828054611bac906144fe565b8015611bf95780601f10611bce57610100808354040283529160200191611bf9565b820191906000526020600020905b815481529060010190602001808311611bdc57829003601f168201915b505050505081526020016011600186611c129190614b26565b81548110611c2357611c2261489c565b5b90600052602060002090600902016007018054611c3f906144fe565b80601f0160208091040260200160405190810160405280929190818152602001828054611c6b906144fe565b8015611cb85780601f10611c8d57610100808354040283529160200191611cb8565b820191906000526020600020905b815481529060010190602001808311611c9b57829003601f168201915b505050505081526020014281525090806001815401808255809150506001900390600052602060002090600902016000909190919091506000820151816000015560208201518160010160006101000a81548173ffffffffffffffffffffffffffffffffffffffff021916908373ffffffffffffffffffffffffffffffffffffffff16021790555060408201518160020160006101000a81548173ffffffffffffffffffffffffffffffffffffffff021916908373ffffffffffffffffffffffffffffffffffffffff160217905550606082015181600301556080820151816004015560a0820151816005019080519060200190611db792919061392d565b5060c0820151816006019080519060200190611dd492919061392d565b5060e0820151816007019080519060200190611df192919061392d565b50610100820151816008015550503373ffffffffffffffffffffffffffffffffffffffff167fb9508407a6eccb191d8da3286f4173697cf95604e9ea192fe5ab7c862b5221f6600e54346011600187611e4a9190614b26565b81548110611e5b57611e5a61489c565b5b906000526020600020906009020160070142604051611e7d9493929190614ea5565b60405180910390a2336011600184611e959190614b26565b81548110611ea657611ea561489c565b5b906000526020600020906009020160010160006101000a81548173ffffffffffffffffffffffffffffffffffffffff021916908373ffffffffffffffffffffffffffffffffffffffff1602179055505050565b611f0b611f046126de565b8383612cb6565b5050565b6000808211611f53576040517f08c379a0000000000000000000000000000000000000000000000000000000008152600401611f4a90614f3d565b60405180910390fd5b6011600184611f629190614b26565b81548110611f7357611f7261489c565b5b906000526020600020906009020160010160009054906101000a900473ffffffffffffffffffffffffffffffffffffffff1673ffffffffffffffffffffffffffffffffffffffff163373ffffffffffffffffffffffffffffffffffffffff1614612012576040517f08c379a000000000000000000000000000000000000000000000000000000000815260040161200990614d36565b60405180910390fd5b8160116001856120229190614b26565b815481106120335761203261489c565b5b9060005260206000209060090201600301819055506001905092915050565b61206361205d6126de565b8361279f565b6120a2576040517f08c379a000000000000000000000000000000000000000000000000000000000815260040161209990614758565b60405180910390fd5b6120ae84848484612e23565b50505050565b60606120bf82612672565b6120fe576040517f08c379a00000000000000000000000000000000000000000000000000000000081526004016120f590614fcf565b60405180910390fd5b6000612108612e7f565b905060008151116121285760405180602001604052806000815250612153565b8061213284612e96565b604051602001612143929190614fef565b6040516020818303038152906040525b915050919050565b600c6020528060005260406000206000915054906101000a900473ffffffffffffffffffffffffffffffffffffffff1681565b60606011805480602002602001604051908101604052809291908181526020016000905b8282101561246f578382906000526020600020906009020160405180610120016040529081600082015481526020016001820160009054906101000a900473ffffffffffffffffffffffffffffffffffffffff1673ffffffffffffffffffffffffffffffffffffffff1673ffffffffffffffffffffffffffffffffffffffff1681526020016002820160009054906101000a900473ffffffffffffffffffffffffffffffffffffffff1673ffffffffffffffffffffffffffffffffffffffff1673ffffffffffffffffffffffffffffffffffffffff16815260200160038201548152602001600482015481526020016005820180546122b0906144fe565b80601f01602080910402602001604051908101604052809291908181526020018280546122dc906144fe565b80156123295780601f106122fe57610100808354040283529160200191612329565b820191906000526020600020905b81548152906001019060200180831161230c57829003601f168201915b50505050508152602001600682018054612342906144fe565b80601f016020809104026020016040519081016040528092919081815260200182805461236e906144fe565b80156123bb5780601f10612390576101008083540402835291602001916123bb565b820191906000526020600020905b81548152906001019060200180831161239e57829003601f168201915b505050505081526020016007820180546123d4906144fe565b80601f0160208091040260200160405190810160405280929190818152602001828054612400906144fe565b801561244d5780601f106124225761010080835404028352916020019161244d565b820191906000526020600020905b81548152906001019060200180831161243057829003601f168201915b50505050508152602001600882015481525050815260200190600101906121b2565b50505050905090565b6000600560008473ffffffffffffffffffffffffffffffffffffffff1673ffffffffffffffffffffffffffffffffffffffff16815260200190815260200160002060008373ffffffffffffffffffffffffffffffffffffffff1673ffffffffffffffffffffffffffffffffffffffff16815260200190815260200160002060009054906101000a900460ff16905092915050565b612514612b72565b600073ffffffffffffffffffffffffffffffffffffffff168173ffffffffffffffffffffffffffffffffffffffff161415612584576040517f08c379a000000000000000000000000000000000000000000000000000000000815260040161257b90615085565b60405180910390fd5b61258d81612bf0565b50565b60007f80ac58cd000000000000000000000000000000000000000000000000000000007bffffffffffffffffffffffffffffffffffffffffffffffffffffffff1916827bffffffffffffffffffffffffffffffffffffffffffffffffffffffff1916148061265b57507f5b5e139f000000000000000000000000000000000000000000000000000000007bffffffffffffffffffffffffffffffffffffffffffffffffffffffff1916827bffffffffffffffffffffffffffffffffffffffffffffffffffffffff1916145b8061266b575061266a82612f6e565b5b9050919050565b60008073ffffffffffffffffffffffffffffffffffffffff166002600084815260200190815260200160002060009054906101000a900473ffffffffffffffffffffffffffffffffffffffff1673ffffffffffffffffffffffffffffffffffffffff1614159050919050565b600033905090565b816004600083815260200190815260200160002060006101000a81548173ffffffffffffffffffffffffffffffffffffffff021916908373ffffffffffffffffffffffffffffffffffffffff160217905550808273ffffffffffffffffffffffffffffffffffffffff166127598361150f565b73ffffffffffffffffffffffffffffffffffffffff167f8c5be1e5ebec7d5bd14f71427d1e84f3dd0314c0f7b2291e5b200ac8c7c3b92560405160405180910390a45050565b60006127aa82612672565b6127e9576040517f08c379a00000000000000000000000000000000000000000000000000000000081526004016127e090615117565b60405180910390fd5b60006127f48361150f565b90508073ffffffffffffffffffffffffffffffffffffffff168473ffffffffffffffffffffffffffffffffffffffff16148061286357508373ffffffffffffffffffffffffffffffffffffffff1661284b84610819565b73ffffffffffffffffffffffffffffffffffffffff16145b8061287457506128738185612478565b5b91505092915050565b8273ffffffffffffffffffffffffffffffffffffffff1661289d8261150f565b73ffffffffffffffffffffffffffffffffffffffff16146128f3576040517f08c379a00000000000000000000000000000000000000000000000000000000081526004016128ea906151a9565b60405180910390fd5b600073ffffffffffffffffffffffffffffffffffffffff168273ffffffffffffffffffffffffffffffffffffffff161415612963576040517f08c379a000000000000000000000000000000000000000000000000000000000815260040161295a9061523b565b60405180910390fd5b61296e838383612fd8565b6129796000826126e6565b6001600360008573ffffffffffffffffffffffffffffffffffffffff1673ffffffffffffffffffffffffffffffffffffffff16815260200190815260200160002060008282546129c99190614b26565b925050819055506001600360008473ffffffffffffffffffffffffffffffffffffffff1673ffffffffffffffffffffffffffffffffffffffff1681526020019081526020016000206000828254612a20919061525b565b92505081905550816002600083815260200190815260200160002060006101000a81548173ffffffffffffffffffffffffffffffffffffffff021916908373ffffffffffffffffffffffffffffffffffffffff160217905550808273ffffffffffffffffffffffffffffffffffffffff168473ffffffffffffffffffffffffffffffffffffffff167fddf252ad1be2c89b69c2b068fc378daa952ba7f163c4a11628f55a4df523b3ef60405160405180910390a4505050565b60008273ffffffffffffffffffffffffffffffffffffffff1682604051612aff906152e2565b60006040518083038185875af1925050503d8060008114612b3c576040519150601f19603f3d011682016040523d82523d6000602084013e612b41565b606091505b5050905080612b4f57600080fd5b505050565b612b6e8282604051806020016040528060008152506130ec565b5050565b612b7a6126de565b73ffffffffffffffffffffffffffffffffffffffff16612b98611693565b73ffffffffffffffffffffffffffffffffffffffff1614612bee576040517f08c379a0000000000000000000000000000000000000000000000000000000008152600401612be590615343565b60405180910390fd5b565b6000600a60009054906101000a900473ffffffffffffffffffffffffffffffffffffffff16905081600a60006101000a81548173ffffffffffffffffffffffffffffffffffffffff021916908373ffffffffffffffffffffffffffffffffffffffff1602179055508173ffffffffffffffffffffffffffffffffffffffff168173ffffffffffffffffffffffffffffffffffffffff167f8be0079c531659141344cd1fd0a4f28419497f9722a3daafe3b4186f6b6457e060405160405180910390a35050565b8173ffffffffffffffffffffffffffffffffffffffff168373ffffffffffffffffffffffffffffffffffffffff161415612d25576040517f08c379a0000000000000000000000000000000000000000000000000000000008152600401612d1c906153af565b60405180910390fd5b80600560008573ffffffffffffffffffffffffffffffffffffffff1673ffffffffffffffffffffffffffffffffffffffff16815260200190815260200160002060008473ffffffffffffffffffffffffffffffffffffffff1673ffffffffffffffffffffffffffffffffffffffff16815260200190815260200160002060006101000a81548160ff0219169083151502179055508173ffffffffffffffffffffffffffffffffffffffff168373ffffffffffffffffffffffffffffffffffffffff167f17307eab39ab6107e8899845ad3d59bd9653f200f220920489ca2b5937696c3183604051612e169190613afc565b60405180910390a3505050565b612e2e84848461287d565b612e3a84848484613147565b612e79576040517f08c379a0000000000000000000000000000000000000000000000000000000008152600401612e7090615441565b60405180910390fd5b50505050565b606060405180602001604052806000815250905090565b606060006001612ea5846132de565b01905060008167ffffffffffffffff811115612ec457612ec3613fa3565b5b6040519080825280601f01601f191660200182016040528015612ef65781602001600182028036833780820191505090505b509050600082602001820190505b600115612f63578080600190039150507f3031323334353637383961626364656600000000000000000000000000000000600a86061a8153600a8581612f4d57612f4c614db0565b5b0494506000851415612f5e57612f63565b612f04565b819350505050919050565b60007f01ffc9a7000000000000000000000000000000000000000000000000000000007bffffffffffffffffffffffffffffffffffffffffffffffffffffffff1916827bffffffffffffffffffffffffffffffffffffffffffffffffffffffff1916149050919050565b612fe3838383613431565b600073ffffffffffffffffffffffffffffffffffffffff168373ffffffffffffffffffffffffffffffffffffffff1614156130265761302181613436565b613065565b8173ffffffffffffffffffffffffffffffffffffffff168373ffffffffffffffffffffffffffffffffffffffff161461306457613063838261347f565b5b5b600073ffffffffffffffffffffffffffffffffffffffff168273ffffffffffffffffffffffffffffffffffffffff1614156130a8576130a3816135ec565b6130e7565b8273ffffffffffffffffffffffffffffffffffffffff168273ffffffffffffffffffffffffffffffffffffffff16146130e6576130e582826136bd565b5b5b505050565b6130f6838361373c565b6131036000848484613147565b613142576040517f08c379a000000000000000000000000000000000000000000000000000000000815260040161313990615441565b60405180910390fd5b505050565b60006131688473ffffffffffffffffffffffffffffffffffffffff1661390a565b156132d1578373ffffffffffffffffffffffffffffffffffffffff1663150b7a026131916126de565b8786866040518563ffffffff1660e01b81526004016131b394939291906154b6565b602060405180830381600087803b1580156131cd57600080fd5b505af19250505080156131fe57506040513d601f19601f820116820180604052508101906131fb9190615517565b60015b613281573d806000811461322e576040519150601f19603f3d011682016040523d82523d6000602084013e613233565b606091505b50600081511415613279576040517f08c379a000000000000000000000000000000000000000000000000000000000815260040161327090615441565b60405180910390fd5b805181602001fd5b63150b7a0260e01b7bffffffffffffffffffffffffffffffffffffffffffffffffffffffff1916817bffffffffffffffffffffffffffffffffffffffffffffffffffffffff1916149150506132d6565b600190505b949350505050565b600080600090507a184f03e93ff9f4daa797ed6e38ed64bf6a1f010000000000000000831061333c577a184f03e93ff9f4daa797ed6e38ed64bf6a1f010000000000000000838161333257613331614db0565b5b0492506040810190505b6d04ee2d6d415b85acef81000000008310613379576d04ee2d6d415b85acef8100000000838161336f5761336e614db0565b5b0492506020810190505b662386f26fc1000083106133a857662386f26fc10000838161339e5761339d614db0565b5b0492506010810190505b6305f5e10083106133d1576305f5e10083816133c7576133c6614db0565b5b0492506008810190505b61271083106133f65761271083816133ec576133eb614db0565b5b0492506004810190505b60648310613419576064838161340f5761340e614db0565b5b0492506002810190505b600a8310613428576001810190505b80915050919050565b505050565b6008805490506009600083815260200190815260200160002081905550600881908060018154018082558091505060019003906000526020600020016000909190919091505550565b6000600161348c846115c1565b6134969190614b26565b905060006007600084815260200190815260200160002054905081811461357b576000600660008673ffffffffffffffffffffffffffffffffffffffff1673ffffffffffffffffffffffffffffffffffffffff168152602001908152602001600020600084815260200190815260200160002054905080600660008773ffffffffffffffffffffffffffffffffffffffff1673ffffffffffffffffffffffffffffffffffffffff168152602001908152602001600020600084815260200190815260200160002081905550816007600083815260200190815260200160002081905550505b6007600084815260200190815260200160002060009055600660008573ffffffffffffffffffffffffffffffffffffffff1673ffffffffffffffffffffffffffffffffffffffff16815260200190815260200160002060008381526020019081526020016000206000905550505050565b600060016008805490506136009190614b26565b90506000600960008481526020019081526020016000205490506000600883815481106136305761362f61489c565b5b9060005260206000200154905080600883815481106136525761365161489c565b5b9060005260206000200181905550816009600083815260200190815260200160002081905550600960008581526020019081526020016000206000905560088054806136a1576136a0615544565b5b6001900381819060005260206000200160009055905550505050565b60006136c8836115c1565b905081600660008573ffffffffffffffffffffffffffffffffffffffff1673ffffffffffffffffffffffffffffffffffffffff168152602001908152602001600020600083815260200190815260200160002081905550806007600084815260200190815260200160002081905550505050565b600073ffffffffffffffffffffffffffffffffffffffff168273ffffffffffffffffffffffffffffffffffffffff1614156137ac576040517f08c379a00000000000000000000000000000000000000000000000000000000081526004016137a3906155bf565b60405180910390fd5b6137b581612672565b156137f5576040517f08c379a00000000000000000000000000000000000000000000000000000000081526004016137ec9061562b565b60405180910390fd5b61380160008383612fd8565b6001600360008473ffffffffffffffffffffffffffffffffffffffff1673ffffffffffffffffffffffffffffffffffffffff1681526020019081526020016000206000828254613851919061525b565b92505081905550816002600083815260200190815260200160002060006101000a81548173ffffffffffffffffffffffffffffffffffffffff021916908373ffffffffffffffffffffffffffffffffffffffff160217905550808273ffffffffffffffffffffffffffffffffffffffff16600073ffffffffffffffffffffffffffffffffffffffff167fddf252ad1be2c89b69c2b068fc378daa952ba7f163c4a11628f55a4df523b3ef60405160405180910390a45050565b6000808273ffffffffffffffffffffffffffffffffffffffff163b119050919050565b828054613939906144fe565b90600052602060002090601f01602090048101928261395b57600085556139a2565b82601f1061397457805160ff19168380011785556139a2565b828001600101855582156139a2579182015b828111156139a1578251825591602001919060010190613986565b5b5090506139af9190613a2b565b5090565b60405180610120016040528060008152602001600073ffffffffffffffffffffffffffffffffffffffff168152602001600073ffffffffffffffffffffffffffffffffffffffff1681526020016000815260200160008152602001606081526020016060815260200160608152602001600081525090565b5b80821115613a44576000816000905550600101613a2c565b5090565b6000604051905090565b600080fd5b600080fd5b60007fffffffff0000000000000000000000000000000000000000000000000000000082169050919050565b613a9181613a5c565b8114613a9c57600080fd5b50565b600081359050613aae81613a88565b92915050565b600060208284031215613aca57613ac9613a52565b5b6000613ad884828501613a9f565b91505092915050565b60008115159050919050565b613af681613ae1565b82525050565b6000602082019050613b116000830184613aed565b92915050565b6000819050919050565b613b2a81613b17565b82525050565b6000602082019050613b456000830184613b21565b92915050565b600081519050919050565b600082825260208201905092915050565b60005b83811015613b85578082015181840152602081019050613b6a565b83811115613b94576000848401525b50505050565b6000601f19601f8301169050919050565b6000613bb682613b4b565b613bc08185613b56565b9350613bd0818560208601613b67565b613bd981613b9a565b840191505092915050565b60006020820190508181036000830152613bfe8184613bab565b905092915050565b613c0f81613b17565b8114613c1a57600080fd5b50565b600081359050613c2c81613c06565b92915050565b600060208284031215613c4857613c47613a52565b5b6000613c5684828501613c1d565b91505092915050565b600073ffffffffffffffffffffffffffffffffffffffff82169050919050565b6000613c8a82613c5f565b9050919050565b613c9a81613c7f565b82525050565b6000602082019050613cb56000830184613c91565b92915050565b613cc481613c7f565b8114613ccf57600080fd5b50565b600081359050613ce181613cbb565b92915050565b60008060408385031215613cfe57613cfd613a52565b5b6000613d0c85828601613cd2565b9250506020613d1d85828601613c1d565b9150509250929050565b600080600060608486031215613d4057613d3f613a52565b5b6000613d4e86828701613cd2565b9350506020613d5f86828701613cd2565b9250506040613d7086828701613c1d565b9150509250925092565b600081519050919050565b600082825260208201905092915050565b6000819050602082019050919050565b613daf81613b17565b82525050565b613dbe81613c7f565b82525050565b600082825260208201905092915050565b6000613de082613b4b565b613dea8185613dc4565b9350613dfa818560208601613b67565b613e0381613b9a565b840191505092915050565b600061012083016000830151613e276000860182613da6565b506020830151613e3a6020860182613db5565b506040830151613e4d6040860182613db5565b506060830151613e606060860182613da6565b506080830151613e736080860182613da6565b5060a083015184820360a0860152613e8b8282613dd5565b91505060c083015184820360c0860152613ea58282613dd5565b91505060e083015184820360e0860152613ebf8282613dd5565b915050610100830151613ed6610100860182613da6565b508091505092915050565b6000613eed8383613e0e565b905092915050565b6000602082019050919050565b6000613f0d82613d7a565b613f178185613d85565b935083602082028501613f2985613d96565b8060005b85811015613f655784840389528151613f468582613ee1565b9450613f5183613ef5565b925060208a01995050600181019050613f2d565b50829750879550505050505092915050565b60006020820190508181036000830152613f918184613f02565b905092915050565b600080fd5b600080fd5b7f4e487b7100000000000000000000000000000000000000000000000000000000600052604160045260246000fd5b613fdb82613b9a565b810181811067ffffffffffffffff82111715613ffa57613ff9613fa3565b5b80604052505050565b600061400d613a48565b90506140198282613fd2565b919050565b600067ffffffffffffffff82111561403957614038613fa3565b5b61404282613b9a565b9050602081019050919050565b82818337600083830152505050565b600061407161406c8461401e565b614003565b90508281526020810184848401111561408d5761408c613f9e565b5b61409884828561404f565b509392505050565b600082601f8301126140b5576140b4613f99565b5b81356140c584826020860161405e565b91505092915050565b600080600080600060a086880312156140ea576140e9613a52565b5b600086013567ffffffffffffffff81111561410857614107613a57565b5b614114888289016140a0565b955050602086013567ffffffffffffffff81111561413557614134613a57565b5b614141888289016140a0565b945050604086013567ffffffffffffffff81111561416257614161613a57565b5b61416e888289016140a0565b935050606061417f88828901613c1d565b925050608061419088828901613c1d565b9150509295509295909350565b6000610120830160008301516141b66000860182613da6565b5060208301516141c96020860182613db5565b5060408301516141dc6040860182613db5565b5060608301516141ef6060860182613da6565b5060808301516142026080860182613da6565b5060a083015184820360a086015261421a8282613dd5565b91505060c083015184820360c08601526142348282613dd5565b91505060e083015184820360e086015261424e8282613dd5565b915050610100830151614265610100860182613da6565b508091505092915050565b6000602082019050818103600083015261428a818461419d565b905092915050565b6000602082840312156142a8576142a7613a52565b5b60006142b684828501613cd2565b91505092915050565b6142c881613ae1565b81146142d357600080fd5b50565b6000813590506142e5816142bf565b92915050565b6000806040838503121561430257614301613a52565b5b600061431085828601613cd2565b9250506020614321858286016142d6565b9150509250929050565b6000806040838503121561434257614341613a52565b5b600061435085828601613c1d565b925050602061436185828601613c1d565b9150509250929050565b600067ffffffffffffffff82111561438657614385613fa3565b5b61438f82613b9a565b9050602081019050919050565b60006143af6143aa8461436b565b614003565b9050828152602081018484840111156143cb576143ca613f9e565b5b6143d684828561404f565b509392505050565b600082601f8301126143f3576143f2613f99565b5b813561440384826020860161439c565b91505092915050565b6000806000806080858703121561442657614425613a52565b5b600061443487828801613cd2565b945050602061444587828801613cd2565b935050604061445687828801613c1d565b925050606085013567ffffffffffffffff81111561447757614476613a57565b5b614483878288016143de565b91505092959194509250565b600080604083850312156144a6576144a5613a52565b5b60006144b485828601613cd2565b92505060206144c585828601613cd2565b9150509250929050565b7f4e487b7100000000000000000000000000000000000000000000000000000000600052602260045260246000fd5b6000600282049050600182168061451657607f821691505b6020821081141561452a576145296144cf565b5b50919050565b7f4552433732313a20617070726f76656420717565727920666f72206e6f6e657860008201527f697374656e7420746f6b656e0000000000000000000000000000000000000000602082015250565b600061458c602c83613b56565b915061459782614530565b604082019050919050565b600060208201905081810360008301526145bb8161457f565b9050919050565b7f4552433732313a20617070726f76616c20746f2063757272656e74206f776e6560008201527f7200000000000000000000000000000000000000000000000000000000000000602082015250565b600061461e602183613b56565b9150614629826145c2565b604082019050919050565b6000602082019050818103600083015261464d81614611565b9050919050565b7f4552433732313a20617070726f76652063616c6c6572206973206e6f74206f7760008201527f6e6572206e6f7220617070726f76656420666f7220616c6c0000000000000000602082015250565b60006146b0603883613b56565b91506146bb82614654565b604082019050919050565b600060208201905081810360008301526146df816146a3565b9050919050565b7f4552433732313a207472616e736665722063616c6c6572206973206e6f74206f60008201527f776e6572206e6f7220617070726f766564000000000000000000000000000000602082015250565b6000614742603183613b56565b915061474d826146e6565b604082019050919050565b6000602082019050818103600083015261477181614735565b9050919050565b7f455243373231456e756d657261626c653a206f776e657220696e646578206f7560008201527f74206f6620626f756e6473000000000000000000000000000000000000000000602082015250565b60006147d4602b83613b56565b91506147df82614778565b604082019050919050565b60006020820190508181036000830152614803816147c7565b9050919050565b7f455243373231456e756d657261626c653a20676c6f62616c20696e646578206f60008201527f7574206f6620626f756e64730000000000000000000000000000000000000000602082015250565b6000614866602c83613b56565b91506148718261480a565b604082019050919050565b6000602082019050818103600083015261489581614859565b9050919050565b7f4e487b7100000000000000000000000000000000000000000000000000000000600052603260045260246000fd5b7f457468657220746f6f206c6f7720666f72206d696e74696e6721000000000000600082015250565b6000614901601a83613b56565b915061490c826148cb565b602082019050919050565b60006020820190508181036000830152614930816148f4565b9050919050565b600081905092915050565b600061494d82613b4b565b6149578185614937565b9350614967818560208601613b67565b80840191505092915050565b600061497f8284614942565b915081905092915050565b7f54686973204e465420697320616c7265616479206d696e746564210000000000600082015250565b60006149c0601b83613b56565b91506149cb8261498a565b602082019050919050565b600060208201905081810360008301526149ef816149b3565b9050919050565b7f53616c6573206e6f7420616c6c6f776564210000000000000000000000000000600082015250565b6000614a2c601283613b56565b9150614a37826149f6565b602082019050919050565b60006020820190508181036000830152614a5b81614a1f565b9050919050565b7f4e487b7100000000000000000000000000000000000000000000000000000000600052601160045260246000fd5b6000614a9c82613b17565b91507fffffffffffffffffffffffffffffffffffffffffffffffffffffffffffffffff821415614acf57614ace614a62565b5b600182019050919050565b6000608082019050614aef6000830187613b21565b614afc6020830186613b21565b8181036040830152614b0e8185613bab565b9050614b1d6060830184613b21565b95945050505050565b6000614b3182613b17565b9150614b3c83613b17565b925082821015614b4f57614b4e614a62565b5b828203905092915050565b7f4552433732313a206f776e657220717565727920666f72206e6f6e657869737460008201527f656e7420746f6b656e0000000000000000000000000000000000000000000000602082015250565b6000614bb6602983613b56565b9150614bc182614b5a565b604082019050919050565b60006020820190508181036000830152614be581614ba9565b9050919050565b7f4552433732313a2062616c616e636520717565727920666f7220746865207a6560008201527f726f206164647265737300000000000000000000000000000000000000000000602082015250565b6000614c48602a83613b56565b9150614c5382614bec565b604082019050919050565b60006020820190508181036000830152614c7781614c3b565b9050919050565b7f457468657220746f6f206c6f7720666f72207075726368617365210000000000600082015250565b6000614cb4601b83613b56565b9150614cbf82614c7e565b602082019050919050565b60006020820190508181036000830152614ce381614ca7565b9050919050565b7f4f7065726174696f6e204e6f7420416c6c6f7765642100000000000000000000600082015250565b6000614d20601683613b56565b9150614d2b82614cea565b602082019050919050565b60006020820190508181036000830152614d4f81614d13565b9050919050565b6000614d6182613b17565b9150614d6c83613b17565b9250817fffffffffffffffffffffffffffffffffffffffffffffffffffffffffffffffff0483118215151615614da557614da4614a62565b5b828202905092915050565b7f4e487b7100000000000000000000000000000000000000000000000000000000600052601260045260246000fd5b6000614dea82613b17565b9150614df583613b17565b925082614e0557614e04614db0565b5b828204905092915050565b60008190508160005260206000209050919050565b60008154614e32816144fe565b614e3c8186613b56565b94506001821660008114614e575760018114614e6957614e9c565b60ff1983168652602086019350614e9c565b614e7285614e10565b60005b83811015614e9457815481890152600182019150602081019050614e75565b808801955050505b50505092915050565b6000608082019050614eba6000830187613b21565b614ec76020830186613b21565b8181036040830152614ed98185614e25565b9050614ee86060830184613b21565b95945050505050565b7f457468657220746f6f206c6f7721000000000000000000000000000000000000600082015250565b6000614f27600e83613b56565b9150614f3282614ef1565b602082019050919050565b60006020820190508181036000830152614f5681614f1a565b9050919050565b7f4552433732314d657461646174613a2055524920717565727920666f72206e6f60008201527f6e6578697374656e7420746f6b656e0000000000000000000000000000000000602082015250565b6000614fb9602f83613b56565b9150614fc482614f5d565b604082019050919050565b60006020820190508181036000830152614fe881614fac565b9050919050565b6000614ffb8285614942565b91506150078284614942565b91508190509392505050565b7f4f776e61626c653a206e6577206f776e657220697320746865207a65726f206160008201527f6464726573730000000000000000000000000000000000000000000000000000602082015250565b600061506f602683613b56565b915061507a82615013565b604082019050919050565b6000602082019050818103600083015261509e81615062565b9050919050565b7f4552433732313a206f70657261746f7220717565727920666f72206e6f6e657860008201527f697374656e7420746f6b656e0000000000000000000000000000000000000000602082015250565b6000615101602c83613b56565b915061510c826150a5565b604082019050919050565b60006020820190508181036000830152615130816150f4565b9050919050565b7f4552433732313a207472616e73666572206f6620746f6b656e2074686174206960008201527f73206e6f74206f776e0000000000000000000000000000000000000000000000602082015250565b6000615193602983613b56565b915061519e82615137565b604082019050919050565b600060208201905081810360008301526151c281615186565b9050919050565b7f4552433732313a207472616e7366657220746f20746865207a65726f2061646460008201527f7265737300000000000000000000000000000000000000000000000000000000602082015250565b6000615225602483613b56565b9150615230826151c9565b604082019050919050565b6000602082019050818103600083015261525481615218565b9050919050565b600061526682613b17565b915061527183613b17565b9250827fffffffffffffffffffffffffffffffffffffffffffffffffffffffffffffffff038211156152a6576152a5614a62565b5b828201905092915050565b600081905092915050565b50565b60006152cc6000836152b1565b91506152d7826152bc565b600082019050919050565b60006152ed826152bf565b9150819050919050565b7f4f776e61626c653a2063616c6c6572206973206e6f7420746865206f776e6572600082015250565b600061532d602083613b56565b9150615338826152f7565b602082019050919050565b6000602082019050818103600083015261535c81615320565b9050919050565b7f4552433732313a20617070726f766520746f2063616c6c657200000000000000600082015250565b6000615399601983613b56565b91506153a482615363565b602082019050919050565b600060208201905081810360008301526153c88161538c565b9050919050565b7f4552433732313a207472616e7366657220746f206e6f6e20455243373231526560008201527f63656976657220696d706c656d656e7465720000000000000000000000000000602082015250565b600061542b603283613b56565b9150615436826153cf565b604082019050919050565b6000602082019050818103600083015261545a8161541e565b9050919050565b600081519050919050565b600082825260208201905092915050565b600061548882615461565b615492818561546c565b93506154a2818560208601613b67565b6154ab81613b9a565b840191505092915050565b60006080820190506154cb6000830187613c91565b6154d86020830186613c91565b6154e56040830185613b21565b81810360608301526154f7818461547d565b905095945050505050565b60008151905061551181613a88565b92915050565b60006020828403121561552d5761552c613a52565b5b600061553b84828501615502565b91505092915050565b7f4e487b7100000000000000000000000000000000000000000000000000000000600052603160045260246000fd5b7f4552433732313a206d696e7420746f20746865207a65726f2061646472657373600082015250565b60006155a9602083613b56565b91506155b482615573565b602082019050919050565b600060208201905081810360008301526155d88161559c565b9050919050565b7f4552433732313a20746f6b656e20616c7265616479206d696e74656400000000600082015250565b6000615615601c83613b56565b9150615620826155df565b602082019050919050565b6000602082019050818103600083015261564481615608565b905091905056fea26469706673582212209c30c165a3b7b70fef0de914988dbe1f3e164ba5bd0a8f331f863c3bfbc6004b64736f6c63430008090033",
  "immutableReferences": {},
  "source": "// SPDX-License-Identifier: MIT\r\npragma solidity >=0.7.0 <0.9.0;\r\n\r\nimport \"./ERC721.sol\";\r\nimport \"./ERC721Enumerable.sol\";\r\nimport \"@openzeppelin/contracts/access/Ownable.sol\";\r\n\r\ncontract PStoreNFTv2 is ERC721Enumerable, Ownable {\r\n\r\n    // Mencoba membuat kontrak dengan sistem royalti baru\r\n    using Strings for uint256;\r\n    mapping(string => uint8) existingURIs;\r\n    mapping(uint256 => address) public holderOf;\r\n\r\n    uint256 public supply = 0;\r\n    uint256 public totalTx = 0;\r\n    uint256 public cost = 0.01 ether;\r\n\r\n    event Sale(\r\n        uint256 id,\r\n        address indexed owner,\r\n        uint256 cost,\r\n        string metadataURI,\r\n        uint256 timestamp\r\n    );\r\n\r\n    struct TransactionStruct {\r\n        uint256 id;\r\n        address owner;\r\n        address creator;\r\n        uint256 cost;\r\n        uint256 royaltyPercent;\r\n        string title;\r\n        string description;\r\n        string metadataURI;\r\n        uint256 timestamp;\r\n    }\r\n\r\n    TransactionStruct[] transactions;\r\n    TransactionStruct[] minted;\r\n\r\n    constructor(\r\n        string memory _name,\r\n        string memory _symbol\r\n    ) ERC721(_name, _symbol) {\r\n    }\r\n\r\n    function payToMint(\r\n        string memory title,\r\n        string memory description,\r\n        string memory metadataURI,\r\n        uint256 salesPrice,\r\n        uint256 _royaltyPercent\r\n    ) external payable {\r\n        require(msg.value >= cost, \"Ether too low for minting!\");\r\n        require(existingURIs[metadataURI] == 0, \"This NFT is already minted!\");\r\n        require(msg.sender != owner(), \"Sales not allowed!\");\r\n                       \r\n        payTo(owner(), msg.value);\r\n\r\n        supply++;\r\n\r\n        minted.push(\r\n            TransactionStruct(\r\n                supply,\r\n                msg.sender,\r\n                msg.sender, //creator\r\n                salesPrice,\r\n                _royaltyPercent, //persentase royalti\r\n                title,\r\n                description,\r\n                metadataURI,\r\n                block.timestamp\r\n            )\r\n        );\r\n\r\n        emit Sale(\r\n            supply,\r\n            msg.sender,\r\n            msg.value,\r\n            metadataURI,\r\n            block.timestamp\r\n        );\r\n\r\n        _safeMint(msg.sender, supply);\r\n        existingURIs[metadataURI] = 1;\r\n        holderOf[supply] = msg.sender;\r\n    }\r\n\r\n    function payToBuy(uint256 id) external payable {\r\n        require(msg.value >= minted[id - 1].cost, \"Ether too low for purchase!\");\r\n        require(msg.sender != minted[id - 1].owner, \"Operation Not Allowed!\");\r\n\r\n        uint256 royalty = (msg.value * minted[id-1].royaltyPercent) / 100;\r\n        payTo(minted[id - 1].creator, royalty); // kalo creatornya sama dengan owner maka dia mendapatkan 100% hasil penjualan\r\n        payTo(minted[id - 1].owner, (msg.value - royalty));\r\n\r\n        totalTx++;\r\n\r\n        transactions.push(\r\n            TransactionStruct(\r\n                totalTx,\r\n                msg.sender,\r\n                minted[id - 1].creator,\r\n                msg.value,\r\n                minted[id - 1].royaltyPercent,\r\n                minted[id - 1].title,\r\n                minted[id - 1].description,\r\n                minted[id - 1].metadataURI,\r\n                block.timestamp\r\n            )\r\n        );\r\n\r\n        emit Sale(\r\n            totalTx,\r\n            msg.sender,\r\n            msg.value,\r\n            minted[id - 1].metadataURI,\r\n            block.timestamp\r\n        );\r\n\r\n        minted[id - 1].owner = msg.sender;\r\n    }\r\n\r\n    function changePrice(uint256 id, uint256 newPrice) external returns (bool) {\r\n        require(newPrice > 0 ether, \"Ether too low!\");\r\n        require(msg.sender == minted[id - 1].owner, \"Operation Not Allowed!\");\r\n\r\n        minted[id - 1].cost = newPrice;\r\n        return true;\r\n    }\r\n\r\n    function payTo(address to, uint256 amount) internal {\r\n        (bool success, ) = payable(to).call{value: amount}(\"\");\r\n        require(success);\r\n    }\r\n\r\n    function getAllNFTs() external view returns (TransactionStruct[] memory) {\r\n        return minted;\r\n    }\r\n\r\n    function getNFT(uint256 id) external view returns (TransactionStruct memory) {\r\n        return minted[id - 1];\r\n    }\r\n\r\n    function getAllTransactions() external view returns (TransactionStruct[] memory) {\r\n        return transactions;\r\n    }\r\n}",
  "sourcePath": "D:\\KP\\Projects\\jual-beli-nft\\src\\contracts\\PStoreNFTv2.sol",
  "compiler": {
    "name": "solc",
    "version": "0.8.9+commit.e5eed63a.Emscripten.clang"
  },
  "schemaVersion": "3.4.11",
  "updatedAt": "2023-02-15T11:13:44.354Z",
  "networkType": "ethereum",
  "devdoc": {
    "kind": "dev",
    "methods": {
      "approve(address,uint256)": {
        "details": "See {IERC721-approve}."
      },
      "balanceOf(address)": {
        "details": "See {IERC721-balanceOf}."
      },
      "getApproved(uint256)": {
        "details": "See {IERC721-getApproved}."
      },
      "isApprovedForAll(address,address)": {
        "details": "See {IERC721-isApprovedForAll}."
      },
      "name()": {
        "details": "See {IERC721Metadata-name}."
      },
      "owner()": {
        "details": "Returns the address of the current owner."
      },
      "ownerOf(uint256)": {
        "details": "See {IERC721-ownerOf}."
      },
      "renounceOwnership()": {
        "details": "Leaves the contract without owner. It will not be possible to call `onlyOwner` functions anymore. Can only be called by the current owner. NOTE: Renouncing ownership will leave the contract without an owner, thereby removing any functionality that is only available to the owner."
      },
      "safeTransferFrom(address,address,uint256)": {
        "details": "See {IERC721-safeTransferFrom}."
      },
      "safeTransferFrom(address,address,uint256,bytes)": {
        "details": "See {IERC721-safeTransferFrom}."
      },
      "setApprovalForAll(address,bool)": {
        "details": "See {IERC721-setApprovalForAll}."
      },
      "supportsInterface(bytes4)": {
        "details": "See {IERC165-supportsInterface}."
      },
      "symbol()": {
        "details": "See {IERC721Metadata-symbol}."
      },
      "tokenByIndex(uint256)": {
        "details": "See {IERC721Enumerable-tokenByIndex}."
      },
      "tokenOfOwnerByIndex(address,uint256)": {
        "details": "See {IERC721Enumerable-tokenOfOwnerByIndex}."
      },
      "tokenURI(uint256)": {
        "details": "See {IERC721Metadata-tokenURI}."
      },
      "totalSupply()": {
        "details": "See {IERC721Enumerable-totalSupply}."
      },
      "transferFrom(address,address,uint256)": {
        "details": "See {IERC721-transferFrom}."
      },
      "transferOwnership(address)": {
        "details": "Transfers ownership of the contract to a new account (`newOwner`). Can only be called by the current owner."
      }
    },
    "version": 1
  },
  "userdoc": {
    "kind": "user",
    "methods": {},
    "version": 1
  }
}