{
  "contractName": "PStoreNFTv2",
  "abi": [
    {
      "inputs": [
        {
          "internalType": "string",
          "name": "_name",
          "type": "string"
        },
        {
          "internalType": "string",
          "name": "_symbol",
          "type": "string"
        }
      ],
      "stateMutability": "nonpayable",
      "type": "constructor"
    },
    {
      "anonymous": false,
      "inputs": [
        {
          "indexed": true,
          "internalType": "address",
          "name": "owner",
          "type": "address"
        },
        {
          "indexed": true,
          "internalType": "address",
          "name": "approved",
          "type": "address"
        },
        {
          "indexed": true,
          "internalType": "uint256",
          "name": "tokenId",
          "type": "uint256"
        }
      ],
      "name": "Approval",
      "type": "event"
    },
    {
      "anonymous": false,
      "inputs": [
        {
          "indexed": true,
          "internalType": "address",
          "name": "owner",
          "type": "address"
        },
        {
          "indexed": true,
          "internalType": "address",
          "name": "operator",
          "type": "address"
        },
        {
          "indexed": false,
          "internalType": "bool",
          "name": "approved",
          "type": "bool"
        }
      ],
      "name": "ApprovalForAll",
      "type": "event"
    },
    {
      "anonymous": false,
      "inputs": [
        {
          "indexed": true,
          "internalType": "address",
          "name": "previousOwner",
          "type": "address"
        },
        {
          "indexed": true,
          "internalType": "address",
          "name": "newOwner",
          "type": "address"
        }
      ],
      "name": "OwnershipTransferred",
      "type": "event"
    },
    {
      "anonymous": false,
      "inputs": [
        {
          "indexed": false,
          "internalType": "uint256",
          "name": "id",
          "type": "uint256"
        },
        {
          "indexed": true,
          "internalType": "address",
          "name": "owner",
          "type": "address"
        },
        {
          "indexed": false,
          "internalType": "uint256",
          "name": "cost",
          "type": "uint256"
        },
        {
          "indexed": false,
          "internalType": "string",
          "name": "metadataURI",
          "type": "string"
        },
        {
          "indexed": false,
          "internalType": "uint256",
          "name": "timestamp",
          "type": "uint256"
        }
      ],
      "name": "Sale",
      "type": "event"
    },
    {
      "anonymous": false,
      "inputs": [
        {
          "indexed": true,
          "internalType": "address",
          "name": "from",
          "type": "address"
        },
        {
          "indexed": true,
          "internalType": "address",
          "name": "to",
          "type": "address"
        },
        {
          "indexed": true,
          "internalType": "uint256",
          "name": "tokenId",
          "type": "uint256"
        }
      ],
      "name": "Transfer",
      "type": "event"
    },
    {
      "inputs": [
        {
          "internalType": "address",
          "name": "to",
          "type": "address"
        },
        {
          "internalType": "uint256",
          "name": "tokenId",
          "type": "uint256"
        }
      ],
      "name": "approve",
      "outputs": [],
      "stateMutability": "nonpayable",
      "type": "function"
    },
    {
      "inputs": [
        {
          "internalType": "address",
          "name": "owner",
          "type": "address"
        }
      ],
      "name": "balanceOf",
      "outputs": [
        {
          "internalType": "uint256",
          "name": "",
          "type": "uint256"
        }
      ],
      "stateMutability": "view",
      "type": "function",
      "constant": true
    },
    {
      "inputs": [],
      "name": "cost",
      "outputs": [
        {
          "internalType": "uint256",
          "name": "",
          "type": "uint256"
        }
      ],
      "stateMutability": "view",
      "type": "function",
      "constant": true
    },
    {
      "inputs": [
        {
          "internalType": "uint256",
          "name": "tokenId",
          "type": "uint256"
        }
      ],
      "name": "getApproved",
      "outputs": [
        {
          "internalType": "address",
          "name": "",
          "type": "address"
        }
      ],
      "stateMutability": "view",
      "type": "function",
      "constant": true
    },
    {
      "inputs": [
        {
          "internalType": "uint256",
          "name": "",
          "type": "uint256"
        }
      ],
      "name": "holderOf",
      "outputs": [
        {
          "internalType": "address",
          "name": "",
          "type": "address"
        }
      ],
      "stateMutability": "view",
      "type": "function",
      "constant": true
    },
    {
      "inputs": [
        {
          "internalType": "address",
          "name": "owner",
          "type": "address"
        },
        {
          "internalType": "address",
          "name": "operator",
          "type": "address"
        }
      ],
      "name": "isApprovedForAll",
      "outputs": [
        {
          "internalType": "bool",
          "name": "",
          "type": "bool"
        }
      ],
      "stateMutability": "view",
      "type": "function",
      "constant": true
    },
    {
      "inputs": [],
      "name": "name",
      "outputs": [
        {
          "internalType": "string",
          "name": "",
          "type": "string"
        }
      ],
      "stateMutability": "view",
      "type": "function",
      "constant": true
    },
    {
      "inputs": [],
      "name": "owner",
      "outputs": [
        {
          "internalType": "address",
          "name": "",
          "type": "address"
        }
      ],
      "stateMutability": "view",
      "type": "function",
      "constant": true
    },
    {
      "inputs": [
        {
          "internalType": "uint256",
          "name": "tokenId",
          "type": "uint256"
        }
      ],
      "name": "ownerOf",
      "outputs": [
        {
          "internalType": "address",
          "name": "",
          "type": "address"
        }
      ],
      "stateMutability": "view",
      "type": "function",
      "constant": true
    },
    {
      "inputs": [],
      "name": "renounceOwnership",
      "outputs": [],
      "stateMutability": "nonpayable",
      "type": "function"
    },
    {
      "inputs": [
        {
          "internalType": "address",
          "name": "from",
          "type": "address"
        },
        {
          "internalType": "address",
          "name": "to",
          "type": "address"
        },
        {
          "internalType": "uint256",
          "name": "tokenId",
          "type": "uint256"
        }
      ],
      "name": "safeTransferFrom",
      "outputs": [],
      "stateMutability": "payable",
      "type": "function",
      "payable": true
    },
    {
      "inputs": [
        {
          "internalType": "address",
          "name": "from",
          "type": "address"
        },
        {
          "internalType": "address",
          "name": "to",
          "type": "address"
        },
        {
          "internalType": "uint256",
          "name": "tokenId",
          "type": "uint256"
        },
        {
          "internalType": "bytes",
          "name": "_data",
          "type": "bytes"
        }
      ],
      "name": "safeTransferFrom",
      "outputs": [],
      "stateMutability": "payable",
      "type": "function",
      "payable": true
    },
    {
      "inputs": [
        {
          "internalType": "address",
          "name": "operator",
          "type": "address"
        },
        {
          "internalType": "bool",
          "name": "approved",
          "type": "bool"
        }
      ],
      "name": "setApprovalForAll",
      "outputs": [],
      "stateMutability": "nonpayable",
      "type": "function"
    },
    {
      "inputs": [],
      "name": "supply",
      "outputs": [
        {
          "internalType": "uint256",
          "name": "",
          "type": "uint256"
        }
      ],
      "stateMutability": "view",
      "type": "function",
      "constant": true
    },
    {
      "inputs": [
        {
          "internalType": "bytes4",
          "name": "interfaceId",
          "type": "bytes4"
        }
      ],
      "name": "supportsInterface",
      "outputs": [
        {
          "internalType": "bool",
          "name": "",
          "type": "bool"
        }
      ],
      "stateMutability": "view",
      "type": "function",
      "constant": true
    },
    {
      "inputs": [],
      "name": "symbol",
      "outputs": [
        {
          "internalType": "string",
          "name": "",
          "type": "string"
        }
      ],
      "stateMutability": "view",
      "type": "function",
      "constant": true
    },
    {
      "inputs": [
        {
          "internalType": "uint256",
          "name": "index",
          "type": "uint256"
        }
      ],
      "name": "tokenByIndex",
      "outputs": [
        {
          "internalType": "uint256",
          "name": "",
          "type": "uint256"
        }
      ],
      "stateMutability": "view",
      "type": "function",
      "constant": true
    },
    {
      "inputs": [
        {
          "internalType": "address",
          "name": "owner",
          "type": "address"
        },
        {
          "internalType": "uint256",
          "name": "index",
          "type": "uint256"
        }
      ],
      "name": "tokenOfOwnerByIndex",
      "outputs": [
        {
          "internalType": "uint256",
          "name": "",
          "type": "uint256"
        }
      ],
      "stateMutability": "view",
      "type": "function",
      "constant": true
    },
    {
      "inputs": [
        {
          "internalType": "uint256",
          "name": "tokenId",
          "type": "uint256"
        }
      ],
      "name": "tokenURI",
      "outputs": [
        {
          "internalType": "string",
          "name": "",
          "type": "string"
        }
      ],
      "stateMutability": "view",
      "type": "function",
      "constant": true
    },
    {
      "inputs": [],
      "name": "totalSupply",
      "outputs": [
        {
          "internalType": "uint256",
          "name": "",
          "type": "uint256"
        }
      ],
      "stateMutability": "view",
      "type": "function",
      "constant": true
    },
    {
      "inputs": [],
      "name": "totalTx",
      "outputs": [
        {
          "internalType": "uint256",
          "name": "",
          "type": "uint256"
        }
      ],
      "stateMutability": "view",
      "type": "function",
      "constant": true
    },
    {
      "inputs": [
        {
          "internalType": "address",
          "name": "from",
          "type": "address"
        },
        {
          "internalType": "address",
          "name": "to",
          "type": "address"
        },
        {
          "internalType": "uint256",
          "name": "tokenId",
          "type": "uint256"
        }
      ],
      "name": "transferFrom",
      "outputs": [],
      "stateMutability": "payable",
      "type": "function",
      "payable": true
    },
    {
      "inputs": [
        {
          "internalType": "address",
          "name": "newOwner",
          "type": "address"
        }
      ],
      "name": "transferOwnership",
      "outputs": [],
      "stateMutability": "nonpayable",
      "type": "function"
    },
    {
      "inputs": [
        {
          "internalType": "string",
          "name": "title",
          "type": "string"
        },
        {
          "internalType": "string",
          "name": "description",
          "type": "string"
        },
        {
          "internalType": "string",
          "name": "metadataURI",
          "type": "string"
        },
        {
          "internalType": "uint256",
          "name": "salesPrice",
          "type": "uint256"
        },
        {
          "internalType": "uint256",
          "name": "royaltyPercent",
          "type": "uint256"
        }
      ],
      "name": "payToMint",
      "outputs": [],
      "stateMutability": "payable",
      "type": "function",
      "payable": true
    },
    {
      "inputs": [
        {
          "internalType": "uint256",
          "name": "id",
          "type": "uint256"
        }
      ],
      "name": "payToBuy",
      "outputs": [],
      "stateMutability": "payable",
      "type": "function",
      "payable": true
    },
    {
      "inputs": [
        {
          "internalType": "uint256",
          "name": "id",
          "type": "uint256"
        },
        {
          "internalType": "uint256",
          "name": "newPrice",
          "type": "uint256"
        }
      ],
      "name": "changePrice",
      "outputs": [
        {
          "internalType": "bool",
          "name": "",
          "type": "bool"
        }
      ],
      "stateMutability": "nonpayable",
      "type": "function"
    },
    {
      "inputs": [
        {
          "internalType": "uint256",
          "name": "id",
          "type": "uint256"
        }
      ],
      "name": "setListed",
      "outputs": [
        {
          "internalType": "bool",
          "name": "",
          "type": "bool"
        }
      ],
      "stateMutability": "nonpayable",
      "type": "function"
    },
    {
      "inputs": [],
      "name": "getAllNFTs",
      "outputs": [
        {
          "components": [
            {
              "internalType": "uint256",
              "name": "id",
              "type": "uint256"
            },
            {
              "internalType": "address",
              "name": "owner",
              "type": "address"
            },
            {
              "internalType": "address",
              "name": "creator",
              "type": "address"
            },
            {
              "internalType": "uint256",
              "name": "cost",
              "type": "uint256"
            },
            {
              "internalType": "uint256",
              "name": "royaltyPercent",
              "type": "uint256"
            },
            {
              "internalType": "string",
              "name": "title",
              "type": "string"
            },
            {
              "internalType": "string",
              "name": "description",
              "type": "string"
            },
            {
              "internalType": "string",
              "name": "metadataURI",
              "type": "string"
            },
            {
              "internalType": "uint256",
              "name": "timestamp",
              "type": "uint256"
            },
            {
              "internalType": "bool",
              "name": "isListed",
              "type": "bool"
            }
          ],
          "internalType": "struct PStoreNFTv2.TransactionStruct[]",
          "name": "",
          "type": "tuple[]"
        }
      ],
      "stateMutability": "view",
      "type": "function",
      "constant": true
    },
    {
      "inputs": [],
      "name": "getListedNFTs",
      "outputs": [
        {
          "components": [
            {
              "internalType": "uint256",
              "name": "id",
              "type": "uint256"
            },
            {
              "internalType": "address",
              "name": "owner",
              "type": "address"
            },
            {
              "internalType": "address",
              "name": "creator",
              "type": "address"
            },
            {
              "internalType": "uint256",
              "name": "cost",
              "type": "uint256"
            },
            {
              "internalType": "uint256",
              "name": "royaltyPercent",
              "type": "uint256"
            },
            {
              "internalType": "string",
              "name": "title",
              "type": "string"
            },
            {
              "internalType": "string",
              "name": "description",
              "type": "string"
            },
            {
              "internalType": "string",
              "name": "metadataURI",
              "type": "string"
            },
            {
              "internalType": "uint256",
              "name": "timestamp",
              "type": "uint256"
            },
            {
              "internalType": "bool",
              "name": "isListed",
              "type": "bool"
            }
          ],
          "internalType": "struct PStoreNFTv2.TransactionStruct[]",
          "name": "",
          "type": "tuple[]"
        }
      ],
      "stateMutability": "nonpayable",
      "type": "function"
    },
    {
      "inputs": [
        {
          "internalType": "uint256",
          "name": "id",
          "type": "uint256"
        }
      ],
      "name": "getNFT",
      "outputs": [
        {
          "components": [
            {
              "internalType": "uint256",
              "name": "id",
              "type": "uint256"
            },
            {
              "internalType": "address",
              "name": "owner",
              "type": "address"
            },
            {
              "internalType": "address",
              "name": "creator",
              "type": "address"
            },
            {
              "internalType": "uint256",
              "name": "cost",
              "type": "uint256"
            },
            {
              "internalType": "uint256",
              "name": "royaltyPercent",
              "type": "uint256"
            },
            {
              "internalType": "string",
              "name": "title",
              "type": "string"
            },
            {
              "internalType": "string",
              "name": "description",
              "type": "string"
            },
            {
              "internalType": "string",
              "name": "metadataURI",
              "type": "string"
            },
            {
              "internalType": "uint256",
              "name": "timestamp",
              "type": "uint256"
            },
            {
              "internalType": "bool",
              "name": "isListed",
              "type": "bool"
            }
          ],
          "internalType": "struct PStoreNFTv2.TransactionStruct",
          "name": "",
          "type": "tuple"
        }
      ],
      "stateMutability": "view",
      "type": "function",
      "constant": true
    },
    {
      "inputs": [],
      "name": "getAllTransactions",
      "outputs": [
        {
          "components": [
            {
              "internalType": "uint256",
              "name": "id",
              "type": "uint256"
            },
            {
              "internalType": "address",
              "name": "owner",
              "type": "address"
            },
            {
              "internalType": "address",
              "name": "creator",
              "type": "address"
            },
            {
              "internalType": "uint256",
              "name": "cost",
              "type": "uint256"
            },
            {
              "internalType": "uint256",
              "name": "royaltyPercent",
              "type": "uint256"
            },
            {
              "internalType": "string",
              "name": "title",
              "type": "string"
            },
            {
              "internalType": "string",
              "name": "description",
              "type": "string"
            },
            {
              "internalType": "string",
              "name": "metadataURI",
              "type": "string"
            },
            {
              "internalType": "uint256",
              "name": "timestamp",
              "type": "uint256"
            },
            {
              "internalType": "bool",
              "name": "isListed",
              "type": "bool"
            }
          ],
          "internalType": "struct PStoreNFTv2.TransactionStruct[]",
          "name": "",
          "type": "tuple[]"
        }
      ],
      "stateMutability": "view",
      "type": "function",
      "constant": true
    }
  ],
  "bytecode": "0x60806040526000600d556000600e55662386f26fc10000600f553480156200002657600080fd5b50604051620064af380380620064af83398181016040528101906200004c9190620003c5565b818181600090805190602001906200006692919062000178565b5080600190805190602001906200007f92919062000178565b505050620000a262000096620000aa60201b60201c565b620000b260201b60201c565b5050620004af565b600033905090565b6000600a60009054906101000a900473ffffffffffffffffffffffffffffffffffffffff16905081600a60006101000a81548173ffffffffffffffffffffffffffffffffffffffff021916908373ffffffffffffffffffffffffffffffffffffffff1602179055508173ffffffffffffffffffffffffffffffffffffffff168173ffffffffffffffffffffffffffffffffffffffff167f8be0079c531659141344cd1fd0a4f28419497f9722a3daafe3b4186f6b6457e060405160405180910390a35050565b828054620001869062000479565b90600052602060002090601f016020900481019282620001aa5760008555620001f6565b82601f10620001c557805160ff1916838001178555620001f6565b82800160010185558215620001f6579182015b82811115620001f5578251825591602001919060010190620001d8565b5b50905062000205919062000209565b5090565b5b80821115620002245760008160009055506001016200020a565b5090565b6000604051905090565b600080fd5b600080fd5b600080fd5b600080fd5b6000601f19601f8301169050919050565b7f4e487b7100000000000000000000000000000000000000000000000000000000600052604160045260246000fd5b620002918262000246565b810181811067ffffffffffffffff82111715620002b357620002b262000257565b5b80604052505050565b6000620002c862000228565b9050620002d6828262000286565b919050565b600067ffffffffffffffff821115620002f957620002f862000257565b5b620003048262000246565b9050602081019050919050565b60005b838110156200033157808201518184015260208101905062000314565b8381111562000341576000848401525b50505050565b60006200035e6200035884620002db565b620002bc565b9050828152602081018484840111156200037d576200037c62000241565b5b6200038a84828562000311565b509392505050565b600082601f830112620003aa57620003a96200023c565b5b8151620003bc84826020860162000347565b91505092915050565b60008060408385031215620003df57620003de62000232565b5b600083015167ffffffffffffffff8111156200040057620003ff62000237565b5b6200040e8582860162000392565b925050602083015167ffffffffffffffff81111562000432576200043162000237565b5b620004408582860162000392565b9150509250929050565b7f4e487b7100000000000000000000000000000000000000000000000000000000600052602260045260246000fd5b600060028204905060018216806200049257607f821691505b60208210811415620004a957620004a86200044a565b5b50919050565b615ff080620004bf6000396000f3fe6080604052600436106101d85760003560e01c80636352211e11610102578063b3de019c11610095578063e0391b0911610064578063e0391b09146106b7578063e985e9c5146106e2578063f2fde38b1461071f578063ff84603814610748576101d8565b8063b3de019c146105e4578063b88d4fde14610621578063c87b56dd1461063d578063dbacc2371461067a576101d8565b80638da5cb5b116100d15780638da5cb5b1461054957806395d89b41146105745780639ba4b0171461059f578063a22cb465146105bb576101d8565b80636352211e1461048d57806370a08231146104ca578063715018a6146105075780637220cf391461051e576101d8565b806318160ddd1161017a57806342842e0e1161014957806342842e0e146103db5780634f6ccce7146103f757806352fe0e2a14610434578063576f7ea714610450576101d8565b806318160ddd1461032c57806323b872dd1461035757806327506f53146103735780632f745c591461039e576101d8565b806306fdde03116101b657806306fdde0314610270578063081812fc1461029b578063095ea7b3146102d857806313faede614610301576101d8565b8063012386f0146101dd57806301ffc9a714610208578063047fc9aa14610245575b600080fd5b3480156101e957600080fd5b506101f2610785565b6040516101ff9190614636565b60405180910390f35b34801561021457600080fd5b5061022f600480360381019061022a91906146c4565b610cc0565b60405161023c9190614700565b60405180910390f35b34801561025157600080fd5b5061025a610d3a565b604051610267919061472a565b60405180910390f35b34801561027c57600080fd5b50610285610d40565b604051610292919061478f565b60405180910390f35b3480156102a757600080fd5b506102c260048036038101906102bd91906147dd565b610dd2565b6040516102cf9190614819565b60405180910390f35b3480156102e457600080fd5b506102ff60048036038101906102fa9190614860565b610e57565b005b34801561030d57600080fd5b50610316610f6f565b604051610323919061472a565b60405180910390f35b34801561033857600080fd5b50610341610f75565b60405161034e919061472a565b60405180910390f35b610371600480360381019061036c91906148a0565b610f82565b005b34801561037f57600080fd5b50610388610fe2565b6040516103959190614636565b60405180910390f35b3480156103aa57600080fd5b506103c560048036038101906103c09190614860565b6112e7565b6040516103d2919061472a565b60405180910390f35b6103f560048036038101906103f091906148a0565b61138c565b005b34801561040357600080fd5b5061041e600480360381019061041991906147dd565b6113ac565b60405161042b919061472a565b60405180910390f35b61044e60048036038101906104499190614a28565b61141d565b005b34801561045c57600080fd5b50610477600480360381019061047291906147dd565b61183a565b6040516104849190614bdf565b60405180910390f35b34801561049957600080fd5b506104b460048036038101906104af91906147dd565b611b28565b6040516104c19190614819565b60405180910390f35b3480156104d657600080fd5b506104f160048036038101906104ec9190614c01565b611bda565b6040516104fe919061472a565b60405180910390f35b34801561051357600080fd5b5061051c611c92565b005b34801561052a57600080fd5b50610533611ca6565b604051610540919061472a565b60405180910390f35b34801561055557600080fd5b5061055e611cac565b60405161056b9190614819565b60405180910390f35b34801561058057600080fd5b50610589611cd6565b604051610596919061478f565b60405180910390f35b6105b960048036038101906105b491906147dd565b611d68565b005b3480156105c757600080fd5b506105e260048036038101906105dd9190614c5a565b612583565b005b3480156105f057600080fd5b5061060b60048036038101906106069190614c9a565b612599565b6040516106189190614700565b60405180910390f35b61063b60048036038101906106369190614d7b565b6126dc565b005b34801561064957600080fd5b50610664600480360381019061065f91906147dd565b61273e565b604051610671919061478f565b60405180910390f35b34801561068657600080fd5b506106a1600480360381019061069c91906147dd565b6127e5565b6040516106ae9190614819565b60405180910390f35b3480156106c357600080fd5b506106cc612818565b6040516106d99190614636565b60405180910390f35b3480156106ee57600080fd5b5061070960048036038101906107049190614dfe565b612b1d565b6040516107169190614700565b60405180910390f35b34801561072b57600080fd5b5061074660048036038101906107419190614c01565b612bb1565b005b34801561075457600080fd5b5061076f600480360381019061076a91906147dd565b612c35565b60405161077c9190614700565b60405180910390f35b606060005b6011805490508110156109bc5760011515601182815481106107af576107ae614e3e565b5b90600052602060002090600a020160090160009054906101000a900460ff16151514156109a9576012601182815481106107ec576107eb614e3e565b5b90600052602060002090600a020190806001815401808255809150506001900390600052602060002090600a0201600090919091909150600082015481600001556001820160009054906101000a900473ffffffffffffffffffffffffffffffffffffffff168160010160006101000a81548173ffffffffffffffffffffffffffffffffffffffff021916908373ffffffffffffffffffffffffffffffffffffffff1602179055506002820160009054906101000a900473ffffffffffffffffffffffffffffffffffffffff168160020160006101000a81548173ffffffffffffffffffffffffffffffffffffffff021916908373ffffffffffffffffffffffffffffffffffffffff1602179055506003820154816003015560048201548160040155600582018160050190805461092390614e9c565b61092e9291906141cd565b50600682018160060190805461094390614e9c565b61094e9291906141cd565b50600782018160070190805461096390614e9c565b61096e9291906141cd565b50600882015481600801556009820160009054906101000a900460ff168160090160006101000a81548160ff02191690831515021790555050505b80806109b490614efd565b91505061078a565b506012805480602002602001604051908101604052809291908181526020016000905b82821015610cb757838290600052602060002090600a020160405180610140016040529081600082015481526020016001820160009054906101000a900473ffffffffffffffffffffffffffffffffffffffff1673ffffffffffffffffffffffffffffffffffffffff1673ffffffffffffffffffffffffffffffffffffffff1681526020016002820160009054906101000a900473ffffffffffffffffffffffffffffffffffffffff1673ffffffffffffffffffffffffffffffffffffffff1673ffffffffffffffffffffffffffffffffffffffff1681526020016003820154815260200160048201548152602001600582018054610add90614e9c565b80601f0160208091040260200160405190810160405280929190818152602001828054610b0990614e9c565b8015610b565780601f10610b2b57610100808354040283529160200191610b56565b820191906000526020600020905b815481529060010190602001808311610b3957829003601f168201915b50505050508152602001600682018054610b6f90614e9c565b80601f0160208091040260200160405190810160405280929190818152602001828054610b9b90614e9c565b8015610be85780601f10610bbd57610100808354040283529160200191610be8565b820191906000526020600020905b815481529060010190602001808311610bcb57829003601f168201915b50505050508152602001600782018054610c0190614e9c565b80601f0160208091040260200160405190810160405280929190818152602001828054610c2d90614e9c565b8015610c7a5780601f10610c4f57610100808354040283529160200191610c7a565b820191906000526020600020905b815481529060010190602001808311610c5d57829003601f168201915b50505050508152602001600882015481526020016009820160009054906101000a900460ff161515151581525050815260200190600101906109df565b50505050905090565b60007f780e9d63000000000000000000000000000000000000000000000000000000007bffffffffffffffffffffffffffffffffffffffffffffffffffffffff1916827bffffffffffffffffffffffffffffffffffffffffffffffffffffffff19161480610d335750610d3282612e30565b5b9050919050565b600d5481565b606060008054610d4f90614e9c565b80601f0160208091040260200160405190810160405280929190818152602001828054610d7b90614e9c565b8015610dc85780601f10610d9d57610100808354040283529160200191610dc8565b820191906000526020600020905b815481529060010190602001808311610dab57829003601f168201915b5050505050905090565b6000610ddd82612f12565b610e1c576040517f08c379a0000000000000000000000000000000000000000000000000000000008152600401610e1390614fb8565b60405180910390fd5b6004600083815260200190815260200160002060009054906101000a900473ffffffffffffffffffffffffffffffffffffffff169050919050565b6000610e6282611b28565b90508073ffffffffffffffffffffffffffffffffffffffff168373ffffffffffffffffffffffffffffffffffffffff161415610ed3576040517f08c379a0000000000000000000000000000000000000000000000000000000008152600401610eca9061504a565b60405180910390fd5b8073ffffffffffffffffffffffffffffffffffffffff16610ef2612f7e565b73ffffffffffffffffffffffffffffffffffffffff161480610f215750610f2081610f1b612f7e565b612b1d565b5b610f60576040517f08c379a0000000000000000000000000000000000000000000000000000000008152600401610f57906150dc565b60405180910390fd5b610f6a8383612f86565b505050565b600f5481565b6000600880549050905090565b610f93610f8d612f7e565b8261303f565b610fd2576040517f08c379a0000000000000000000000000000000000000000000000000000000008152600401610fc99061516e565b60405180910390fd5b610fdd83838361311d565b505050565b60606010805480602002602001604051908101604052809291908181526020016000905b828210156112de57838290600052602060002090600a020160405180610140016040529081600082015481526020016001820160009054906101000a900473ffffffffffffffffffffffffffffffffffffffff1673ffffffffffffffffffffffffffffffffffffffff1673ffffffffffffffffffffffffffffffffffffffff1681526020016002820160009054906101000a900473ffffffffffffffffffffffffffffffffffffffff1673ffffffffffffffffffffffffffffffffffffffff1673ffffffffffffffffffffffffffffffffffffffff168152602001600382015481526020016004820154815260200160058201805461110490614e9c565b80601f016020809104026020016040519081016040528092919081815260200182805461113090614e9c565b801561117d5780601f106111525761010080835404028352916020019161117d565b820191906000526020600020905b81548152906001019060200180831161116057829003601f168201915b5050505050815260200160068201805461119690614e9c565b80601f01602080910402602001604051908101604052809291908181526020018280546111c290614e9c565b801561120f5780601f106111e45761010080835404028352916020019161120f565b820191906000526020600020905b8154815290600101906020018083116111f257829003601f168201915b5050505050815260200160078201805461122890614e9c565b80601f016020809104026020016040519081016040528092919081815260200182805461125490614e9c565b80156112a15780601f10611276576101008083540402835291602001916112a1565b820191906000526020600020905b81548152906001019060200180831161128457829003601f168201915b50505050508152602001600882015481526020016009820160009054906101000a900460ff16151515158152505081526020019060010190611006565b50505050905090565b60006112f283611bda565b8210611333576040517f08c379a000000000000000000000000000000000000000000000000000000000815260040161132a90615200565b60405180910390fd5b600660008473ffffffffffffffffffffffffffffffffffffffff1673ffffffffffffffffffffffffffffffffffffffff168152602001908152602001600020600083815260200190815260200160002054905092915050565b6113a7838383604051806020016040528060008152506126dc565b505050565b60006113b6610f75565b82106113f7576040517f08c379a00000000000000000000000000000000000000000000000000000000081526004016113ee90615292565b60405180910390fd5b6008828154811061140b5761140a614e3e565b5b90600052602060002001549050919050565b600f54341015611462576040517f08c379a0000000000000000000000000000000000000000000000000000000008152600401611459906152fe565b60405180910390fd5b6000600b84604051611474919061535a565b908152602001604051809103902060009054906101000a900460ff1660ff16146114d3576040517f08c379a00000000000000000000000000000000000000000000000000000000081526004016114ca906153bd565b60405180910390fd5b6114db611cac565b73ffffffffffffffffffffffffffffffffffffffff163373ffffffffffffffffffffffffffffffffffffffff161415611549576040517f08c379a000000000000000000000000000000000000000000000000000000000815260040161154090615429565b60405180910390fd5b61155a611554611cac565b34613379565b600d600081548092919061156d90614efd565b91905055506011604051806101400160405280600d5481526020013373ffffffffffffffffffffffffffffffffffffffff1681526020013373ffffffffffffffffffffffffffffffffffffffff1681526020018481526020018381526020018781526020018681526020018581526020014281526020016001151581525090806001815401808255809150506001900390600052602060002090600a02016000909190919091506000820151816000015560208201518160010160006101000a81548173ffffffffffffffffffffffffffffffffffffffff021916908373ffffffffffffffffffffffffffffffffffffffff16021790555060408201518160020160006101000a81548173ffffffffffffffffffffffffffffffffffffffff021916908373ffffffffffffffffffffffffffffffffffffffff160217905550606082015181600301556080820151816004015560a08201518160050190805190602001906116dc92919061425a565b5060c08201518160060190805190602001906116f992919061425a565b5060e082015181600701908051906020019061171692919061425a565b5061010082015181600801556101208201518160090160006101000a81548160ff02191690831515021790555050503373ffffffffffffffffffffffffffffffffffffffff167fb9508407a6eccb191d8da3286f4173697cf95604e9ea192fe5ab7c862b5221f6600d543486426040516117939493929190615449565b60405180910390a26117a733600d546133f4565b6001600b846040516117b9919061535a565b908152602001604051809103902060006101000a81548160ff021916908360ff16021790555033600c6000600d54815260200190815260200160002060006101000a81548173ffffffffffffffffffffffffffffffffffffffff021916908373ffffffffffffffffffffffffffffffffffffffff1602179055505050505050565b6118426142e0565b60116001836118519190615495565b8154811061186257611861614e3e565b5b90600052602060002090600a020160405180610140016040529081600082015481526020016001820160009054906101000a900473ffffffffffffffffffffffffffffffffffffffff1673ffffffffffffffffffffffffffffffffffffffff1673ffffffffffffffffffffffffffffffffffffffff1681526020016002820160009054906101000a900473ffffffffffffffffffffffffffffffffffffffff1673ffffffffffffffffffffffffffffffffffffffff1673ffffffffffffffffffffffffffffffffffffffff168152602001600382015481526020016004820154815260200160058201805461195690614e9c565b80601f016020809104026020016040519081016040528092919081815260200182805461198290614e9c565b80156119cf5780601f106119a4576101008083540402835291602001916119cf565b820191906000526020600020905b8154815290600101906020018083116119b257829003601f168201915b505050505081526020016006820180546119e890614e9c565b80601f0160208091040260200160405190810160405280929190818152602001828054611a1490614e9c565b8015611a615780601f10611a3657610100808354040283529160200191611a61565b820191906000526020600020905b815481529060010190602001808311611a4457829003601f168201915b50505050508152602001600782018054611a7a90614e9c565b80601f0160208091040260200160405190810160405280929190818152602001828054611aa690614e9c565b8015611af35780601f10611ac857610100808354040283529160200191611af3565b820191906000526020600020905b815481529060010190602001808311611ad657829003601f168201915b50505050508152602001600882015481526020016009820160009054906101000a900460ff1615151515815250509050919050565b6000806002600084815260200190815260200160002060009054906101000a900473ffffffffffffffffffffffffffffffffffffffff169050600073ffffffffffffffffffffffffffffffffffffffff168173ffffffffffffffffffffffffffffffffffffffff161415611bd1576040517f08c379a0000000000000000000000000000000000000000000000000000000008152600401611bc89061553b565b60405180910390fd5b80915050919050565b60008073ffffffffffffffffffffffffffffffffffffffff168273ffffffffffffffffffffffffffffffffffffffff161415611c4b576040517f08c379a0000000000000000000000000000000000000000000000000000000008152600401611c42906155cd565b60405180910390fd5b600360008373ffffffffffffffffffffffffffffffffffffffff1673ffffffffffffffffffffffffffffffffffffffff168152602001908152602001600020549050919050565b611c9a613412565b611ca46000613490565b565b600e5481565b6000600a60009054906101000a900473ffffffffffffffffffffffffffffffffffffffff16905090565b606060018054611ce590614e9c565b80601f0160208091040260200160405190810160405280929190818152602001828054611d1190614e9c565b8015611d5e5780601f10611d3357610100808354040283529160200191611d5e565b820191906000526020600020905b815481529060010190602001808311611d4157829003601f168201915b5050505050905090565b6011600182611d779190615495565b81548110611d8857611d87614e3e565b5b90600052602060002090600a020160030154341015611ddc576040517f08c379a0000000000000000000000000000000000000000000000000000000008152600401611dd390615639565b60405180910390fd5b6011600182611deb9190615495565b81548110611dfc57611dfb614e3e565b5b90600052602060002090600a020160010160009054906101000a900473ffffffffffffffffffffffffffffffffffffffff1673ffffffffffffffffffffffffffffffffffffffff163373ffffffffffffffffffffffffffffffffffffffff161415611e9c576040517f08c379a0000000000000000000000000000000000000000000000000000000008152600401611e93906156a5565b60405180910390fd5b600060646011600184611eaf9190615495565b81548110611ec057611ebf614e3e565b5b90600052602060002090600a02016004015434611edd91906156c5565b611ee7919061574e565b9050611f446011600184611efb9190615495565b81548110611f0c57611f0b614e3e565b5b90600052602060002090600a020160020160009054906101000a900473ffffffffffffffffffffffffffffffffffffffff1682613379565b611faa6011600184611f569190615495565b81548110611f6757611f66614e3e565b5b90600052602060002090600a020160010160009054906101000a900473ffffffffffffffffffffffffffffffffffffffff168234611fa59190615495565b613379565b600e6000815480929190611fbd90614efd565b91905055506010604051806101400160405280600e5481526020013373ffffffffffffffffffffffffffffffffffffffff16815260200160116001866120039190615495565b8154811061201457612013614e3e565b5b90600052602060002090600a020160020160009054906101000a900473ffffffffffffffffffffffffffffffffffffffff1673ffffffffffffffffffffffffffffffffffffffff16815260200134815260200160116001866120769190615495565b8154811061208757612086614e3e565b5b90600052602060002090600a020160040154815260200160116001866120ad9190615495565b815481106120be576120bd614e3e565b5b90600052602060002090600a020160050180546120da90614e9c565b80601f016020809104026020016040519081016040528092919081815260200182805461210690614e9c565b80156121535780601f1061212857610100808354040283529160200191612153565b820191906000526020600020905b81548152906001019060200180831161213657829003601f168201915b50505050508152602001601160018661216c9190615495565b8154811061217d5761217c614e3e565b5b90600052602060002090600a0201600601805461219990614e9c565b80601f01602080910402602001604051908101604052809291908181526020018280546121c590614e9c565b80156122125780601f106121e757610100808354040283529160200191612212565b820191906000526020600020905b8154815290600101906020018083116121f557829003601f168201915b50505050508152602001601160018661222b9190615495565b8154811061223c5761223b614e3e565b5b90600052602060002090600a0201600701805461225890614e9c565b80601f016020809104026020016040519081016040528092919081815260200182805461228490614e9c565b80156122d15780601f106122a6576101008083540402835291602001916122d1565b820191906000526020600020905b8154815290600101906020018083116122b457829003601f168201915b5050505050815260200142815260200160116001866122f09190615495565b8154811061230157612300614e3e565b5b90600052602060002090600a020160090160009054906101000a900460ff16151581525090806001815401808255809150506001900390600052602060002090600a02016000909190919091506000820151816000015560208201518160010160006101000a81548173ffffffffffffffffffffffffffffffffffffffff021916908373ffffffffffffffffffffffffffffffffffffffff16021790555060408201518160020160006101000a81548173ffffffffffffffffffffffffffffffffffffffff021916908373ffffffffffffffffffffffffffffffffffffffff160217905550606082015181600301556080820151816004015560a082015181600501908051906020019061241692919061425a565b5060c082015181600601908051906020019061243392919061425a565b5060e082015181600701908051906020019061245092919061425a565b5061010082015181600801556101208201518160090160006101000a81548160ff02191690831515021790555050503373ffffffffffffffffffffffffffffffffffffffff167fb9508407a6eccb191d8da3286f4173697cf95604e9ea192fe5ab7c862b5221f6600e543460116001876124ca9190615495565b815481106124db576124da614e3e565b5b90600052602060002090600a0201600701426040516124fd9493929190615814565b60405180910390a23360116001846125159190615495565b8154811061252657612525614e3e565b5b90600052602060002090600a020160010160006101000a81548173ffffffffffffffffffffffffffffffffffffffff021916908373ffffffffffffffffffffffffffffffffffffffff16021790555061257e82612c35565b505050565b61259561258e612f7e565b8383613556565b5050565b60008082116125dd576040517f08c379a00000000000000000000000000000000000000000000000000000000081526004016125d4906158ac565b60405180910390fd5b60116001846125ec9190615495565b815481106125fd576125fc614e3e565b5b90600052602060002090600a020160010160009054906101000a900473ffffffffffffffffffffffffffffffffffffffff1673ffffffffffffffffffffffffffffffffffffffff163373ffffffffffffffffffffffffffffffffffffffff161461269c576040517f08c379a0000000000000000000000000000000000000000000000000000000008152600401612693906156a5565b60405180910390fd5b8160116001856126ac9190615495565b815481106126bd576126bc614e3e565b5b90600052602060002090600a0201600301819055506001905092915050565b6126ed6126e7612f7e565b8361303f565b61272c576040517f08c379a00000000000000000000000000000000000000000000000000000000081526004016127239061516e565b60405180910390fd5b612738848484846136c3565b50505050565b606061274982612f12565b612788576040517f08c379a000000000000000000000000000000000000000000000000000000000815260040161277f9061593e565b60405180910390fd5b600061279261371f565b905060008151116127b257604051806020016040528060008152506127dd565b806127bc84613736565b6040516020016127cd92919061595e565b6040516020818303038152906040525b915050919050565b600c6020528060005260406000206000915054906101000a900473ffffffffffffffffffffffffffffffffffffffff1681565b60606011805480602002602001604051908101604052809291908181526020016000905b82821015612b1457838290600052602060002090600a020160405180610140016040529081600082015481526020016001820160009054906101000a900473ffffffffffffffffffffffffffffffffffffffff1673ffffffffffffffffffffffffffffffffffffffff1673ffffffffffffffffffffffffffffffffffffffff1681526020016002820160009054906101000a900473ffffffffffffffffffffffffffffffffffffffff1673ffffffffffffffffffffffffffffffffffffffff1673ffffffffffffffffffffffffffffffffffffffff168152602001600382015481526020016004820154815260200160058201805461293a90614e9c565b80601f016020809104026020016040519081016040528092919081815260200182805461296690614e9c565b80156129b35780601f10612988576101008083540402835291602001916129b3565b820191906000526020600020905b81548152906001019060200180831161299657829003601f168201915b505050505081526020016006820180546129cc90614e9c565b80601f01602080910402602001604051908101604052809291908181526020018280546129f890614e9c565b8015612a455780601f10612a1a57610100808354040283529160200191612a45565b820191906000526020600020905b815481529060010190602001808311612a2857829003601f168201915b50505050508152602001600782018054612a5e90614e9c565b80601f0160208091040260200160405190810160405280929190818152602001828054612a8a90614e9c565b8015612ad75780601f10612aac57610100808354040283529160200191612ad7565b820191906000526020600020905b815481529060010190602001808311612aba57829003601f168201915b50505050508152602001600882015481526020016009820160009054906101000a900460ff1615151515815250508152602001906001019061283c565b50505050905090565b6000600560008473ffffffffffffffffffffffffffffffffffffffff1673ffffffffffffffffffffffffffffffffffffffff16815260200190815260200160002060008373ffffffffffffffffffffffffffffffffffffffff1673ffffffffffffffffffffffffffffffffffffffff16815260200190815260200160002060009054906101000a900460ff16905092915050565b612bb9613412565b600073ffffffffffffffffffffffffffffffffffffffff168173ffffffffffffffffffffffffffffffffffffffff161415612c29576040517f08c379a0000000000000000000000000000000000000000000000000000000008152600401612c20906159f4565b60405180910390fd5b612c3281613490565b50565b60006011600183612c469190615495565b81548110612c5757612c56614e3e565b5b90600052602060002090600a020160010160009054906101000a900473ffffffffffffffffffffffffffffffffffffffff1673ffffffffffffffffffffffffffffffffffffffff163373ffffffffffffffffffffffffffffffffffffffff1614612cf6576040517f08c379a0000000000000000000000000000000000000000000000000000000008152600401612ced906156a5565b60405180910390fd5b600115156011600184612d099190615495565b81548110612d1a57612d19614e3e565b5b90600052602060002090600a020160090160009054906101000a900460ff1615151415612d905760006011600184612d529190615495565b81548110612d6357612d62614e3e565b5b90600052602060002090600a020160090160006101000a81548160ff021916908315150217905550612e27565b600015156011600184612da39190615495565b81548110612db457612db3614e3e565b5b90600052602060002090600a020160090160009054906101000a900460ff1615151415612e265760016011600184612dec9190615495565b81548110612dfd57612dfc614e3e565b5b90600052602060002090600a020160090160006101000a81548160ff0219169083151502179055505b5b60019050919050565b60007f80ac58cd000000000000000000000000000000000000000000000000000000007bffffffffffffffffffffffffffffffffffffffffffffffffffffffff1916827bffffffffffffffffffffffffffffffffffffffffffffffffffffffff19161480612efb57507f5b5e139f000000000000000000000000000000000000000000000000000000007bffffffffffffffffffffffffffffffffffffffffffffffffffffffff1916827bffffffffffffffffffffffffffffffffffffffffffffffffffffffff1916145b80612f0b5750612f0a8261380e565b5b9050919050565b60008073ffffffffffffffffffffffffffffffffffffffff166002600084815260200190815260200160002060009054906101000a900473ffffffffffffffffffffffffffffffffffffffff1673ffffffffffffffffffffffffffffffffffffffff1614159050919050565b600033905090565b816004600083815260200190815260200160002060006101000a81548173ffffffffffffffffffffffffffffffffffffffff021916908373ffffffffffffffffffffffffffffffffffffffff160217905550808273ffffffffffffffffffffffffffffffffffffffff16612ff983611b28565b73ffffffffffffffffffffffffffffffffffffffff167f8c5be1e5ebec7d5bd14f71427d1e84f3dd0314c0f7b2291e5b200ac8c7c3b92560405160405180910390a45050565b600061304a82612f12565b613089576040517f08c379a000000000000000000000000000000000000000000000000000000000815260040161308090615a86565b60405180910390fd5b600061309483611b28565b90508073ffffffffffffffffffffffffffffffffffffffff168473ffffffffffffffffffffffffffffffffffffffff16148061310357508373ffffffffffffffffffffffffffffffffffffffff166130eb84610dd2565b73ffffffffffffffffffffffffffffffffffffffff16145b8061311457506131138185612b1d565b5b91505092915050565b8273ffffffffffffffffffffffffffffffffffffffff1661313d82611b28565b73ffffffffffffffffffffffffffffffffffffffff1614613193576040517f08c379a000000000000000000000000000000000000000000000000000000000815260040161318a90615b18565b60405180910390fd5b600073ffffffffffffffffffffffffffffffffffffffff168273ffffffffffffffffffffffffffffffffffffffff161415613203576040517f08c379a00000000000000000000000000000000000000000000000000000000081526004016131fa90615baa565b60405180910390fd5b61320e838383613878565b613219600082612f86565b6001600360008573ffffffffffffffffffffffffffffffffffffffff1673ffffffffffffffffffffffffffffffffffffffff16815260200190815260200160002060008282546132699190615495565b925050819055506001600360008473ffffffffffffffffffffffffffffffffffffffff1673ffffffffffffffffffffffffffffffffffffffff16815260200190815260200160002060008282546132c09190615bca565b92505081905550816002600083815260200190815260200160002060006101000a81548173ffffffffffffffffffffffffffffffffffffffff021916908373ffffffffffffffffffffffffffffffffffffffff160217905550808273ffffffffffffffffffffffffffffffffffffffff168473ffffffffffffffffffffffffffffffffffffffff167fddf252ad1be2c89b69c2b068fc378daa952ba7f163c4a11628f55a4df523b3ef60405160405180910390a4505050565b60008273ffffffffffffffffffffffffffffffffffffffff168260405161339f90615c51565b60006040518083038185875af1925050503d80600081146133dc576040519150601f19603f3d011682016040523d82523d6000602084013e6133e1565b606091505b50509050806133ef57600080fd5b505050565b61340e82826040518060200160405280600081525061398c565b5050565b61341a612f7e565b73ffffffffffffffffffffffffffffffffffffffff16613438611cac565b73ffffffffffffffffffffffffffffffffffffffff161461348e576040517f08c379a000000000000000000000000000000000000000000000000000000000815260040161348590615cb2565b60405180910390fd5b565b6000600a60009054906101000a900473ffffffffffffffffffffffffffffffffffffffff16905081600a60006101000a81548173ffffffffffffffffffffffffffffffffffffffff021916908373ffffffffffffffffffffffffffffffffffffffff1602179055508173ffffffffffffffffffffffffffffffffffffffff168173ffffffffffffffffffffffffffffffffffffffff167f8be0079c531659141344cd1fd0a4f28419497f9722a3daafe3b4186f6b6457e060405160405180910390a35050565b8173ffffffffffffffffffffffffffffffffffffffff168373ffffffffffffffffffffffffffffffffffffffff1614156135c5576040517f08c379a00000000000000000000000000000000000000000000000000000000081526004016135bc90615d1e565b60405180910390fd5b80600560008573ffffffffffffffffffffffffffffffffffffffff1673ffffffffffffffffffffffffffffffffffffffff16815260200190815260200160002060008473ffffffffffffffffffffffffffffffffffffffff1673ffffffffffffffffffffffffffffffffffffffff16815260200190815260200160002060006101000a81548160ff0219169083151502179055508173ffffffffffffffffffffffffffffffffffffffff168373ffffffffffffffffffffffffffffffffffffffff167f17307eab39ab6107e8899845ad3d59bd9653f200f220920489ca2b5937696c31836040516136b69190614700565b60405180910390a3505050565b6136ce84848461311d565b6136da848484846139e7565b613719576040517f08c379a000000000000000000000000000000000000000000000000000000000815260040161371090615db0565b60405180910390fd5b50505050565b606060405180602001604052806000815250905090565b60606000600161374584613b7e565b01905060008167ffffffffffffffff811115613764576137636148fd565b5b6040519080825280601f01601f1916602001820160405280156137965781602001600182028036833780820191505090505b509050600082602001820190505b600115613803578080600190039150507f3031323334353637383961626364656600000000000000000000000000000000600a86061a8153600a85816137ed576137ec61571f565b5b04945060008514156137fe57613803565b6137a4565b819350505050919050565b60007f01ffc9a7000000000000000000000000000000000000000000000000000000007bffffffffffffffffffffffffffffffffffffffffffffffffffffffff1916827bffffffffffffffffffffffffffffffffffffffffffffffffffffffff1916149050919050565b613883838383613cd1565b600073ffffffffffffffffffffffffffffffffffffffff168373ffffffffffffffffffffffffffffffffffffffff1614156138c6576138c181613cd6565b613905565b8173ffffffffffffffffffffffffffffffffffffffff168373ffffffffffffffffffffffffffffffffffffffff1614613904576139038382613d1f565b5b5b600073ffffffffffffffffffffffffffffffffffffffff168273ffffffffffffffffffffffffffffffffffffffff1614156139485761394381613e8c565b613987565b8273ffffffffffffffffffffffffffffffffffffffff168273ffffffffffffffffffffffffffffffffffffffff1614613986576139858282613f5d565b5b5b505050565b6139968383613fdc565b6139a360008484846139e7565b6139e2576040517f08c379a00000000000000000000000000000000000000000000000000000000081526004016139d990615db0565b60405180910390fd5b505050565b6000613a088473ffffffffffffffffffffffffffffffffffffffff166141aa565b15613b71578373ffffffffffffffffffffffffffffffffffffffff1663150b7a02613a31612f7e565b8786866040518563ffffffff1660e01b8152600401613a539493929190615e25565b602060405180830381600087803b158015613a6d57600080fd5b505af1925050508015613a9e57506040513d601f19601f82011682018060405250810190613a9b9190615e86565b60015b613b21573d8060008114613ace576040519150601f19603f3d011682016040523d82523d6000602084013e613ad3565b606091505b50600081511415613b19576040517f08c379a0000000000000000000000000000000000000000000000000000000008152600401613b1090615db0565b60405180910390fd5b805181602001fd5b63150b7a0260e01b7bffffffffffffffffffffffffffffffffffffffffffffffffffffffff1916817bffffffffffffffffffffffffffffffffffffffffffffffffffffffff191614915050613b76565b600190505b949350505050565b600080600090507a184f03e93ff9f4daa797ed6e38ed64bf6a1f0100000000000000008310613bdc577a184f03e93ff9f4daa797ed6e38ed64bf6a1f0100000000000000008381613bd257613bd161571f565b5b0492506040810190505b6d04ee2d6d415b85acef81000000008310613c19576d04ee2d6d415b85acef81000000008381613c0f57613c0e61571f565b5b0492506020810190505b662386f26fc100008310613c4857662386f26fc100008381613c3e57613c3d61571f565b5b0492506010810190505b6305f5e1008310613c71576305f5e1008381613c6757613c6661571f565b5b0492506008810190505b6127108310613c96576127108381613c8c57613c8b61571f565b5b0492506004810190505b60648310613cb95760648381613caf57613cae61571f565b5b0492506002810190505b600a8310613cc8576001810190505b80915050919050565b505050565b6008805490506009600083815260200190815260200160002081905550600881908060018154018082558091505060019003906000526020600020016000909190919091505550565b60006001613d2c84611bda565b613d369190615495565b9050600060076000848152602001908152602001600020549050818114613e1b576000600660008673ffffffffffffffffffffffffffffffffffffffff1673ffffffffffffffffffffffffffffffffffffffff168152602001908152602001600020600084815260200190815260200160002054905080600660008773ffffffffffffffffffffffffffffffffffffffff1673ffffffffffffffffffffffffffffffffffffffff168152602001908152602001600020600084815260200190815260200160002081905550816007600083815260200190815260200160002081905550505b6007600084815260200190815260200160002060009055600660008573ffffffffffffffffffffffffffffffffffffffff1673ffffffffffffffffffffffffffffffffffffffff16815260200190815260200160002060008381526020019081526020016000206000905550505050565b60006001600880549050613ea09190615495565b9050600060096000848152602001908152602001600020549050600060088381548110613ed057613ecf614e3e565b5b906000526020600020015490508060088381548110613ef257613ef1614e3e565b5b906000526020600020018190555081600960008381526020019081526020016000208190555060096000858152602001908152602001600020600090556008805480613f4157613f40615eb3565b5b6001900381819060005260206000200160009055905550505050565b6000613f6883611bda565b905081600660008573ffffffffffffffffffffffffffffffffffffffff1673ffffffffffffffffffffffffffffffffffffffff168152602001908152602001600020600083815260200190815260200160002081905550806007600084815260200190815260200160002081905550505050565b600073ffffffffffffffffffffffffffffffffffffffff168273ffffffffffffffffffffffffffffffffffffffff16141561404c576040517f08c379a000000000000000000000000000000000000000000000000000000000815260040161404390615f2e565b60405180910390fd5b61405581612f12565b15614095576040517f08c379a000000000000000000000000000000000000000000000000000000000815260040161408c90615f9a565b60405180910390fd5b6140a160008383613878565b6001600360008473ffffffffffffffffffffffffffffffffffffffff1673ffffffffffffffffffffffffffffffffffffffff16815260200190815260200160002060008282546140f19190615bca565b92505081905550816002600083815260200190815260200160002060006101000a81548173ffffffffffffffffffffffffffffffffffffffff021916908373ffffffffffffffffffffffffffffffffffffffff160217905550808273ffffffffffffffffffffffffffffffffffffffff16600073ffffffffffffffffffffffffffffffffffffffff167fddf252ad1be2c89b69c2b068fc378daa952ba7f163c4a11628f55a4df523b3ef60405160405180910390a45050565b6000808273ffffffffffffffffffffffffffffffffffffffff163b119050919050565b8280546141d990614e9c565b90600052602060002090601f0160209004810192826141fb5760008555614249565b82601f1061420c5780548555614249565b8280016001018555821561424957600052602060002091601f016020900482015b8281111561424857825482559160010191906001019061422d565b5b5090506142569190614361565b5090565b82805461426690614e9c565b90600052602060002090601f01602090048101928261428857600085556142cf565b82601f106142a157805160ff19168380011785556142cf565b828001600101855582156142cf579182015b828111156142ce5782518255916020019190600101906142b3565b5b5090506142dc9190614361565b5090565b60405180610140016040528060008152602001600073ffffffffffffffffffffffffffffffffffffffff168152602001600073ffffffffffffffffffffffffffffffffffffffff1681526020016000815260200160008152602001606081526020016060815260200160608152602001600081526020016000151581525090565b5b8082111561437a576000816000905550600101614362565b5090565b600081519050919050565b600082825260208201905092915050565b6000819050602082019050919050565b6000819050919050565b6143bd816143aa565b82525050565b600073ffffffffffffffffffffffffffffffffffffffff82169050919050565b60006143ee826143c3565b9050919050565b6143fe816143e3565b82525050565b600081519050919050565b600082825260208201905092915050565b60005b8381101561443e578082015181840152602081019050614423565b8381111561444d576000848401525b50505050565b6000601f19601f8301169050919050565b600061446f82614404565b614479818561440f565b9350614489818560208601614420565b61449281614453565b840191505092915050565b60008115159050919050565b6144b28161449d565b82525050565b6000610140830160008301516144d160008601826143b4565b5060208301516144e460208601826143f5565b5060408301516144f760408601826143f5565b50606083015161450a60608601826143b4565b50608083015161451d60808601826143b4565b5060a083015184820360a08601526145358282614464565b91505060c083015184820360c086015261454f8282614464565b91505060e083015184820360e08601526145698282614464565b9150506101008301516145806101008601826143b4565b506101208301516145956101208601826144a9565b508091505092915050565b60006145ac83836144b8565b905092915050565b6000602082019050919050565b60006145cc8261437e565b6145d68185614389565b9350836020820285016145e88561439a565b8060005b85811015614624578484038952815161460585826145a0565b9450614610836145b4565b925060208a019950506001810190506145ec565b50829750879550505050505092915050565b6000602082019050818103600083015261465081846145c1565b905092915050565b6000604051905090565b600080fd5b600080fd5b60007fffffffff0000000000000000000000000000000000000000000000000000000082169050919050565b6146a18161466c565b81146146ac57600080fd5b50565b6000813590506146be81614698565b92915050565b6000602082840312156146da576146d9614662565b5b60006146e8848285016146af565b91505092915050565b6146fa8161449d565b82525050565b600060208201905061471560008301846146f1565b92915050565b614724816143aa565b82525050565b600060208201905061473f600083018461471b565b92915050565b600082825260208201905092915050565b600061476182614404565b61476b8185614745565b935061477b818560208601614420565b61478481614453565b840191505092915050565b600060208201905081810360008301526147a98184614756565b905092915050565b6147ba816143aa565b81146147c557600080fd5b50565b6000813590506147d7816147b1565b92915050565b6000602082840312156147f3576147f2614662565b5b6000614801848285016147c8565b91505092915050565b614813816143e3565b82525050565b600060208201905061482e600083018461480a565b92915050565b61483d816143e3565b811461484857600080fd5b50565b60008135905061485a81614834565b92915050565b6000806040838503121561487757614876614662565b5b60006148858582860161484b565b9250506020614896858286016147c8565b9150509250929050565b6000806000606084860312156148b9576148b8614662565b5b60006148c78682870161484b565b93505060206148d88682870161484b565b92505060406148e9868287016147c8565b9150509250925092565b600080fd5b600080fd5b7f4e487b7100000000000000000000000000000000000000000000000000000000600052604160045260246000fd5b61493582614453565b810181811067ffffffffffffffff82111715614954576149536148fd565b5b80604052505050565b6000614967614658565b9050614973828261492c565b919050565b600067ffffffffffffffff821115614993576149926148fd565b5b61499c82614453565b9050602081019050919050565b82818337600083830152505050565b60006149cb6149c684614978565b61495d565b9050828152602081018484840111156149e7576149e66148f8565b5b6149f28482856149a9565b509392505050565b600082601f830112614a0f57614a0e6148f3565b5b8135614a1f8482602086016149b8565b91505092915050565b600080600080600060a08688031215614a4457614a43614662565b5b600086013567ffffffffffffffff811115614a6257614a61614667565b5b614a6e888289016149fa565b955050602086013567ffffffffffffffff811115614a8f57614a8e614667565b5b614a9b888289016149fa565b945050604086013567ffffffffffffffff811115614abc57614abb614667565b5b614ac8888289016149fa565b9350506060614ad9888289016147c8565b9250506080614aea888289016147c8565b9150509295509295909350565b600061014083016000830151614b1060008601826143b4565b506020830151614b2360208601826143f5565b506040830151614b3660408601826143f5565b506060830151614b4960608601826143b4565b506080830151614b5c60808601826143b4565b5060a083015184820360a0860152614b748282614464565b91505060c083015184820360c0860152614b8e8282614464565b91505060e083015184820360e0860152614ba88282614464565b915050610100830151614bbf6101008601826143b4565b50610120830151614bd46101208601826144a9565b508091505092915050565b60006020820190508181036000830152614bf98184614af7565b905092915050565b600060208284031215614c1757614c16614662565b5b6000614c258482850161484b565b91505092915050565b614c378161449d565b8114614c4257600080fd5b50565b600081359050614c5481614c2e565b92915050565b60008060408385031215614c7157614c70614662565b5b6000614c7f8582860161484b565b9250506020614c9085828601614c45565b9150509250929050565b60008060408385031215614cb157614cb0614662565b5b6000614cbf858286016147c8565b9250506020614cd0858286016147c8565b9150509250929050565b600067ffffffffffffffff821115614cf557614cf46148fd565b5b614cfe82614453565b9050602081019050919050565b6000614d1e614d1984614cda565b61495d565b905082815260208101848484011115614d3a57614d396148f8565b5b614d458482856149a9565b509392505050565b600082601f830112614d6257614d616148f3565b5b8135614d72848260208601614d0b565b91505092915050565b60008060008060808587031215614d9557614d94614662565b5b6000614da38782880161484b565b9450506020614db48782880161484b565b9350506040614dc5878288016147c8565b925050606085013567ffffffffffffffff811115614de657614de5614667565b5b614df287828801614d4d565b91505092959194509250565b60008060408385031215614e1557614e14614662565b5b6000614e238582860161484b565b9250506020614e348582860161484b565b9150509250929050565b7f4e487b7100000000000000000000000000000000000000000000000000000000600052603260045260246000fd5b7f4e487b7100000000000000000000000000000000000000000000000000000000600052602260045260246000fd5b60006002820490506001821680614eb457607f821691505b60208210811415614ec857614ec7614e6d565b5b50919050565b7f4e487b7100000000000000000000000000000000000000000000000000000000600052601160045260246000fd5b6000614f08826143aa565b91507fffffffffffffffffffffffffffffffffffffffffffffffffffffffffffffffff821415614f3b57614f3a614ece565b5b600182019050919050565b7f4552433732313a20617070726f76656420717565727920666f72206e6f6e657860008201527f697374656e7420746f6b656e0000000000000000000000000000000000000000602082015250565b6000614fa2602c83614745565b9150614fad82614f46565b604082019050919050565b60006020820190508181036000830152614fd181614f95565b9050919050565b7f4552433732313a20617070726f76616c20746f2063757272656e74206f776e6560008201527f7200000000000000000000000000000000000000000000000000000000000000602082015250565b6000615034602183614745565b915061503f82614fd8565b604082019050919050565b6000602082019050818103600083015261506381615027565b9050919050565b7f4552433732313a20617070726f76652063616c6c6572206973206e6f74206f7760008201527f6e6572206e6f7220617070726f76656420666f7220616c6c0000000000000000602082015250565b60006150c6603883614745565b91506150d18261506a565b604082019050919050565b600060208201905081810360008301526150f5816150b9565b9050919050565b7f4552433732313a207472616e736665722063616c6c6572206973206e6f74206f60008201527f776e6572206e6f7220617070726f766564000000000000000000000000000000602082015250565b6000615158603183614745565b9150615163826150fc565b604082019050919050565b600060208201905081810360008301526151878161514b565b9050919050565b7f455243373231456e756d657261626c653a206f776e657220696e646578206f7560008201527f74206f6620626f756e6473000000000000000000000000000000000000000000602082015250565b60006151ea602b83614745565b91506151f58261518e565b604082019050919050565b60006020820190508181036000830152615219816151dd565b9050919050565b7f455243373231456e756d657261626c653a20676c6f62616c20696e646578206f60008201527f7574206f6620626f756e64730000000000000000000000000000000000000000602082015250565b600061527c602c83614745565b915061528782615220565b604082019050919050565b600060208201905081810360008301526152ab8161526f565b9050919050565b7f457468657220746f6f206c6f7720666f72206d696e74696e6721000000000000600082015250565b60006152e8601a83614745565b91506152f3826152b2565b602082019050919050565b60006020820190508181036000830152615317816152db565b9050919050565b600081905092915050565b600061533482614404565b61533e818561531e565b935061534e818560208601614420565b80840191505092915050565b60006153668284615329565b915081905092915050565b7f54686973204e465420697320616c7265616479206d696e746564210000000000600082015250565b60006153a7601b83614745565b91506153b282615371565b602082019050919050565b600060208201905081810360008301526153d68161539a565b9050919050565b7f53616c6573206e6f7420616c6c6f776564210000000000000000000000000000600082015250565b6000615413601283614745565b915061541e826153dd565b602082019050919050565b6000602082019050818103600083015261544281615406565b9050919050565b600060808201905061545e600083018761471b565b61546b602083018661471b565b818103604083015261547d8185614756565b905061548c606083018461471b565b95945050505050565b60006154a0826143aa565b91506154ab836143aa565b9250828210156154be576154bd614ece565b5b828203905092915050565b7f4552433732313a206f776e657220717565727920666f72206e6f6e657869737460008201527f656e7420746f6b656e0000000000000000000000000000000000000000000000602082015250565b6000615525602983614745565b9150615530826154c9565b604082019050919050565b6000602082019050818103600083015261555481615518565b9050919050565b7f4552433732313a2062616c616e636520717565727920666f7220746865207a6560008201527f726f206164647265737300000000000000000000000000000000000000000000602082015250565b60006155b7602a83614745565b91506155c28261555b565b604082019050919050565b600060208201905081810360008301526155e6816155aa565b9050919050565b7f457468657220746f6f206c6f7720666f72207075726368617365210000000000600082015250565b6000615623601b83614745565b915061562e826155ed565b602082019050919050565b6000602082019050818103600083015261565281615616565b9050919050565b7f4f7065726174696f6e204e6f7420416c6c6f7765642100000000000000000000600082015250565b600061568f601683614745565b915061569a82615659565b602082019050919050565b600060208201905081810360008301526156be81615682565b9050919050565b60006156d0826143aa565b91506156db836143aa565b9250817fffffffffffffffffffffffffffffffffffffffffffffffffffffffffffffffff048311821515161561571457615713614ece565b5b828202905092915050565b7f4e487b7100000000000000000000000000000000000000000000000000000000600052601260045260246000fd5b6000615759826143aa565b9150615764836143aa565b9250826157745761577361571f565b5b828204905092915050565b60008190508160005260206000209050919050565b600081546157a181614e9c565b6157ab8186614745565b945060018216600081146157c657600181146157d85761580b565b60ff198316865260208601935061580b565b6157e18561577f565b60005b83811015615803578154818901526001820191506020810190506157e4565b808801955050505b50505092915050565b6000608082019050615829600083018761471b565b615836602083018661471b565b81810360408301526158488185615794565b9050615857606083018461471b565b95945050505050565b7f457468657220746f6f206c6f7721000000000000000000000000000000000000600082015250565b6000615896600e83614745565b91506158a182615860565b602082019050919050565b600060208201905081810360008301526158c581615889565b9050919050565b7f4552433732314d657461646174613a2055524920717565727920666f72206e6f60008201527f6e6578697374656e7420746f6b656e0000000000000000000000000000000000602082015250565b6000615928602f83614745565b9150615933826158cc565b604082019050919050565b600060208201905081810360008301526159578161591b565b9050919050565b600061596a8285615329565b91506159768284615329565b91508190509392505050565b7f4f776e61626c653a206e6577206f776e657220697320746865207a65726f206160008201527f6464726573730000000000000000000000000000000000000000000000000000602082015250565b60006159de602683614745565b91506159e982615982565b604082019050919050565b60006020820190508181036000830152615a0d816159d1565b9050919050565b7f4552433732313a206f70657261746f7220717565727920666f72206e6f6e657860008201527f697374656e7420746f6b656e0000000000000000000000000000000000000000602082015250565b6000615a70602c83614745565b9150615a7b82615a14565b604082019050919050565b60006020820190508181036000830152615a9f81615a63565b9050919050565b7f4552433732313a207472616e73666572206f6620746f6b656e2074686174206960008201527f73206e6f74206f776e0000000000000000000000000000000000000000000000602082015250565b6000615b02602983614745565b9150615b0d82615aa6565b604082019050919050565b60006020820190508181036000830152615b3181615af5565b9050919050565b7f4552433732313a207472616e7366657220746f20746865207a65726f2061646460008201527f7265737300000000000000000000000000000000000000000000000000000000602082015250565b6000615b94602483614745565b9150615b9f82615b38565b604082019050919050565b60006020820190508181036000830152615bc381615b87565b9050919050565b6000615bd5826143aa565b9150615be0836143aa565b9250827fffffffffffffffffffffffffffffffffffffffffffffffffffffffffffffffff03821115615c1557615c14614ece565b5b828201905092915050565b600081905092915050565b50565b6000615c3b600083615c20565b9150615c4682615c2b565b600082019050919050565b6000615c5c82615c2e565b9150819050919050565b7f4f776e61626c653a2063616c6c6572206973206e6f7420746865206f776e6572600082015250565b6000615c9c602083614745565b9150615ca782615c66565b602082019050919050565b60006020820190508181036000830152615ccb81615c8f565b9050919050565b7f4552433732313a20617070726f766520746f2063616c6c657200000000000000600082015250565b6000615d08601983614745565b9150615d1382615cd2565b602082019050919050565b60006020820190508181036000830152615d3781615cfb565b9050919050565b7f4552433732313a207472616e7366657220746f206e6f6e20455243373231526560008201527f63656976657220696d706c656d656e7465720000000000000000000000000000602082015250565b6000615d9a603283614745565b9150615da582615d3e565b604082019050919050565b60006020820190508181036000830152615dc981615d8d565b9050919050565b600081519050919050565b600082825260208201905092915050565b6000615df782615dd0565b615e018185615ddb565b9350615e11818560208601614420565b615e1a81614453565b840191505092915050565b6000608082019050615e3a600083018761480a565b615e47602083018661480a565b615e54604083018561471b565b8181036060830152615e668184615dec565b905095945050505050565b600081519050615e8081614698565b92915050565b600060208284031215615e9c57615e9b614662565b5b6000615eaa84828501615e71565b91505092915050565b7f4e487b7100000000000000000000000000000000000000000000000000000000600052603160045260246000fd5b7f4552433732313a206d696e7420746f20746865207a65726f2061646472657373600082015250565b6000615f18602083614745565b9150615f2382615ee2565b602082019050919050565b60006020820190508181036000830152615f4781615f0b565b9050919050565b7f4552433732313a20746f6b656e20616c7265616479206d696e74656400000000600082015250565b6000615f84601c83614745565b9150615f8f82615f4e565b602082019050919050565b60006020820190508181036000830152615fb381615f77565b905091905056fea26469706673582212201f325476a6ab10b51acf6656b0238ca9d2e360e5a74094ea7a3ef771f727ce2464736f6c63430008090033",
  "immutableReferences": {},
  "source": "// SPDX-License-Identifier: MIT\r\npragma solidity >=0.7.0 <0.9.0;\r\n\r\nimport \"./ERC721.sol\";\r\nimport \"./ERC721Enumerable.sol\";\r\nimport \"@openzeppelin/contracts/access/Ownable.sol\";\r\n\r\ncontract PStoreNFTv2 is ERC721Enumerable, Ownable {\r\n\r\n    using Strings for uint256;\r\n    mapping(string => uint8) existingURIs;\r\n    mapping(uint256 => address) public holderOf;\r\n\r\n    uint256 public supply = 0;\r\n    uint256 public totalTx = 0;\r\n    uint256 public cost = 0.01 ether;\r\n\r\n    event Sale(\r\n        uint256 id,\r\n        address indexed owner,\r\n        uint256 cost,\r\n        string metadataURI,\r\n        uint256 timestamp\r\n    );\r\n\r\n    struct TransactionStruct {\r\n        uint256 id;\r\n        address owner;\r\n        address creator;\r\n        uint256 cost;\r\n        uint256 royaltyPercent;\r\n        string title;\r\n        string description;\r\n        string metadataURI;\r\n        uint256 timestamp;\r\n        bool isListed;\r\n    }\r\n\r\n    TransactionStruct[] transactions;\r\n    TransactionStruct[] minted;\r\n    TransactionStruct[] listed;\r\n\r\n    constructor(\r\n        string memory _name,\r\n        string memory _symbol\r\n    ) ERC721(_name, _symbol) {\r\n    }\r\n\r\n    function payToMint(\r\n        string memory title,\r\n        string memory description,\r\n        string memory metadataURI,\r\n        uint256 salesPrice,\r\n        uint256 royaltyPercent\r\n    ) external payable {\r\n        require(msg.value >= cost, \"Ether too low for minting!\");\r\n        require(existingURIs[metadataURI] == 0, \"This NFT is already minted!\");\r\n        require(msg.sender != owner(), \"Sales not allowed!\");\r\n                       \r\n        payTo(owner(), msg.value);\r\n\r\n        supply++;\r\n\r\n        minted.push(\r\n            TransactionStruct(\r\n                supply,\r\n                msg.sender,\r\n                msg.sender,\r\n                salesPrice,\r\n                royaltyPercent,\r\n                title,\r\n                description,\r\n                metadataURI,\r\n                block.timestamp,\r\n                true\r\n            )\r\n        );\r\n\r\n        emit Sale(\r\n            supply,\r\n            msg.sender,\r\n            msg.value,\r\n            metadataURI,\r\n            block.timestamp\r\n        );\r\n\r\n        _safeMint(msg.sender, supply);\r\n        existingURIs[metadataURI] = 1;\r\n        holderOf[supply] = msg.sender;\r\n    }\r\n\r\n    function payToBuy(uint256 id) external payable {\r\n        require(msg.value >= minted[id - 1].cost, \"Ether too low for purchase!\");\r\n        require(msg.sender != minted[id - 1].owner, \"Operation Not Allowed!\");\r\n\r\n        uint256 royalty = (msg.value * minted[id-1].royaltyPercent) / 100;\r\n        payTo(minted[id - 1].creator, royalty); // kalo creatornya sama dengan owner maka dia mendapatkan 100% hasil penjualan\r\n        payTo(minted[id - 1].owner, (msg.value - royalty));\r\n\r\n        totalTx++;\r\n\r\n        transactions.push(\r\n            TransactionStruct(\r\n                totalTx,\r\n                msg.sender,\r\n                minted[id - 1].creator,\r\n                msg.value,\r\n                minted[id - 1].royaltyPercent,\r\n                minted[id - 1].title,\r\n                minted[id - 1].description,\r\n                minted[id - 1].metadataURI,\r\n                block.timestamp,\r\n                minted[id - 1].isListed\r\n            )\r\n        );\r\n\r\n        emit Sale(\r\n            totalTx,\r\n            msg.sender,\r\n            msg.value,\r\n            minted[id - 1].metadataURI,\r\n            block.timestamp\r\n        );\r\n\r\n        minted[id - 1].owner = msg.sender;\r\n        setListed(id);\r\n    }\r\n\r\n    function changePrice(uint256 id, uint256 newPrice) external returns (bool) {\r\n        require(newPrice > 0 ether, \"Ether too low!\");\r\n        require(msg.sender == minted[id - 1].owner, \"Operation Not Allowed!\");\r\n\r\n        minted[id - 1].cost = newPrice;\r\n        return true;\r\n    }\r\n\r\n    function payTo(address to, uint256 amount) internal {\r\n        (bool success, ) = payable(to).call{value: amount}(\"\");\r\n        require(success);\r\n    }\r\n\r\n\r\n    function setListed(uint256 id) public returns (bool) {\r\n        require(msg.sender == minted[id - 1].owner, \"Operation Not Allowed!\");\r\n\r\n        if (minted[id - 1].isListed == true) {\r\n            minted[id - 1].isListed = false;\r\n        } else if (minted[id - 1].isListed == false) {\r\n            minted[id - 1].isListed = true;\r\n        }\r\n        return true;\r\n    }\r\n\r\n    function getAllNFTs() external view returns (TransactionStruct[] memory) {\r\n        return minted;\r\n    }\r\n\r\n    function getListedNFTs() external returns (TransactionStruct[] memory) {\r\n        for (uint256 i = 0; i < minted.length; i++){\r\n            if (minted[i].isListed == true){\r\n                listed.push(\r\n                    minted[i]\r\n                );\r\n            }\r\n        }\r\n        return listed;\r\n    }\r\n\r\n    function getNFT(uint256 id) external view returns (TransactionStruct memory) {\r\n        return minted[id - 1];\r\n    }\r\n\r\n    function getAllTransactions() external view returns (TransactionStruct[] memory) {\r\n        return transactions;\r\n    }\r\n}",
  "sourcePath": "D:\\KULIAH\\KP\\Projects\\jual-beli-nft\\src\\contracts\\PStoreNFTv2.sol",
  "compiler": {
    "name": "solc",
    "version": "0.8.9+commit.e5eed63a.Emscripten.clang"
  },
  "schemaVersion": "3.4.11",
  "updatedAt": "2023-03-01T09:01:15.782Z",
  "networkType": "ethereum",
  "devdoc": {
    "kind": "dev",
    "methods": {
      "approve(address,uint256)": {
        "details": "See {IERC721-approve}."
      },
      "balanceOf(address)": {
        "details": "See {IERC721-balanceOf}."
      },
      "getApproved(uint256)": {
        "details": "See {IERC721-getApproved}."
      },
      "isApprovedForAll(address,address)": {
        "details": "See {IERC721-isApprovedForAll}."
      },
      "name()": {
        "details": "See {IERC721Metadata-name}."
      },
      "owner()": {
        "details": "Returns the address of the current owner."
      },
      "ownerOf(uint256)": {
        "details": "See {IERC721-ownerOf}."
      },
      "renounceOwnership()": {
        "details": "Leaves the contract without owner. It will not be possible to call `onlyOwner` functions anymore. Can only be called by the current owner. NOTE: Renouncing ownership will leave the contract without an owner, thereby removing any functionality that is only available to the owner."
      },
      "safeTransferFrom(address,address,uint256)": {
        "details": "See {IERC721-safeTransferFrom}."
      },
      "safeTransferFrom(address,address,uint256,bytes)": {
        "details": "See {IERC721-safeTransferFrom}."
      },
      "setApprovalForAll(address,bool)": {
        "details": "See {IERC721-setApprovalForAll}."
      },
      "supportsInterface(bytes4)": {
        "details": "See {IERC165-supportsInterface}."
      },
      "symbol()": {
        "details": "See {IERC721Metadata-symbol}."
      },
      "tokenByIndex(uint256)": {
        "details": "See {IERC721Enumerable-tokenByIndex}."
      },
      "tokenOfOwnerByIndex(address,uint256)": {
        "details": "See {IERC721Enumerable-tokenOfOwnerByIndex}."
      },
      "tokenURI(uint256)": {
        "details": "See {IERC721Metadata-tokenURI}."
      },
      "totalSupply()": {
        "details": "See {IERC721Enumerable-totalSupply}."
      },
      "transferFrom(address,address,uint256)": {
        "details": "See {IERC721-transferFrom}."
      },
      "transferOwnership(address)": {
        "details": "Transfers ownership of the contract to a new account (`newOwner`). Can only be called by the current owner."
      }
    },
    "version": 1
  },
  "userdoc": {
    "kind": "user",
    "methods": {},
    "version": 1
  }
}