{
  "_format": "hh-sol-artifact-1",
  "contractName": "PStoreNFTv2",
  "sourceName": "contracts/PStoreNFTv2.sol",
  "abi": [
    {
      "inputs": [
        {
          "internalType": "string",
          "name": "_name",
          "type": "string"
        },
        {
          "internalType": "string",
          "name": "_symbol",
          "type": "string"
        }
      ],
      "stateMutability": "nonpayable",
      "type": "constructor"
    },
    {
      "anonymous": false,
      "inputs": [
        {
          "indexed": true,
          "internalType": "address",
          "name": "owner",
          "type": "address"
        },
        {
          "indexed": true,
          "internalType": "address",
          "name": "approved",
          "type": "address"
        },
        {
          "indexed": true,
          "internalType": "uint256",
          "name": "tokenId",
          "type": "uint256"
        }
      ],
      "name": "Approval",
      "type": "event"
    },
    {
      "anonymous": false,
      "inputs": [
        {
          "indexed": true,
          "internalType": "address",
          "name": "owner",
          "type": "address"
        },
        {
          "indexed": true,
          "internalType": "address",
          "name": "operator",
          "type": "address"
        },
        {
          "indexed": false,
          "internalType": "bool",
          "name": "approved",
          "type": "bool"
        }
      ],
      "name": "ApprovalForAll",
      "type": "event"
    },
    {
      "anonymous": false,
      "inputs": [
        {
          "indexed": true,
          "internalType": "address",
          "name": "previousOwner",
          "type": "address"
        },
        {
          "indexed": true,
          "internalType": "address",
          "name": "newOwner",
          "type": "address"
        }
      ],
      "name": "OwnershipTransferred",
      "type": "event"
    },
    {
      "anonymous": false,
      "inputs": [
        {
          "indexed": false,
          "internalType": "uint256",
          "name": "id",
          "type": "uint256"
        },
        {
          "indexed": true,
          "internalType": "address",
          "name": "owner",
          "type": "address"
        },
        {
          "indexed": false,
          "internalType": "uint256",
          "name": "cost",
          "type": "uint256"
        },
        {
          "indexed": false,
          "internalType": "uint256",
          "name": "goesToCampaignFund",
          "type": "uint256"
        },
        {
          "indexed": false,
          "internalType": "string",
          "name": "metadataURI",
          "type": "string"
        },
        {
          "indexed": false,
          "internalType": "uint256",
          "name": "timestamp",
          "type": "uint256"
        }
      ],
      "name": "Sale",
      "type": "event"
    },
    {
      "anonymous": false,
      "inputs": [
        {
          "indexed": true,
          "internalType": "address",
          "name": "from",
          "type": "address"
        },
        {
          "indexed": true,
          "internalType": "address",
          "name": "to",
          "type": "address"
        },
        {
          "indexed": true,
          "internalType": "uint256",
          "name": "tokenId",
          "type": "uint256"
        }
      ],
      "name": "Transfer",
      "type": "event"
    },
    {
      "inputs": [
        {
          "internalType": "address",
          "name": "to",
          "type": "address"
        },
        {
          "internalType": "uint256",
          "name": "tokenId",
          "type": "uint256"
        }
      ],
      "name": "approve",
      "outputs": [],
      "stateMutability": "nonpayable",
      "type": "function"
    },
    {
      "inputs": [
        {
          "internalType": "address",
          "name": "owner",
          "type": "address"
        }
      ],
      "name": "balanceOf",
      "outputs": [
        {
          "internalType": "uint256",
          "name": "",
          "type": "uint256"
        }
      ],
      "stateMutability": "view",
      "type": "function"
    },
    {
      "inputs": [
        {
          "internalType": "uint256",
          "name": "id",
          "type": "uint256"
        },
        {
          "internalType": "uint256",
          "name": "newPrice",
          "type": "uint256"
        }
      ],
      "name": "changePrice",
      "outputs": [
        {
          "internalType": "bool",
          "name": "",
          "type": "bool"
        }
      ],
      "stateMutability": "nonpayable",
      "type": "function"
    },
    {
      "inputs": [],
      "name": "cost",
      "outputs": [
        {
          "internalType": "uint256",
          "name": "",
          "type": "uint256"
        }
      ],
      "stateMutability": "view",
      "type": "function"
    },
    {
      "inputs": [],
      "name": "getAllNFTs",
      "outputs": [
        {
          "components": [
            {
              "internalType": "uint256",
              "name": "id",
              "type": "uint256"
            },
            {
              "internalType": "address",
              "name": "owner",
              "type": "address"
            },
            {
              "internalType": "address",
              "name": "creator",
              "type": "address"
            },
            {
              "internalType": "address",
              "name": "campaignAddress",
              "type": "address"
            },
            {
              "internalType": "uint256",
              "name": "cost",
              "type": "uint256"
            },
            {
              "internalType": "uint256",
              "name": "royaltyPercent",
              "type": "uint256"
            },
            {
              "internalType": "string",
              "name": "title",
              "type": "string"
            },
            {
              "internalType": "string",
              "name": "campaignName",
              "type": "string"
            },
            {
              "internalType": "string",
              "name": "description",
              "type": "string"
            },
            {
              "internalType": "string",
              "name": "metadataURI",
              "type": "string"
            },
            {
              "internalType": "uint256",
              "name": "timestamp",
              "type": "uint256"
            },
            {
              "internalType": "bool",
              "name": "isListed",
              "type": "bool"
            }
          ],
          "internalType": "struct PStoreNFTv2.TransactionStruct[]",
          "name": "",
          "type": "tuple[]"
        }
      ],
      "stateMutability": "view",
      "type": "function"
    },
    {
      "inputs": [],
      "name": "getAllTransactions",
      "outputs": [
        {
          "components": [
            {
              "internalType": "uint256",
              "name": "id",
              "type": "uint256"
            },
            {
              "internalType": "address",
              "name": "owner",
              "type": "address"
            },
            {
              "internalType": "address",
              "name": "creator",
              "type": "address"
            },
            {
              "internalType": "address",
              "name": "campaignAddress",
              "type": "address"
            },
            {
              "internalType": "uint256",
              "name": "cost",
              "type": "uint256"
            },
            {
              "internalType": "uint256",
              "name": "royaltyPercent",
              "type": "uint256"
            },
            {
              "internalType": "string",
              "name": "title",
              "type": "string"
            },
            {
              "internalType": "string",
              "name": "campaignName",
              "type": "string"
            },
            {
              "internalType": "string",
              "name": "description",
              "type": "string"
            },
            {
              "internalType": "string",
              "name": "metadataURI",
              "type": "string"
            },
            {
              "internalType": "uint256",
              "name": "timestamp",
              "type": "uint256"
            },
            {
              "internalType": "bool",
              "name": "isListed",
              "type": "bool"
            }
          ],
          "internalType": "struct PStoreNFTv2.TransactionStruct[]",
          "name": "",
          "type": "tuple[]"
        }
      ],
      "stateMutability": "view",
      "type": "function"
    },
    {
      "inputs": [
        {
          "internalType": "uint256",
          "name": "tokenId",
          "type": "uint256"
        }
      ],
      "name": "getApproved",
      "outputs": [
        {
          "internalType": "address",
          "name": "",
          "type": "address"
        }
      ],
      "stateMutability": "view",
      "type": "function"
    },
    {
      "inputs": [],
      "name": "getListedNFTs",
      "outputs": [
        {
          "components": [
            {
              "internalType": "uint256",
              "name": "id",
              "type": "uint256"
            },
            {
              "internalType": "address",
              "name": "owner",
              "type": "address"
            },
            {
              "internalType": "address",
              "name": "creator",
              "type": "address"
            },
            {
              "internalType": "address",
              "name": "campaignAddress",
              "type": "address"
            },
            {
              "internalType": "uint256",
              "name": "cost",
              "type": "uint256"
            },
            {
              "internalType": "uint256",
              "name": "royaltyPercent",
              "type": "uint256"
            },
            {
              "internalType": "string",
              "name": "title",
              "type": "string"
            },
            {
              "internalType": "string",
              "name": "campaignName",
              "type": "string"
            },
            {
              "internalType": "string",
              "name": "description",
              "type": "string"
            },
            {
              "internalType": "string",
              "name": "metadataURI",
              "type": "string"
            },
            {
              "internalType": "uint256",
              "name": "timestamp",
              "type": "uint256"
            },
            {
              "internalType": "bool",
              "name": "isListed",
              "type": "bool"
            }
          ],
          "internalType": "struct PStoreNFTv2.TransactionStruct[]",
          "name": "",
          "type": "tuple[]"
        }
      ],
      "stateMutability": "nonpayable",
      "type": "function"
    },
    {
      "inputs": [
        {
          "internalType": "uint256",
          "name": "id",
          "type": "uint256"
        }
      ],
      "name": "getNFT",
      "outputs": [
        {
          "components": [
            {
              "internalType": "uint256",
              "name": "id",
              "type": "uint256"
            },
            {
              "internalType": "address",
              "name": "owner",
              "type": "address"
            },
            {
              "internalType": "address",
              "name": "creator",
              "type": "address"
            },
            {
              "internalType": "address",
              "name": "campaignAddress",
              "type": "address"
            },
            {
              "internalType": "uint256",
              "name": "cost",
              "type": "uint256"
            },
            {
              "internalType": "uint256",
              "name": "royaltyPercent",
              "type": "uint256"
            },
            {
              "internalType": "string",
              "name": "title",
              "type": "string"
            },
            {
              "internalType": "string",
              "name": "campaignName",
              "type": "string"
            },
            {
              "internalType": "string",
              "name": "description",
              "type": "string"
            },
            {
              "internalType": "string",
              "name": "metadataURI",
              "type": "string"
            },
            {
              "internalType": "uint256",
              "name": "timestamp",
              "type": "uint256"
            },
            {
              "internalType": "bool",
              "name": "isListed",
              "type": "bool"
            }
          ],
          "internalType": "struct PStoreNFTv2.TransactionStruct",
          "name": "",
          "type": "tuple"
        }
      ],
      "stateMutability": "view",
      "type": "function"
    },
    {
      "inputs": [
        {
          "internalType": "uint256",
          "name": "",
          "type": "uint256"
        }
      ],
      "name": "holderOf",
      "outputs": [
        {
          "internalType": "address",
          "name": "",
          "type": "address"
        }
      ],
      "stateMutability": "view",
      "type": "function"
    },
    {
      "inputs": [
        {
          "internalType": "address",
          "name": "owner",
          "type": "address"
        },
        {
          "internalType": "address",
          "name": "operator",
          "type": "address"
        }
      ],
      "name": "isApprovedForAll",
      "outputs": [
        {
          "internalType": "bool",
          "name": "",
          "type": "bool"
        }
      ],
      "stateMutability": "view",
      "type": "function"
    },
    {
      "inputs": [],
      "name": "name",
      "outputs": [
        {
          "internalType": "string",
          "name": "",
          "type": "string"
        }
      ],
      "stateMutability": "view",
      "type": "function"
    },
    {
      "inputs": [],
      "name": "owner",
      "outputs": [
        {
          "internalType": "address",
          "name": "",
          "type": "address"
        }
      ],
      "stateMutability": "view",
      "type": "function"
    },
    {
      "inputs": [
        {
          "internalType": "uint256",
          "name": "tokenId",
          "type": "uint256"
        }
      ],
      "name": "ownerOf",
      "outputs": [
        {
          "internalType": "address",
          "name": "",
          "type": "address"
        }
      ],
      "stateMutability": "view",
      "type": "function"
    },
    {
      "inputs": [
        {
          "internalType": "uint256",
          "name": "id",
          "type": "uint256"
        }
      ],
      "name": "payToBuy",
      "outputs": [],
      "stateMutability": "payable",
      "type": "function"
    },
    {
      "inputs": [
        {
          "internalType": "string",
          "name": "title",
          "type": "string"
        },
        {
          "internalType": "string",
          "name": "description",
          "type": "string"
        },
        {
          "internalType": "string",
          "name": "metadataURI",
          "type": "string"
        },
        {
          "internalType": "string",
          "name": "campaignName",
          "type": "string"
        },
        {
          "internalType": "address",
          "name": "campaignAddress",
          "type": "address"
        },
        {
          "internalType": "uint256",
          "name": "salesPrice",
          "type": "uint256"
        },
        {
          "internalType": "uint256",
          "name": "royaltyPercent",
          "type": "uint256"
        }
      ],
      "name": "payToMint",
      "outputs": [],
      "stateMutability": "payable",
      "type": "function"
    },
    {
      "inputs": [],
      "name": "renounceOwnership",
      "outputs": [],
      "stateMutability": "nonpayable",
      "type": "function"
    },
    {
      "inputs": [
        {
          "internalType": "address",
          "name": "from",
          "type": "address"
        },
        {
          "internalType": "address",
          "name": "to",
          "type": "address"
        },
        {
          "internalType": "uint256",
          "name": "tokenId",
          "type": "uint256"
        }
      ],
      "name": "safeTransferFrom",
      "outputs": [],
      "stateMutability": "payable",
      "type": "function"
    },
    {
      "inputs": [
        {
          "internalType": "address",
          "name": "from",
          "type": "address"
        },
        {
          "internalType": "address",
          "name": "to",
          "type": "address"
        },
        {
          "internalType": "uint256",
          "name": "tokenId",
          "type": "uint256"
        },
        {
          "internalType": "bytes",
          "name": "_data",
          "type": "bytes"
        }
      ],
      "name": "safeTransferFrom",
      "outputs": [],
      "stateMutability": "payable",
      "type": "function"
    },
    {
      "inputs": [
        {
          "internalType": "address",
          "name": "operator",
          "type": "address"
        },
        {
          "internalType": "bool",
          "name": "approved",
          "type": "bool"
        }
      ],
      "name": "setApprovalForAll",
      "outputs": [],
      "stateMutability": "nonpayable",
      "type": "function"
    },
    {
      "inputs": [
        {
          "internalType": "uint256",
          "name": "id",
          "type": "uint256"
        }
      ],
      "name": "setListed",
      "outputs": [
        {
          "internalType": "bool",
          "name": "",
          "type": "bool"
        }
      ],
      "stateMutability": "nonpayable",
      "type": "function"
    },
    {
      "inputs": [],
      "name": "supply",
      "outputs": [
        {
          "internalType": "uint256",
          "name": "",
          "type": "uint256"
        }
      ],
      "stateMutability": "view",
      "type": "function"
    },
    {
      "inputs": [
        {
          "internalType": "bytes4",
          "name": "interfaceId",
          "type": "bytes4"
        }
      ],
      "name": "supportsInterface",
      "outputs": [
        {
          "internalType": "bool",
          "name": "",
          "type": "bool"
        }
      ],
      "stateMutability": "view",
      "type": "function"
    },
    {
      "inputs": [],
      "name": "symbol",
      "outputs": [
        {
          "internalType": "string",
          "name": "",
          "type": "string"
        }
      ],
      "stateMutability": "view",
      "type": "function"
    },
    {
      "inputs": [
        {
          "internalType": "uint256",
          "name": "index",
          "type": "uint256"
        }
      ],
      "name": "tokenByIndex",
      "outputs": [
        {
          "internalType": "uint256",
          "name": "",
          "type": "uint256"
        }
      ],
      "stateMutability": "view",
      "type": "function"
    },
    {
      "inputs": [
        {
          "internalType": "address",
          "name": "owner",
          "type": "address"
        },
        {
          "internalType": "uint256",
          "name": "index",
          "type": "uint256"
        }
      ],
      "name": "tokenOfOwnerByIndex",
      "outputs": [
        {
          "internalType": "uint256",
          "name": "",
          "type": "uint256"
        }
      ],
      "stateMutability": "view",
      "type": "function"
    },
    {
      "inputs": [
        {
          "internalType": "uint256",
          "name": "tokenId",
          "type": "uint256"
        }
      ],
      "name": "tokenURI",
      "outputs": [
        {
          "internalType": "string",
          "name": "",
          "type": "string"
        }
      ],
      "stateMutability": "view",
      "type": "function"
    },
    {
      "inputs": [],
      "name": "totalSupply",
      "outputs": [
        {
          "internalType": "uint256",
          "name": "",
          "type": "uint256"
        }
      ],
      "stateMutability": "view",
      "type": "function"
    },
    {
      "inputs": [],
      "name": "totalTx",
      "outputs": [
        {
          "internalType": "uint256",
          "name": "",
          "type": "uint256"
        }
      ],
      "stateMutability": "view",
      "type": "function"
    },
    {
      "inputs": [
        {
          "internalType": "address",
          "name": "from",
          "type": "address"
        },
        {
          "internalType": "address",
          "name": "to",
          "type": "address"
        },
        {
          "internalType": "uint256",
          "name": "tokenId",
          "type": "uint256"
        }
      ],
      "name": "transferFrom",
      "outputs": [],
      "stateMutability": "payable",
      "type": "function"
    },
    {
      "inputs": [
        {
          "internalType": "address",
          "name": "newOwner",
          "type": "address"
        }
      ],
      "name": "transferOwnership",
      "outputs": [],
      "stateMutability": "nonpayable",
      "type": "function"
    }
  ],
  "bytecode": "0x60806040526000600d556000600e55662386f26fc10000600f553480156200002657600080fd5b506040516200455e3803806200455e8339810160408190526200004991620001a8565b81816000620000598382620002a1565b506001620000688282620002a1565b505050620000856200007f6200008d60201b60201c565b62000091565b50506200036d565b3390565b600a80546001600160a01b038381166001600160a01b0319831681179093556040519116919082907f8be0079c531659141344cd1fd0a4f28419497f9722a3daafe3b4186f6b6457e090600090a35050565b634e487b7160e01b600052604160045260246000fd5b600082601f8301126200010b57600080fd5b81516001600160401b0380821115620001285762000128620000e3565b604051601f8301601f19908116603f01168101908282118183101715620001535762000153620000e3565b816040528381526020925086838588010111156200017057600080fd5b600091505b8382101562000194578582018301518183018401529082019062000175565b600093810190920192909252949350505050565b60008060408385031215620001bc57600080fd5b82516001600160401b0380821115620001d457600080fd5b620001e286838701620000f9565b93506020850151915080821115620001f957600080fd5b506200020885828601620000f9565b9150509250929050565b600181811c908216806200022757607f821691505b6020821081036200024857634e487b7160e01b600052602260045260246000fd5b50919050565b601f8211156200029c57600081815260208120601f850160051c81016020861015620002775750805b601f850160051c820191505b81811015620002985782815560010162000283565b5050505b505050565b81516001600160401b03811115620002bd57620002bd620000e3565b620002d581620002ce845462000212565b846200024e565b602080601f8311600181146200030d5760008415620002f45750858301515b600019600386901b1c1916600185901b17855562000298565b600085815260208120601f198616915b828110156200033e578886015182559484019460019091019084016200031d565b50858210156200035d5787850151600019600388901b60f8161c191681555b5050505050600190811b01905550565b6141e1806200037d6000396000f3fe6080604052600436106101d85760003560e01c80636352211e11610102578063b3de019c11610095578063e0391b0911610064578063e0391b0914610518578063e985e9c51461052d578063f2fde38b14610576578063ff8460381461059657600080fd5b8063b3de019c1461048f578063b88d4fde146104af578063c87b56dd146104c2578063dbacc237146104e257600080fd5b80638da5cb5b116100d15780638da5cb5b1461042957806395d89b41146104475780639ba4b0171461045c578063a22cb4651461046f57600080fd5b80636352211e146103be57806370a08231146103de578063715018a6146103fe5780637220cf391461041357600080fd5b806318160ddd1161017a57806342842e0e1161014957806342842e0e1461034b57806342d887ad1461035e5780634f6ccce714610371578063576f7ea71461039157600080fd5b806318160ddd146102ee57806323b872dd1461030357806327506f53146103165780632f745c591461032b57600080fd5b806306fdde03116101b657806306fdde031461025c578063081812fc1461027e578063095ea7b3146102b657806313faede6146102d857600080fd5b8063012386f0146101dd57806301ffc9a714610208578063047fc9aa14610238575b600080fd5b3480156101e957600080fd5b506101f26105b6565b6040516101ff919061394f565b60405180910390f35b34801561021457600080fd5b506102286102233660046139c7565b610a3d565b60405190151581526020016101ff565b34801561024457600080fd5b5061024e600d5481565b6040519081526020016101ff565b34801561026857600080fd5b50610271610a81565b6040516101ff91906139e4565b34801561028a57600080fd5b5061029e6102993660046139f7565b610b13565b6040516001600160a01b0390911681526020016101ff565b3480156102c257600080fd5b506102d66102d1366004613a2c565b610bad565b005b3480156102e457600080fd5b5061024e600f5481565b3480156102fa57600080fd5b5060085461024e565b6102d6610311366004613a56565b610cde565b34801561032257600080fd5b506101f2610d65565b34801561033757600080fd5b5061024e610346366004613a2c565b611076565b6102d6610359366004613a56565b61111e565b6102d661036c366004613b3e565b611139565b34801561037d57600080fd5b5061024e61038c3660046139f7565b611589565b34801561039d57600080fd5b506103b16103ac3660046139f7565b61162d565b6040516101ff9190613c0f565b3480156103ca57600080fd5b5061029e6103d93660046139f7565b6119a3565b3480156103ea57600080fd5b5061024e6103f9366004613c22565b611a2e565b34801561040a57600080fd5b506102d6611ac8565b34801561041f57600080fd5b5061024e600e5481565b34801561043557600080fd5b50600a546001600160a01b031661029e565b34801561045357600080fd5b50610271611adc565b6102d661046a3660046139f7565b611aeb565b34801561047b57600080fd5b506102d661048a366004613c3d565b6122f6565b34801561049b57600080fd5b506102286104aa366004613c79565b612305565b6102d66104bd366004613c9b565b612419565b3480156104ce57600080fd5b506102716104dd3660046139f7565b6124a7565b3480156104ee57600080fd5b5061029e6104fd3660046139f7565b600c602052600090815260409020546001600160a01b031681565b34801561052457600080fd5b506101f261259d565b34801561053957600080fd5b50610228610548366004613d17565b6001600160a01b03918216600090815260056020908152604080832093909416825291909152205460ff1690565b34801561058257600080fd5b506102d6610591366004613c22565b6128ae565b3480156105a257600080fd5b506102286105b13660046139f7565b61293e565b606060005b60115481101561072457601181815481106105d8576105d8613d4a565b60009182526020909120600b600c90920201015460ff1615156001036107125760126011828154811061060d5761060d613d4a565b6000918252602080832084546001818101875595855291909320600c9283029093018054919092029092019182558281015492820180546001600160a01b03199081166001600160a01b039586161790915560028083015490840180548316918616919091179055600380830154908401805490921694169390931790925560048083015490820155600580830154908201556006808201906106b290840182613de8565b506007818101906106c590840182613de8565b506008818101906106d890840182613de8565b506009818101906106eb90840182613de8565b50600a8281015490820155600b918201549101805460ff191660ff90921615159190911790555b8061071c81613edf565b9150506105bb565b506012805480602002602001604051908101604052809291908181526020016000905b82821015610a345760008481526020908190206040805161018081018252600c86029092018054835260018101546001600160a01b039081169484019490945260028101548416918301919091526003810154909216606082015260048201546080820152600582015460a082015260068201805491929160c0840191906107ce90613d60565b80601f01602080910402602001604051908101604052809291908181526020018280546107fa90613d60565b80156108475780601f1061081c57610100808354040283529160200191610847565b820191906000526020600020905b81548152906001019060200180831161082a57829003601f168201915b5050505050815260200160078201805461086090613d60565b80601f016020809104026020016040519081016040528092919081815260200182805461088c90613d60565b80156108d95780601f106108ae576101008083540402835291602001916108d9565b820191906000526020600020905b8154815290600101906020018083116108bc57829003601f168201915b505050505081526020016008820180546108f290613d60565b80601f016020809104026020016040519081016040528092919081815260200182805461091e90613d60565b801561096b5780601f106109405761010080835404028352916020019161096b565b820191906000526020600020905b81548152906001019060200180831161094e57829003601f168201915b5050505050815260200160098201805461098490613d60565b80601f01602080910402602001604051908101604052809291908181526020018280546109b090613d60565b80156109fd5780601f106109d2576101008083540402835291602001916109fd565b820191906000526020600020905b8154815290600101906020018083116109e057829003601f168201915b5050509183525050600a820154602080830191909152600b9092015460ff1615156040909101529082526001929092019101610747565b50505050905090565b60006001600160e01b031982167f780e9d63000000000000000000000000000000000000000000000000000000001480610a7b5750610a7b82612acf565b92915050565b606060008054610a9090613d60565b80601f0160208091040260200160405190810160405280929190818152602001828054610abc90613d60565b8015610b095780601f10610ade57610100808354040283529160200191610b09565b820191906000526020600020905b815481529060010190602001808311610aec57829003601f168201915b5050505050905090565b6000818152600260205260408120546001600160a01b0316610b915760405162461bcd60e51b815260206004820152602c60248201527f4552433732313a20617070726f76656420717565727920666f72206e6f6e657860448201526b34b9ba32b73a103a37b5b2b760a11b60648201526084015b60405180910390fd5b506000908152600460205260409020546001600160a01b031690565b6000610bb8826119a3565b9050806001600160a01b0316836001600160a01b031603610c415760405162461bcd60e51b815260206004820152602160248201527f4552433732313a20617070726f76616c20746f2063757272656e74206f776e6560448201527f72000000000000000000000000000000000000000000000000000000000000006064820152608401610b88565b336001600160a01b0382161480610c5d5750610c5d8133610548565b610ccf5760405162461bcd60e51b815260206004820152603860248201527f4552433732313a20617070726f76652063616c6c6572206973206e6f74206f7760448201527f6e6572206e6f7220617070726f76656420666f7220616c6c00000000000000006064820152608401610b88565b610cd98383612b6a565b505050565b610ce83382612bd8565b610d5a5760405162461bcd60e51b815260206004820152603160248201527f4552433732313a207472616e736665722063616c6c6572206973206e6f74206f60448201527f776e6572206e6f7220617070726f7665640000000000000000000000000000006064820152608401610b88565b610cd9838383612ccf565b60606010805480602002602001604051908101604052809291908181526020016000905b82821015610a345760008481526020908190206040805161018081018252600c86029092018054835260018101546001600160a01b039081169484019490945260028101548416918301919091526003810154909216606082015260048201546080820152600582015460a082015260068201805491929160c084019190610e1090613d60565b80601f0160208091040260200160405190810160405280929190818152602001828054610e3c90613d60565b8015610e895780601f10610e5e57610100808354040283529160200191610e89565b820191906000526020600020905b815481529060010190602001808311610e6c57829003601f168201915b50505050508152602001600782018054610ea290613d60565b80601f0160208091040260200160405190810160405280929190818152602001828054610ece90613d60565b8015610f1b5780601f10610ef057610100808354040283529160200191610f1b565b820191906000526020600020905b815481529060010190602001808311610efe57829003601f168201915b50505050508152602001600882018054610f3490613d60565b80601f0160208091040260200160405190810160405280929190818152602001828054610f6090613d60565b8015610fad5780601f10610f8257610100808354040283529160200191610fad565b820191906000526020600020905b815481529060010190602001808311610f9057829003601f168201915b50505050508152602001600982018054610fc690613d60565b80601f0160208091040260200160405190810160405280929190818152602001828054610ff290613d60565b801561103f5780601f106110145761010080835404028352916020019161103f565b820191906000526020600020905b81548152906001019060200180831161102257829003601f168201915b5050509183525050600a820154602080830191909152600b9092015460ff1615156040909101529082526001929092019101610d89565b600061108183611a2e565b82106110f55760405162461bcd60e51b815260206004820152602b60248201527f455243373231456e756d657261626c653a206f776e657220696e646578206f7560448201527f74206f6620626f756e64730000000000000000000000000000000000000000006064820152608401610b88565b506001600160a01b03919091166000908152600660209081526040808320938352929052205490565b610cd983838360405180602001604052806000815250612419565b600f543410156111b15760405162461bcd60e51b815260206004820152602560248201527f4574686572206b7572616e6720756e74756b206d656c616b756b616e206d696e60448201527f74696e67210000000000000000000000000000000000000000000000000000006064820152608401610b88565b600b856040516111c19190613ef8565b9081526040519081900360200190205460ff16156112215760405162461bcd60e51b815260206004820152601160248201527f4e465420696e69207375646168206164610000000000000000000000000000006044820152606401610b88565b600a546001600160a01b0316330361127b5760405162461bcd60e51b815260206004820152601d60248201527f50656e6a75616c616e20746964616b206469706572626f6c65686b616e0000006044820152606401610b88565b611296611290600a546001600160a01b031690565b34612ea7565b600d80549060006112a683613edf565b90915550506040805161018081018252600d54815233602082018181529282019081526001600160a01b03868116606084019081526080840187815260a0850187815260c086018e815260e087018c905261010087018e905261012087018d905242610140880152600161016088018190526011805491820181556000528751600c9091027f31ecc21a745e3968a04e9570e4425bc18fa8019c68028196b546d1669c200c68810191825598517f31ecc21a745e3968a04e9570e4425bc18fa8019c68028196b546d1669c200c698a0180549188166001600160a01b031992831617905596517f31ecc21a745e3968a04e9570e4425bc18fa8019c68028196b546d1669c200c6a8a01805491881691891691909117905593517f31ecc21a745e3968a04e9570e4425bc18fa8019c68028196b546d1669c200c6b8901805491909616961695909517909355517f31ecc21a745e3968a04e9570e4425bc18fa8019c68028196b546d1669c200c6c86015590517f31ecc21a745e3968a04e9570e4425bc18fa8019c68028196b546d1669c200c6d8501559051919290917f31ecc21a745e3968a04e9570e4425bc18fa8019c68028196b546d1669c200c6e909101906114719082613f14565b5060e082015160078201906114869082613f14565b50610100820151600882019061149c9082613f14565b5061012082015160098201906114b29082613f14565b50610140820151600a82015561016090910151600b909101805460ff1916911515919091179055600d5460405133917fd66a81e13d78db66a8745d66724377d0726f1ef1245b56b3debd6964bd3e389591611516919034906000908b904290613fce565b60405180910390a261152a33600d54612f07565b6001600b8660405161153c9190613ef8565b9081526040805160209281900383019020805460ff191660ff9490941693909317909255600d546000908152600c909152208054336001600160a01b031990911617905550505050505050565b600061159460085490565b82106116085760405162461bcd60e51b815260206004820152602c60248201527f455243373231456e756d657261626c653a20676c6f62616c20696e646578206f60448201527f7574206f6620626f756e647300000000000000000000000000000000000000006064820152608401610b88565b6008828154811061161b5761161b613d4a565b90600052602060002001549050919050565b6116ae6040518061018001604052806000815260200160006001600160a01b0316815260200160006001600160a01b0316815260200160006001600160a01b03168152602001600081526020016000815260200160608152602001606081526020016060815260200160608152602001600081526020016000151581525090565b60116116bb600184614005565b815481106116cb576116cb613d4a565b60009182526020918290206040805161018081018252600c9093029091018054835260018101546001600160a01b039081169484019490945260028101548416918301919091526003810154909216606082015260048201546080820152600582015460a082015260068201805491929160c08401919061174b90613d60565b80601f016020809104026020016040519081016040528092919081815260200182805461177790613d60565b80156117c45780601f10611799576101008083540402835291602001916117c4565b820191906000526020600020905b8154815290600101906020018083116117a757829003601f168201915b505050505081526020016007820180546117dd90613d60565b80601f016020809104026020016040519081016040528092919081815260200182805461180990613d60565b80156118565780601f1061182b57610100808354040283529160200191611856565b820191906000526020600020905b81548152906001019060200180831161183957829003601f168201915b5050505050815260200160088201805461186f90613d60565b80601f016020809104026020016040519081016040528092919081815260200182805461189b90613d60565b80156118e85780601f106118bd576101008083540402835291602001916118e8565b820191906000526020600020905b8154815290600101906020018083116118cb57829003601f168201915b5050505050815260200160098201805461190190613d60565b80601f016020809104026020016040519081016040528092919081815260200182805461192d90613d60565b801561197a5780601f1061194f5761010080835404028352916020019161197a565b820191906000526020600020905b81548152906001019060200180831161195d57829003601f168201915b5050509183525050600a8201546020820152600b9091015460ff16151560409091015292915050565b6000818152600260205260408120546001600160a01b031680610a7b5760405162461bcd60e51b815260206004820152602960248201527f4552433732313a206f776e657220717565727920666f72206e6f6e657869737460448201527f656e7420746f6b656e00000000000000000000000000000000000000000000006064820152608401610b88565b60006001600160a01b038216611aac5760405162461bcd60e51b815260206004820152602a60248201527f4552433732313a2062616c616e636520717565727920666f7220746865207a6560448201527f726f2061646472657373000000000000000000000000000000000000000000006064820152608401610b88565b506001600160a01b031660009081526003602052604090205490565b611ad0612f21565b611ada6000612f7b565b565b606060018054610a9090613d60565b6011611af8600183614005565b81548110611b0857611b08613d4a565b90600052602060002090600c020160040154341015611b695760405162461bcd60e51b815260206004820152600d60248201527f4574686572206b7572616e6721000000000000000000000000000000000000006044820152606401610b88565b6011611b76600183614005565b81548110611b8657611b86613d4a565b600091825260209091206001600c9092020101546001600160a01b03163303611bf15760405162461bcd60e51b815260206004820181905260248201527f546964616b206461706174206d656d62656c6920617365742073656e646972696044820152606401610b88565b600060646011611c02600185614005565b81548110611c1257611c12613d4a565b90600052602060002090600c02016005015434611c2f9190614018565b611c39919061402f565b9050611c7e6011611c4b600185614005565b81548110611c5b57611c5b613d4a565b600091825260209091206003600c9092020101546001600160a01b031682612ea7565b611cca6011611c8e600185614005565b81548110611c9e57611c9e613d4a565b600091825260209091206001600c9092020101546001600160a01b0316611cc58334614005565b612ea7565b600e8054906000611cda83613edf565b90915550611d2490506011611cf0600185614005565b81548110611d0057611d00613d4a565b600091825260209091206001600c9092020101546001600160a01b03163384612ccf565b6040805161018081018252600e54815233602082015260109181016011611d4c600187614005565b81548110611d5c57611d5c613d4a565b60009182526020918290206002600c9092020101546001600160a01b03168252016011611d8a600187614005565b81548110611d9a57611d9a613d4a565b60009182526020918290206003600c9092020101546001600160a01b0316825234908201526040016011611dcf600187614005565b81548110611ddf57611ddf613d4a565b90600052602060002090600c02016005015481526020016011600186611e059190614005565b81548110611e1557611e15613d4a565b90600052602060002090600c02016006018054611e3190613d60565b80601f0160208091040260200160405190810160405280929190818152602001828054611e5d90613d60565b8015611eaa5780601f10611e7f57610100808354040283529160200191611eaa565b820191906000526020600020905b815481529060010190602001808311611e8d57829003601f168201915b50505091835250506020016011611ec2600187614005565b81548110611ed257611ed2613d4a565b90600052602060002090600c02016007018054611eee90613d60565b80601f0160208091040260200160405190810160405280929190818152602001828054611f1a90613d60565b8015611f675780601f10611f3c57610100808354040283529160200191611f67565b820191906000526020600020905b815481529060010190602001808311611f4a57829003601f168201915b50505091835250506020016011611f7f600187614005565b81548110611f8f57611f8f613d4a565b90600052602060002090600c02016008018054611fab90613d60565b80601f0160208091040260200160405190810160405280929190818152602001828054611fd790613d60565b80156120245780601f10611ff957610100808354040283529160200191612024565b820191906000526020600020905b81548152906001019060200180831161200757829003601f168201915b5050509183525050602001601161203c600187614005565b8154811061204c5761204c613d4a565b90600052602060002090600c0201600901805461206890613d60565b80601f016020809104026020016040519081016040528092919081815260200182805461209490613d60565b80156120e15780601f106120b6576101008083540402835291602001916120e1565b820191906000526020600020905b8154815290600101906020018083116120c457829003601f168201915b505050918352505042602082015260400160116120ff600187614005565b8154811061210f5761210f613d4a565b60009182526020808320600c92830201600b015460ff16151590935284546001808201875595835291839020845192909102019081559082015192810180546001600160a01b03199081166001600160a01b03958616179091556040830151600283018054831691861691909117905560608301516003830180549092169416939093179092556080810151600483015560a0810151600583015560c081015190919060068201906121c19082613f14565b5060e082015160078201906121d69082613f14565b5061010082015160088201906121ec9082613f14565b5061012082015160098201906122029082613f14565b50610140820151600a82015561016090910151600b909101805460ff1916911515919091179055600e5433907fd66a81e13d78db66a8745d66724377d0726f1ef1245b56b3debd6964bd3e3895903484601161225f600189614005565b8154811061226f5761226f613d4a565b90600052602060002090600c020160090142604051612292959493929190614051565b60405180910390a23360116122a8600185614005565b815481106122b8576122b8613d4a565b90600052602060002090600c020160010160006101000a8154816001600160a01b0302191690836001600160a01b03160217905550610cd98261293e565b612301338383612fcd565b5050565b60008082116123565760405162461bcd60e51b815260206004820152600e60248201527f457468657220746f6f206c6f77210000000000000000000000000000000000006044820152606401610b88565b6011612363600185614005565b8154811061237357612373613d4a565b60009182526020909120600c90910201600101546001600160a01b031633146123de5760405162461bcd60e51b815260206004820152601660248201527f4f7065726174696f6e204e6f7420416c6c6f77656421000000000000000000006044820152606401610b88565b8160116123ec600186614005565b815481106123fc576123fc613d4a565b600091825260209091206004600c90920201015550600192915050565b6124233383612bd8565b6124955760405162461bcd60e51b815260206004820152603160248201527f4552433732313a207472616e736665722063616c6c6572206973206e6f74206f60448201527f776e6572206e6f7220617070726f7665640000000000000000000000000000006064820152608401610b88565b6124a18484848461309b565b50505050565b6000818152600260205260409020546060906001600160a01b03166125345760405162461bcd60e51b815260206004820152602f60248201527f4552433732314d657461646174613a2055524920717565727920666f72206e6f60448201527f6e6578697374656e7420746f6b656e00000000000000000000000000000000006064820152608401610b88565b600061254b60408051602081019091526000815290565b9050600081511161256b5760405180602001604052806000815250612596565b8061257584613119565b6040516020016125869291906140fa565b6040516020818303038152906040525b9392505050565b60606011805480602002602001604051908101604052809291908181526020016000905b82821015610a345760008481526020908190206040805161018081018252600c86029092018054835260018101546001600160a01b039081169484019490945260028101548416918301919091526003810154909216606082015260048201546080820152600582015460a082015260068201805491929160c08401919061264890613d60565b80601f016020809104026020016040519081016040528092919081815260200182805461267490613d60565b80156126c15780601f10612696576101008083540402835291602001916126c1565b820191906000526020600020905b8154815290600101906020018083116126a457829003601f168201915b505050505081526020016007820180546126da90613d60565b80601f016020809104026020016040519081016040528092919081815260200182805461270690613d60565b80156127535780601f1061272857610100808354040283529160200191612753565b820191906000526020600020905b81548152906001019060200180831161273657829003601f168201915b5050505050815260200160088201805461276c90613d60565b80601f016020809104026020016040519081016040528092919081815260200182805461279890613d60565b80156127e55780601f106127ba576101008083540402835291602001916127e5565b820191906000526020600020905b8154815290600101906020018083116127c857829003601f168201915b505050505081526020016009820180546127fe90613d60565b80601f016020809104026020016040519081016040528092919081815260200182805461282a90613d60565b80156128775780601f1061284c57610100808354040283529160200191612877565b820191906000526020600020905b81548152906001019060200180831161285a57829003601f168201915b5050509183525050600a820154602080830191909152600b9092015460ff16151560409091015290825260019290920191016125c1565b6128b6612f21565b6001600160a01b0381166129325760405162461bcd60e51b815260206004820152602660248201527f4f776e61626c653a206e6577206f776e657220697320746865207a65726f206160448201527f64647265737300000000000000000000000000000000000000000000000000006064820152608401610b88565b61293b81612f7b565b50565b6000601161294d600184614005565b8154811061295d5761295d613d4a565b60009182526020909120600c90910201600101546001600160a01b031633146129c85760405162461bcd60e51b815260206004820152601660248201527f4f7065726174696f6e204e6f7420416c6c6f77656421000000000000000000006044820152606401610b88565b60116129d5600184614005565b815481106129e5576129e5613d4a565b60009182526020909120600b600c90920201015460ff161515600103612a4b5760006011612a14600185614005565b81548110612a2457612a24613d4a565b60009182526020909120600c90910201600b01805460ff1916911515919091179055612ac7565b6011612a58600184614005565b81548110612a6857612a68613d4a565b600091825260208220600b600c90920201015460ff1615159003612ac75760016011612a948285614005565b81548110612aa457612aa4613d4a565b60009182526020909120600c90910201600b01805460ff19169115159190911790555b506001919050565b60006001600160e01b031982167f80ac58cd000000000000000000000000000000000000000000000000000000001480612b3257506001600160e01b031982167f5b5e139f00000000000000000000000000000000000000000000000000000000145b80610a7b57507f01ffc9a7000000000000000000000000000000000000000000000000000000006001600160e01b0319831614610a7b565b600081815260046020526040902080546001600160a01b0319166001600160a01b0384169081179091558190612b9f826119a3565b6001600160a01b03167f8c5be1e5ebec7d5bd14f71427d1e84f3dd0314c0f7b2291e5b200ac8c7c3b92560405160405180910390a45050565b6000818152600260205260408120546001600160a01b0316612c515760405162461bcd60e51b815260206004820152602c60248201527f4552433732313a206f70657261746f7220717565727920666f72206e6f6e657860448201526b34b9ba32b73a103a37b5b2b760a11b6064820152608401610b88565b6000612c5c836119a3565b9050806001600160a01b0316846001600160a01b03161480612c975750836001600160a01b0316612c8c84610b13565b6001600160a01b0316145b80612cc757506001600160a01b0380821660009081526005602090815260408083209388168352929052205460ff165b949350505050565b826001600160a01b0316612ce2826119a3565b6001600160a01b031614612d5e5760405162461bcd60e51b815260206004820152602960248201527f4552433732313a207472616e73666572206f6620746f6b656e2074686174206960448201527f73206e6f74206f776e00000000000000000000000000000000000000000000006064820152608401610b88565b6001600160a01b038216612dd95760405162461bcd60e51b8152602060048201526024808201527f4552433732313a207472616e7366657220746f20746865207a65726f2061646460448201527f72657373000000000000000000000000000000000000000000000000000000006064820152608401610b88565b612de48383836131b9565b612def600082612b6a565b6001600160a01b0383166000908152600360205260408120805460019290612e18908490614005565b90915550506001600160a01b0382166000908152600360205260408120805460019290612e46908490614129565b909155505060008181526002602052604080822080546001600160a01b0319166001600160a01b0386811691821790925591518493918716917fddf252ad1be2c89b69c2b068fc378daa952ba7f163c4a11628f55a4df523b3ef91a4505050565b6000826001600160a01b03168260405160006040518083038185875af1925050503d8060008114612ef4576040519150601f19603f3d011682016040523d82523d6000602084013e612ef9565b606091505b5050905080610cd957600080fd5b612301828260405180602001604052806000815250613271565b600a546001600160a01b03163314611ada5760405162461bcd60e51b815260206004820181905260248201527f4f776e61626c653a2063616c6c6572206973206e6f7420746865206f776e65726044820152606401610b88565b600a80546001600160a01b038381166001600160a01b0319831681179093556040519116919082907f8be0079c531659141344cd1fd0a4f28419497f9722a3daafe3b4186f6b6457e090600090a35050565b816001600160a01b0316836001600160a01b03160361302e5760405162461bcd60e51b815260206004820152601960248201527f4552433732313a20617070726f766520746f2063616c6c6572000000000000006044820152606401610b88565b6001600160a01b03838116600081815260056020908152604080832094871680845294825291829020805460ff191686151590811790915591519182527f17307eab39ab6107e8899845ad3d59bd9653f200f220920489ca2b5937696c31910160405180910390a3505050565b6130a6848484612ccf565b6130b2848484846132ef565b6124a15760405162461bcd60e51b815260206004820152603260248201527f4552433732313a207472616e7366657220746f206e6f6e20455243373231526560448201527131b2b4bb32b91034b6b83632b6b2b73a32b960711b6064820152608401610b88565b606060006131268361343b565b600101905060008167ffffffffffffffff81111561314657613146613a92565b6040519080825280601f01601f191660200182016040528015613170576020820181803683370190505b5090508181016020015b600019017f3031323334353637383961626364656600000000000000000000000000000000600a86061a8153600a850494508461317a57509392505050565b6001600160a01b0383166132145761320f81600880546000838152600960205260408120829055600182018355919091527ff3f7a9fe364faab93b216da50a3214154f22a0a2b415b23a84c8169e8b636ee30155565b613237565b816001600160a01b0316836001600160a01b03161461323757613237838261351d565b6001600160a01b03821661324e57610cd9816135ba565b826001600160a01b0316826001600160a01b031614610cd957610cd98282613669565b61327b83836136ad565b61328860008484846132ef565b610cd95760405162461bcd60e51b815260206004820152603260248201527f4552433732313a207472616e7366657220746f206e6f6e20455243373231526560448201527131b2b4bb32b91034b6b83632b6b2b73a32b960711b6064820152608401610b88565b60006001600160a01b0384163b1561343057604051630a85bd0160e11b81526001600160a01b0385169063150b7a029061333390339089908890889060040161413c565b6020604051808303816000875af192505050801561336e575060408051601f3d908101601f1916820190925261336b91810190614178565b60015b613416573d80801561339c576040519150601f19603f3d011682016040523d82523d6000602084013e6133a1565b606091505b50805160000361340e5760405162461bcd60e51b815260206004820152603260248201527f4552433732313a207472616e7366657220746f206e6f6e20455243373231526560448201527131b2b4bb32b91034b6b83632b6b2b73a32b960711b6064820152608401610b88565b805181602001fd5b6001600160e01b031916630a85bd0160e11b149050612cc7565b506001949350505050565b6000807a184f03e93ff9f4daa797ed6e38ed64bf6a1f0100000000000000008310613484577a184f03e93ff9f4daa797ed6e38ed64bf6a1f010000000000000000830492506040015b6d04ee2d6d415b85acef810000000083106134b0576d04ee2d6d415b85acef8100000000830492506020015b662386f26fc1000083106134ce57662386f26fc10000830492506010015b6305f5e10083106134e6576305f5e100830492506008015b61271083106134fa57612710830492506004015b6064831061350c576064830492506002015b600a8310610a7b5760010192915050565b6000600161352a84611a2e565b6135349190614005565b600083815260076020526040902054909150808214613587576001600160a01b03841660009081526006602090815260408083208584528252808320548484528184208190558352600790915290208190555b5060009182526007602090815260408084208490556001600160a01b039094168352600681528383209183525290812055565b6008546000906135cc90600190614005565b600083815260096020526040812054600880549394509092849081106135f4576135f4613d4a565b90600052602060002001549050806008838154811061361557613615613d4a565b600091825260208083209091019290925582815260099091526040808220849055858252812055600880548061364d5761364d614195565b6001900381819060005260206000200160009055905550505050565b600061367483611a2e565b6001600160a01b039093166000908152600660209081526040808320868452825280832085905593825260079052919091209190915550565b6001600160a01b0382166137035760405162461bcd60e51b815260206004820181905260248201527f4552433732313a206d696e7420746f20746865207a65726f20616464726573736044820152606401610b88565b6000818152600260205260409020546001600160a01b0316156137685760405162461bcd60e51b815260206004820152601c60248201527f4552433732313a20746f6b656e20616c7265616479206d696e746564000000006044820152606401610b88565b613774600083836131b9565b6001600160a01b038216600090815260036020526040812080546001929061379d908490614129565b909155505060008181526002602052604080822080546001600160a01b0319166001600160a01b03861690811790915590518392907fddf252ad1be2c89b69c2b068fc378daa952ba7f163c4a11628f55a4df523b3ef908290a45050565b60005b838110156138165781810151838201526020016137fe565b50506000910152565b600081518084526138378160208601602086016137fb565b601f01601f19169290920160200192915050565b600061018082518452602083015161386e60208601826001600160a01b03169052565b50604083015161388960408601826001600160a01b03169052565b5060608301516138a460608601826001600160a01b03169052565b506080830151608085015260a083015160a085015260c08301518160c08601526138d08286018261381f565b91505060e083015184820360e08601526138ea828261381f565b9150506101008084015185830382870152613905838261381f565b925050506101208084015185830382870152613921838261381f565b92505050610140808401518186015250610160808401516139458287018215159052565b5090949350505050565b6000602080830181845280855180835260408601915060408160051b870101925083870160005b828110156139a457603f1988860301845261399285835161384b565b94509285019290850190600101613976565b5092979650505050505050565b6001600160e01b03198116811461293b57600080fd5b6000602082840312156139d957600080fd5b8135612596816139b1565b602081526000612596602083018461381f565b600060208284031215613a0957600080fd5b5035919050565b80356001600160a01b0381168114613a2757600080fd5b919050565b60008060408385031215613a3f57600080fd5b613a4883613a10565b946020939093013593505050565b600080600060608486031215613a6b57600080fd5b613a7484613a10565b9250613a8260208501613a10565b9150604084013590509250925092565b634e487b7160e01b600052604160045260246000fd5b600067ffffffffffffffff80841115613ac357613ac3613a92565b604051601f8501601f19908116603f01168101908282118183101715613aeb57613aeb613a92565b81604052809350858152868686011115613b0457600080fd5b858560208301376000602087830101525050509392505050565b600082601f830112613b2f57600080fd5b61259683833560208501613aa8565b600080600080600080600060e0888a031215613b5957600080fd5b873567ffffffffffffffff80821115613b7157600080fd5b613b7d8b838c01613b1e565b985060208a0135915080821115613b9357600080fd5b613b9f8b838c01613b1e565b975060408a0135915080821115613bb557600080fd5b613bc18b838c01613b1e565b965060608a0135915080821115613bd757600080fd5b50613be48a828b01613b1e565b945050613bf360808901613a10565b925060a0880135915060c0880135905092959891949750929550565b602081526000612596602083018461384b565b600060208284031215613c3457600080fd5b61259682613a10565b60008060408385031215613c5057600080fd5b613c5983613a10565b915060208301358015158114613c6e57600080fd5b809150509250929050565b60008060408385031215613c8c57600080fd5b50508035926020909101359150565b60008060008060808587031215613cb157600080fd5b613cba85613a10565b9350613cc860208601613a10565b925060408501359150606085013567ffffffffffffffff811115613ceb57600080fd5b8501601f81018713613cfc57600080fd5b613d0b87823560208401613aa8565b91505092959194509250565b60008060408385031215613d2a57600080fd5b613d3383613a10565b9150613d4160208401613a10565b90509250929050565b634e487b7160e01b600052603260045260246000fd5b600181811c90821680613d7457607f821691505b602082108103613d9457634e487b7160e01b600052602260045260246000fd5b50919050565b601f821115610cd957600081815260208120601f850160051c81016020861015613dc15750805b601f850160051c820191505b81811015613de057828155600101613dcd565b505050505050565b818103613df3575050565b613dfd8254613d60565b67ffffffffffffffff811115613e1557613e15613a92565b613e2981613e238454613d60565b84613d9a565b6000601f821160018114613e5d5760008315613e455750848201545b600019600385901b1c1916600184901b178455613ec2565b600085815260209020601f19841690600086815260209020845b83811015613e975782860154825560019586019590910190602001613e77565b5085831015613eb55781850154600019600388901b60f8161c191681555b50505060018360011b0184555b5050505050565b634e487b7160e01b600052601160045260246000fd5b600060018201613ef157613ef1613ec9565b5060010190565b60008251613f0a8184602087016137fb565b9190910192915050565b815167ffffffffffffffff811115613f2e57613f2e613a92565b613f3c81613e238454613d60565b602080601f831160018114613f715760008415613f595750858301515b600019600386901b1c1916600185901b178555613de0565b600085815260208120601f198616915b82811015613fa057888601518255948401946001909101908401613f81565b5085821015613fbe5787850151600019600388901b60f8161c191681555b5050505050600190811b01905550565b85815284602082015283604082015260a060608201526000613ff360a083018561381f565b90508260808301529695505050505050565b81810381811115610a7b57610a7b613ec9565b8082028115828204841417610a7b57610a7b613ec9565b60008261404c57634e487b7160e01b600052601260045260246000fd5b500490565b85815260006020868184015285604084015260a060608401526000855461407781613d60565b8060a087015260c060018084166000811461409957600181146140b3576140e1565b60ff1985168984015283151560051b8901830195506140e1565b8a6000528660002060005b858110156140d95781548b82018601529083019088016140be565b8a0184019650505b5050505050608093909301939093525095945050505050565b6000835161410c8184602088016137fb565b8351908301906141208183602088016137fb565b01949350505050565b80820180821115610a7b57610a7b613ec9565b60006001600160a01b0380871683528086166020840152508360408301526080606083015261416e608083018461381f565b9695505050505050565b60006020828403121561418a57600080fd5b8151612596816139b1565b634e487b7160e01b600052603160045260246000fdfea2646970667358221220461c02ec885a4225ce3d28efac8bebb323e3a6e838e2244bf831a9330b743a1a64736f6c63430008130033",
  "linkReferences": {},
  "deployedLinkReferences": {}
}