{
  "_format": "hh-sol-artifact-1",
  "contractName": "PStoreNFTv2",
  "sourceName": "contracts/PStoreNFTv2.sol",
  "abi": [
    {
      "inputs": [
        {
          "internalType": "string",
          "name": "_name",
          "type": "string"
        },
        {
          "internalType": "string",
          "name": "_symbol",
          "type": "string"
        }
      ],
      "stateMutability": "nonpayable",
      "type": "constructor"
    },
    {
      "anonymous": false,
      "inputs": [
        {
          "indexed": true,
          "internalType": "address",
          "name": "owner",
          "type": "address"
        },
        {
          "indexed": true,
          "internalType": "address",
          "name": "approved",
          "type": "address"
        },
        {
          "indexed": true,
          "internalType": "uint256",
          "name": "tokenId",
          "type": "uint256"
        }
      ],
      "name": "Approval",
      "type": "event"
    },
    {
      "anonymous": false,
      "inputs": [
        {
          "indexed": true,
          "internalType": "address",
          "name": "owner",
          "type": "address"
        },
        {
          "indexed": true,
          "internalType": "address",
          "name": "operator",
          "type": "address"
        },
        {
          "indexed": false,
          "internalType": "bool",
          "name": "approved",
          "type": "bool"
        }
      ],
      "name": "ApprovalForAll",
      "type": "event"
    },
    {
      "anonymous": false,
      "inputs": [
        {
          "indexed": true,
          "internalType": "address",
          "name": "previousOwner",
          "type": "address"
        },
        {
          "indexed": true,
          "internalType": "address",
          "name": "newOwner",
          "type": "address"
        }
      ],
      "name": "OwnershipTransferred",
      "type": "event"
    },
    {
      "anonymous": false,
      "inputs": [
        {
          "indexed": false,
          "internalType": "uint256",
          "name": "id",
          "type": "uint256"
        },
        {
          "indexed": true,
          "internalType": "address",
          "name": "owner",
          "type": "address"
        },
        {
          "indexed": false,
          "internalType": "uint256",
          "name": "cost",
          "type": "uint256"
        },
        {
          "indexed": false,
          "internalType": "uint256",
          "name": "goesToCampaignFund",
          "type": "uint256"
        },
        {
          "indexed": false,
          "internalType": "string",
          "name": "campaignId",
          "type": "string"
        },
        {
          "indexed": false,
          "internalType": "string",
          "name": "metadataURI",
          "type": "string"
        },
        {
          "indexed": false,
          "internalType": "uint256",
          "name": "timestamp",
          "type": "uint256"
        }
      ],
      "name": "Sale",
      "type": "event"
    },
    {
      "anonymous": false,
      "inputs": [
        {
          "indexed": true,
          "internalType": "address",
          "name": "from",
          "type": "address"
        },
        {
          "indexed": true,
          "internalType": "address",
          "name": "to",
          "type": "address"
        },
        {
          "indexed": true,
          "internalType": "uint256",
          "name": "tokenId",
          "type": "uint256"
        }
      ],
      "name": "Transfer",
      "type": "event"
    },
    {
      "inputs": [
        {
          "internalType": "address",
          "name": "to",
          "type": "address"
        },
        {
          "internalType": "uint256",
          "name": "tokenId",
          "type": "uint256"
        }
      ],
      "name": "approve",
      "outputs": [],
      "stateMutability": "nonpayable",
      "type": "function"
    },
    {
      "inputs": [
        {
          "internalType": "address",
          "name": "owner",
          "type": "address"
        }
      ],
      "name": "balanceOf",
      "outputs": [
        {
          "internalType": "uint256",
          "name": "",
          "type": "uint256"
        }
      ],
      "stateMutability": "view",
      "type": "function"
    },
    {
      "inputs": [
        {
          "internalType": "uint256",
          "name": "id",
          "type": "uint256"
        },
        {
          "internalType": "uint256",
          "name": "newPrice",
          "type": "uint256"
        }
      ],
      "name": "changePrice",
      "outputs": [
        {
          "internalType": "bool",
          "name": "",
          "type": "bool"
        }
      ],
      "stateMutability": "nonpayable",
      "type": "function"
    },
    {
      "inputs": [],
      "name": "cost",
      "outputs": [
        {
          "internalType": "uint256",
          "name": "",
          "type": "uint256"
        }
      ],
      "stateMutability": "view",
      "type": "function"
    },
    {
      "inputs": [],
      "name": "getAllNFTs",
      "outputs": [
        {
          "components": [
            {
              "internalType": "uint256",
              "name": "id",
              "type": "uint256"
            },
            {
              "internalType": "address",
              "name": "owner",
              "type": "address"
            },
            {
              "internalType": "address",
              "name": "creator",
              "type": "address"
            },
            {
              "internalType": "address",
              "name": "campaignAddress",
              "type": "address"
            },
            {
              "internalType": "string",
              "name": "campaignId",
              "type": "string"
            },
            {
              "internalType": "uint256",
              "name": "cost",
              "type": "uint256"
            },
            {
              "internalType": "uint256",
              "name": "royaltyPercent",
              "type": "uint256"
            },
            {
              "internalType": "string",
              "name": "title",
              "type": "string"
            },
            {
              "internalType": "string",
              "name": "campaignName",
              "type": "string"
            },
            {
              "internalType": "string",
              "name": "description",
              "type": "string"
            },
            {
              "internalType": "string",
              "name": "metadataURI",
              "type": "string"
            },
            {
              "internalType": "uint256",
              "name": "timestamp",
              "type": "uint256"
            },
            {
              "internalType": "bool",
              "name": "isListed",
              "type": "bool"
            }
          ],
          "internalType": "struct PStoreNFTv2.TransactionStruct[]",
          "name": "",
          "type": "tuple[]"
        }
      ],
      "stateMutability": "view",
      "type": "function"
    },
    {
      "inputs": [],
      "name": "getAllTransactions",
      "outputs": [
        {
          "components": [
            {
              "internalType": "uint256",
              "name": "id",
              "type": "uint256"
            },
            {
              "internalType": "address",
              "name": "owner",
              "type": "address"
            },
            {
              "internalType": "address",
              "name": "creator",
              "type": "address"
            },
            {
              "internalType": "address",
              "name": "campaignAddress",
              "type": "address"
            },
            {
              "internalType": "string",
              "name": "campaignId",
              "type": "string"
            },
            {
              "internalType": "uint256",
              "name": "cost",
              "type": "uint256"
            },
            {
              "internalType": "uint256",
              "name": "royaltyPercent",
              "type": "uint256"
            },
            {
              "internalType": "string",
              "name": "title",
              "type": "string"
            },
            {
              "internalType": "string",
              "name": "campaignName",
              "type": "string"
            },
            {
              "internalType": "string",
              "name": "description",
              "type": "string"
            },
            {
              "internalType": "string",
              "name": "metadataURI",
              "type": "string"
            },
            {
              "internalType": "uint256",
              "name": "timestamp",
              "type": "uint256"
            },
            {
              "internalType": "bool",
              "name": "isListed",
              "type": "bool"
            }
          ],
          "internalType": "struct PStoreNFTv2.TransactionStruct[]",
          "name": "",
          "type": "tuple[]"
        }
      ],
      "stateMutability": "view",
      "type": "function"
    },
    {
      "inputs": [
        {
          "internalType": "uint256",
          "name": "tokenId",
          "type": "uint256"
        }
      ],
      "name": "getApproved",
      "outputs": [
        {
          "internalType": "address",
          "name": "",
          "type": "address"
        }
      ],
      "stateMutability": "view",
      "type": "function"
    },
    {
      "inputs": [],
      "name": "getListedNFTs",
      "outputs": [
        {
          "components": [
            {
              "internalType": "uint256",
              "name": "id",
              "type": "uint256"
            },
            {
              "internalType": "address",
              "name": "owner",
              "type": "address"
            },
            {
              "internalType": "address",
              "name": "creator",
              "type": "address"
            },
            {
              "internalType": "address",
              "name": "campaignAddress",
              "type": "address"
            },
            {
              "internalType": "string",
              "name": "campaignId",
              "type": "string"
            },
            {
              "internalType": "uint256",
              "name": "cost",
              "type": "uint256"
            },
            {
              "internalType": "uint256",
              "name": "royaltyPercent",
              "type": "uint256"
            },
            {
              "internalType": "string",
              "name": "title",
              "type": "string"
            },
            {
              "internalType": "string",
              "name": "campaignName",
              "type": "string"
            },
            {
              "internalType": "string",
              "name": "description",
              "type": "string"
            },
            {
              "internalType": "string",
              "name": "metadataURI",
              "type": "string"
            },
            {
              "internalType": "uint256",
              "name": "timestamp",
              "type": "uint256"
            },
            {
              "internalType": "bool",
              "name": "isListed",
              "type": "bool"
            }
          ],
          "internalType": "struct PStoreNFTv2.TransactionStruct[]",
          "name": "",
          "type": "tuple[]"
        }
      ],
      "stateMutability": "nonpayable",
      "type": "function"
    },
    {
      "inputs": [
        {
          "internalType": "uint256",
          "name": "id",
          "type": "uint256"
        }
      ],
      "name": "getNFT",
      "outputs": [
        {
          "components": [
            {
              "internalType": "uint256",
              "name": "id",
              "type": "uint256"
            },
            {
              "internalType": "address",
              "name": "owner",
              "type": "address"
            },
            {
              "internalType": "address",
              "name": "creator",
              "type": "address"
            },
            {
              "internalType": "address",
              "name": "campaignAddress",
              "type": "address"
            },
            {
              "internalType": "string",
              "name": "campaignId",
              "type": "string"
            },
            {
              "internalType": "uint256",
              "name": "cost",
              "type": "uint256"
            },
            {
              "internalType": "uint256",
              "name": "royaltyPercent",
              "type": "uint256"
            },
            {
              "internalType": "string",
              "name": "title",
              "type": "string"
            },
            {
              "internalType": "string",
              "name": "campaignName",
              "type": "string"
            },
            {
              "internalType": "string",
              "name": "description",
              "type": "string"
            },
            {
              "internalType": "string",
              "name": "metadataURI",
              "type": "string"
            },
            {
              "internalType": "uint256",
              "name": "timestamp",
              "type": "uint256"
            },
            {
              "internalType": "bool",
              "name": "isListed",
              "type": "bool"
            }
          ],
          "internalType": "struct PStoreNFTv2.TransactionStruct",
          "name": "",
          "type": "tuple"
        }
      ],
      "stateMutability": "view",
      "type": "function"
    },
    {
      "inputs": [
        {
          "internalType": "uint256",
          "name": "",
          "type": "uint256"
        }
      ],
      "name": "holderOf",
      "outputs": [
        {
          "internalType": "address",
          "name": "",
          "type": "address"
        }
      ],
      "stateMutability": "view",
      "type": "function"
    },
    {
      "inputs": [
        {
          "internalType": "address",
          "name": "owner",
          "type": "address"
        },
        {
          "internalType": "address",
          "name": "operator",
          "type": "address"
        }
      ],
      "name": "isApprovedForAll",
      "outputs": [
        {
          "internalType": "bool",
          "name": "",
          "type": "bool"
        }
      ],
      "stateMutability": "view",
      "type": "function"
    },
    {
      "inputs": [],
      "name": "name",
      "outputs": [
        {
          "internalType": "string",
          "name": "",
          "type": "string"
        }
      ],
      "stateMutability": "view",
      "type": "function"
    },
    {
      "inputs": [],
      "name": "owner",
      "outputs": [
        {
          "internalType": "address",
          "name": "",
          "type": "address"
        }
      ],
      "stateMutability": "view",
      "type": "function"
    },
    {
      "inputs": [
        {
          "internalType": "uint256",
          "name": "tokenId",
          "type": "uint256"
        }
      ],
      "name": "ownerOf",
      "outputs": [
        {
          "internalType": "address",
          "name": "",
          "type": "address"
        }
      ],
      "stateMutability": "view",
      "type": "function"
    },
    {
      "inputs": [
        {
          "internalType": "uint256",
          "name": "id",
          "type": "uint256"
        }
      ],
      "name": "payToBuy",
      "outputs": [],
      "stateMutability": "payable",
      "type": "function"
    },
    {
      "inputs": [
        {
          "internalType": "string",
          "name": "title",
          "type": "string"
        },
        {
          "internalType": "string",
          "name": "description",
          "type": "string"
        },
        {
          "internalType": "string",
          "name": "metadataURI",
          "type": "string"
        },
        {
          "internalType": "string",
          "name": "campaignName",
          "type": "string"
        },
        {
          "internalType": "string",
          "name": "campaignId",
          "type": "string"
        },
        {
          "internalType": "address",
          "name": "campaignAddress",
          "type": "address"
        },
        {
          "internalType": "uint256",
          "name": "salesPrice",
          "type": "uint256"
        },
        {
          "internalType": "uint256",
          "name": "royaltyPercent",
          "type": "uint256"
        }
      ],
      "name": "payToMint",
      "outputs": [],
      "stateMutability": "payable",
      "type": "function"
    },
    {
      "inputs": [],
      "name": "renounceOwnership",
      "outputs": [],
      "stateMutability": "nonpayable",
      "type": "function"
    },
    {
      "inputs": [
        {
          "internalType": "address",
          "name": "from",
          "type": "address"
        },
        {
          "internalType": "address",
          "name": "to",
          "type": "address"
        },
        {
          "internalType": "uint256",
          "name": "tokenId",
          "type": "uint256"
        }
      ],
      "name": "safeTransferFrom",
      "outputs": [],
      "stateMutability": "payable",
      "type": "function"
    },
    {
      "inputs": [
        {
          "internalType": "address",
          "name": "from",
          "type": "address"
        },
        {
          "internalType": "address",
          "name": "to",
          "type": "address"
        },
        {
          "internalType": "uint256",
          "name": "tokenId",
          "type": "uint256"
        },
        {
          "internalType": "bytes",
          "name": "_data",
          "type": "bytes"
        }
      ],
      "name": "safeTransferFrom",
      "outputs": [],
      "stateMutability": "payable",
      "type": "function"
    },
    {
      "inputs": [
        {
          "internalType": "address",
          "name": "operator",
          "type": "address"
        },
        {
          "internalType": "bool",
          "name": "approved",
          "type": "bool"
        }
      ],
      "name": "setApprovalForAll",
      "outputs": [],
      "stateMutability": "nonpayable",
      "type": "function"
    },
    {
      "inputs": [
        {
          "internalType": "uint256",
          "name": "id",
          "type": "uint256"
        }
      ],
      "name": "setListed",
      "outputs": [
        {
          "internalType": "bool",
          "name": "",
          "type": "bool"
        }
      ],
      "stateMutability": "nonpayable",
      "type": "function"
    },
    {
      "inputs": [],
      "name": "supply",
      "outputs": [
        {
          "internalType": "uint256",
          "name": "",
          "type": "uint256"
        }
      ],
      "stateMutability": "view",
      "type": "function"
    },
    {
      "inputs": [
        {
          "internalType": "bytes4",
          "name": "interfaceId",
          "type": "bytes4"
        }
      ],
      "name": "supportsInterface",
      "outputs": [
        {
          "internalType": "bool",
          "name": "",
          "type": "bool"
        }
      ],
      "stateMutability": "view",
      "type": "function"
    },
    {
      "inputs": [],
      "name": "symbol",
      "outputs": [
        {
          "internalType": "string",
          "name": "",
          "type": "string"
        }
      ],
      "stateMutability": "view",
      "type": "function"
    },
    {
      "inputs": [
        {
          "internalType": "uint256",
          "name": "index",
          "type": "uint256"
        }
      ],
      "name": "tokenByIndex",
      "outputs": [
        {
          "internalType": "uint256",
          "name": "",
          "type": "uint256"
        }
      ],
      "stateMutability": "view",
      "type": "function"
    },
    {
      "inputs": [
        {
          "internalType": "address",
          "name": "owner",
          "type": "address"
        },
        {
          "internalType": "uint256",
          "name": "index",
          "type": "uint256"
        }
      ],
      "name": "tokenOfOwnerByIndex",
      "outputs": [
        {
          "internalType": "uint256",
          "name": "",
          "type": "uint256"
        }
      ],
      "stateMutability": "view",
      "type": "function"
    },
    {
      "inputs": [
        {
          "internalType": "uint256",
          "name": "tokenId",
          "type": "uint256"
        }
      ],
      "name": "tokenURI",
      "outputs": [
        {
          "internalType": "string",
          "name": "",
          "type": "string"
        }
      ],
      "stateMutability": "view",
      "type": "function"
    },
    {
      "inputs": [],
      "name": "totalSupply",
      "outputs": [
        {
          "internalType": "uint256",
          "name": "",
          "type": "uint256"
        }
      ],
      "stateMutability": "view",
      "type": "function"
    },
    {
      "inputs": [],
      "name": "totalTx",
      "outputs": [
        {
          "internalType": "uint256",
          "name": "",
          "type": "uint256"
        }
      ],
      "stateMutability": "view",
      "type": "function"
    },
    {
      "inputs": [
        {
          "internalType": "address",
          "name": "from",
          "type": "address"
        },
        {
          "internalType": "address",
          "name": "to",
          "type": "address"
        },
        {
          "internalType": "uint256",
          "name": "tokenId",
          "type": "uint256"
        }
      ],
      "name": "transferFrom",
      "outputs": [],
      "stateMutability": "payable",
      "type": "function"
    },
    {
      "inputs": [
        {
          "internalType": "address",
          "name": "newOwner",
          "type": "address"
        }
      ],
      "name": "transferOwnership",
      "outputs": [],
      "stateMutability": "nonpayable",
      "type": "function"
    }
  ],
  "bytecode": "0x60806040526000600d556000600e55662386f26fc10000600f553480156200002657600080fd5b5060405162004917380380620049178339810160408190526200004991620001a8565b81816000620000598382620002a1565b506001620000688282620002a1565b505050620000856200007f6200008d60201b60201c565b62000091565b50506200036d565b3390565b600a80546001600160a01b038381166001600160a01b0319831681179093556040519116919082907f8be0079c531659141344cd1fd0a4f28419497f9722a3daafe3b4186f6b6457e090600090a35050565b634e487b7160e01b600052604160045260246000fd5b600082601f8301126200010b57600080fd5b81516001600160401b0380821115620001285762000128620000e3565b604051601f8301601f19908116603f01168101908282118183101715620001535762000153620000e3565b816040528381526020925086838588010111156200017057600080fd5b600091505b8382101562000194578582018301518183018401529082019062000175565b600093810190920192909252949350505050565b60008060408385031215620001bc57600080fd5b82516001600160401b0380821115620001d457600080fd5b620001e286838701620000f9565b93506020850151915080821115620001f957600080fd5b506200020885828601620000f9565b9150509250929050565b600181811c908216806200022757607f821691505b6020821081036200024857634e487b7160e01b600052602260045260246000fd5b50919050565b601f8211156200029c57600081815260208120601f850160051c81016020861015620002775750805b601f850160051c820191505b81811015620002985782815560010162000283565b5050505b505050565b81516001600160401b03811115620002bd57620002bd620000e3565b620002d581620002ce845462000212565b846200024e565b602080601f8311600181146200030d5760008415620002f45750858301515b600019600386901b1c1916600185901b17855562000298565b600085815260208120601f198616915b828110156200033e578886015182559484019460019091019084016200031d565b50858210156200035d5787850151600019600388901b60f8161c191681555b5050505050600190811b01905550565b61459a806200037d6000396000f3fe6080604052600436106101d85760003560e01c806370a0823111610102578063b4ced77011610095578063e0391b0911610064578063e0391b0914610518578063e985e9c51461052d578063f2fde38b14610576578063ff8460381461059657600080fd5b8063b4ced7701461049c578063b88d4fde146104af578063c87b56dd146104c2578063dbacc237146104e257600080fd5b806395d89b41116100d157806395d89b41146104345780639ba4b01714610449578063a22cb4651461045c578063b3de019c1461047c57600080fd5b806370a08231146103cb578063715018a6146103eb5780637220cf39146104005780638da5cb5b1461041657600080fd5b806318160ddd1161017a57806342842e0e1161014957806342842e0e1461034b5780634f6ccce71461035e578063576f7ea71461037e5780636352211e146103ab57600080fd5b806318160ddd146102ee57806323b872dd1461030357806327506f53146103165780632f745c591461032b57600080fd5b806306fdde03116101b657806306fdde031461025c578063081812fc1461027e578063095ea7b3146102b657806313faede6146102d857600080fd5b8063012386f0146101dd57806301ffc9a714610208578063047fc9aa14610238575b600080fd5b3480156101e957600080fd5b506101f26105b6565b6040516101ff9190613cb6565b60405180910390f35b34801561021457600080fd5b50610228610223366004613d2e565b610ae4565b60405190151581526020016101ff565b34801561024457600080fd5b5061024e600d5481565b6040519081526020016101ff565b34801561026857600080fd5b50610271610b28565b6040516101ff9190613d4b565b34801561028a57600080fd5b5061029e610299366004613d5e565b610bba565b6040516001600160a01b0390911681526020016101ff565b3480156102c257600080fd5b506102d66102d1366004613d93565b610c54565b005b3480156102e457600080fd5b5061024e600f5481565b3480156102fa57600080fd5b5060085461024e565b6102d6610311366004613dbd565b610d85565b34801561032257600080fd5b506101f2610e0c565b34801561033757600080fd5b5061024e610346366004613d93565b6111af565b6102d6610359366004613dbd565b611257565b34801561036a57600080fd5b5061024e610379366004613d5e565b611272565b34801561038a57600080fd5b5061039e610399366004613d5e565b611316565b6040516101ff9190613df9565b3480156103b757600080fd5b5061029e6103c6366004613d5e565b611725565b3480156103d757600080fd5b5061024e6103e6366004613e0c565b6117b0565b3480156103f757600080fd5b506102d661184a565b34801561040c57600080fd5b5061024e600e5481565b34801561042257600080fd5b50600a546001600160a01b031661029e565b34801561044057600080fd5b5061027161185e565b6102d6610457366004613d5e565b61186d565b34801561046857600080fd5b506102d6610477366004613e27565b61217b565b34801561048857600080fd5b50610228610497366004613e63565b61218a565b6102d66104aa366004613f31565b61229e565b6102d66104bd366004614027565b6126d2565b3480156104ce57600080fd5b506102716104dd366004613d5e565b612760565b3480156104ee57600080fd5b5061029e6104fd366004613d5e565b600c602052600090815260409020546001600160a01b031681565b34801561052457600080fd5b506101f2612856565b34801561053957600080fd5b506102286105483660046140a3565b6001600160a01b03918216600090815260056020908152604080832093909416825291909152205460ff1690565b34801561058257600080fd5b506102d6610591366004613e0c565b612bf9565b3480156105a257600080fd5b506102286105b1366004613d5e565b612c89565b606060005b60115481101561073957601181815481106105d8576105d86140d6565b60009182526020909120600c600d90920201015460ff1615156001036107275760126011828154811061060d5761060d6140d6565b6000918252602080832084546001818101875595855291909320600d9283029093018054919092029092019182558281015492820180546001600160a01b03199081166001600160a01b039586161790915560028083015490840180548316918616919091179055600380830154908401805490921694169390931790925560048082019061069e90840182614174565b506005820154816005015560068201548160060155600782018160070190816106c79190614174565b506008818101906106da90840182614174565b506009818101906106ed90840182614174565b50600a8181019061070090840182614174565b50600b8281015490820155600c918201549101805460ff191660ff90921615159190911790555b806107318161426b565b9150506105bb565b506012805480602002602001604051908101604052809291908181526020016000905b82821015610adb576000848152602090819020604080516101a081018252600d86029092018054835260018101546001600160a01b03908116948401949094526002810154841691830191909152600381015490921660608201526004820180549192916080840191906107cf906140ec565b80601f01602080910402602001604051908101604052809291908181526020018280546107fb906140ec565b80156108485780601f1061081d57610100808354040283529160200191610848565b820191906000526020600020905b81548152906001019060200180831161082b57829003601f168201915b505050505081526020016005820154815260200160068201548152602001600782018054610875906140ec565b80601f01602080910402602001604051908101604052809291908181526020018280546108a1906140ec565b80156108ee5780601f106108c3576101008083540402835291602001916108ee565b820191906000526020600020905b8154815290600101906020018083116108d157829003601f168201915b50505050508152602001600882018054610907906140ec565b80601f0160208091040260200160405190810160405280929190818152602001828054610933906140ec565b80156109805780601f1061095557610100808354040283529160200191610980565b820191906000526020600020905b81548152906001019060200180831161096357829003601f168201915b50505050508152602001600982018054610999906140ec565b80601f01602080910402602001604051908101604052809291908181526020018280546109c5906140ec565b8015610a125780601f106109e757610100808354040283529160200191610a12565b820191906000526020600020905b8154815290600101906020018083116109f557829003601f168201915b50505050508152602001600a82018054610a2b906140ec565b80601f0160208091040260200160405190810160405280929190818152602001828054610a57906140ec565b8015610aa45780601f10610a7957610100808354040283529160200191610aa4565b820191906000526020600020905b815481529060010190602001808311610a8757829003601f168201915b5050509183525050600b820154602080830191909152600c9092015460ff161515604090910152908252600192909201910161075c565b50505050905090565b60006001600160e01b031982167f780e9d63000000000000000000000000000000000000000000000000000000001480610b225750610b2282612e1a565b92915050565b606060008054610b37906140ec565b80601f0160208091040260200160405190810160405280929190818152602001828054610b63906140ec565b8015610bb05780601f10610b8557610100808354040283529160200191610bb0565b820191906000526020600020905b815481529060010190602001808311610b9357829003601f168201915b5050505050905090565b6000818152600260205260408120546001600160a01b0316610c385760405162461bcd60e51b815260206004820152602c60248201527f4552433732313a20617070726f76656420717565727920666f72206e6f6e657860448201526b34b9ba32b73a103a37b5b2b760a11b60648201526084015b60405180910390fd5b506000908152600460205260409020546001600160a01b031690565b6000610c5f82611725565b9050806001600160a01b0316836001600160a01b031603610ce85760405162461bcd60e51b815260206004820152602160248201527f4552433732313a20617070726f76616c20746f2063757272656e74206f776e6560448201527f72000000000000000000000000000000000000000000000000000000000000006064820152608401610c2f565b336001600160a01b0382161480610d045750610d048133610548565b610d765760405162461bcd60e51b815260206004820152603860248201527f4552433732313a20617070726f76652063616c6c6572206973206e6f74206f7760448201527f6e6572206e6f7220617070726f76656420666f7220616c6c00000000000000006064820152608401610c2f565b610d808383612eb5565b505050565b610d8f3382612f23565b610e015760405162461bcd60e51b815260206004820152603160248201527f4552433732313a207472616e736665722063616c6c6572206973206e6f74206f60448201527f776e6572206e6f7220617070726f7665640000000000000000000000000000006064820152608401610c2f565b610d8083838361301a565b60606010805480602002602001604051908101604052809291908181526020016000905b82821015610adb576000848152602090819020604080516101a081018252600d86029092018054835260018101546001600160a01b0390811694840194909452600281015484169183019190915260038101549092166060820152600482018054919291608084019190610ea3906140ec565b80601f0160208091040260200160405190810160405280929190818152602001828054610ecf906140ec565b8015610f1c5780601f10610ef157610100808354040283529160200191610f1c565b820191906000526020600020905b815481529060010190602001808311610eff57829003601f168201915b505050505081526020016005820154815260200160068201548152602001600782018054610f49906140ec565b80601f0160208091040260200160405190810160405280929190818152602001828054610f75906140ec565b8015610fc25780601f10610f9757610100808354040283529160200191610fc2565b820191906000526020600020905b815481529060010190602001808311610fa557829003601f168201915b50505050508152602001600882018054610fdb906140ec565b80601f0160208091040260200160405190810160405280929190818152602001828054611007906140ec565b80156110545780601f1061102957610100808354040283529160200191611054565b820191906000526020600020905b81548152906001019060200180831161103757829003601f168201915b5050505050815260200160098201805461106d906140ec565b80601f0160208091040260200160405190810160405280929190818152602001828054611099906140ec565b80156110e65780601f106110bb576101008083540402835291602001916110e6565b820191906000526020600020905b8154815290600101906020018083116110c957829003601f168201915b50505050508152602001600a820180546110ff906140ec565b80601f016020809104026020016040519081016040528092919081815260200182805461112b906140ec565b80156111785780601f1061114d57610100808354040283529160200191611178565b820191906000526020600020905b81548152906001019060200180831161115b57829003601f168201915b5050509183525050600b820154602080830191909152600c9092015460ff1615156040909101529082526001929092019101610e30565b60006111ba836117b0565b821061122e5760405162461bcd60e51b815260206004820152602b60248201527f455243373231456e756d657261626c653a206f776e657220696e646578206f7560448201527f74206f6620626f756e64730000000000000000000000000000000000000000006064820152608401610c2f565b506001600160a01b03919091166000908152600660209081526040808320938352929052205490565b610d80838383604051806020016040528060008152506126d2565b600061127d60085490565b82106112f15760405162461bcd60e51b815260206004820152602c60248201527f455243373231456e756d657261626c653a20676c6f62616c20696e646578206f60448201527f7574206f6620626f756e647300000000000000000000000000000000000000006064820152608401610c2f565b60088281548110611304576113046140d6565b90600052602060002001549050919050565b61139e604051806101a001604052806000815260200160006001600160a01b0316815260200160006001600160a01b0316815260200160006001600160a01b0316815260200160608152602001600081526020016000815260200160608152602001606081526020016060815260200160608152602001600081526020016000151581525090565b60116113ab600184614284565b815481106113bb576113bb6140d6565b6000918252602091829020604080516101a081018252600d9093029091018054835260018101546001600160a01b0390811694840194909452600281015484169183019190915260038101549092166060820152600482018054919291608084019190611427906140ec565b80601f0160208091040260200160405190810160405280929190818152602001828054611453906140ec565b80156114a05780601f10611475576101008083540402835291602001916114a0565b820191906000526020600020905b81548152906001019060200180831161148357829003601f168201915b5050505050815260200160058201548152602001600682015481526020016007820180546114cd906140ec565b80601f01602080910402602001604051908101604052809291908181526020018280546114f9906140ec565b80156115465780601f1061151b57610100808354040283529160200191611546565b820191906000526020600020905b81548152906001019060200180831161152957829003601f168201915b5050505050815260200160088201805461155f906140ec565b80601f016020809104026020016040519081016040528092919081815260200182805461158b906140ec565b80156115d85780601f106115ad576101008083540402835291602001916115d8565b820191906000526020600020905b8154815290600101906020018083116115bb57829003601f168201915b505050505081526020016009820180546115f1906140ec565b80601f016020809104026020016040519081016040528092919081815260200182805461161d906140ec565b801561166a5780601f1061163f5761010080835404028352916020019161166a565b820191906000526020600020905b81548152906001019060200180831161164d57829003601f168201915b50505050508152602001600a82018054611683906140ec565b80601f01602080910402602001604051908101604052809291908181526020018280546116af906140ec565b80156116fc5780601f106116d1576101008083540402835291602001916116fc565b820191906000526020600020905b8154815290600101906020018083116116df57829003601f168201915b5050509183525050600b8201546020820152600c9091015460ff16151560409091015292915050565b6000818152600260205260408120546001600160a01b031680610b225760405162461bcd60e51b815260206004820152602960248201527f4552433732313a206f776e657220717565727920666f72206e6f6e657869737460448201527f656e7420746f6b656e00000000000000000000000000000000000000000000006064820152608401610c2f565b60006001600160a01b03821661182e5760405162461bcd60e51b815260206004820152602a60248201527f4552433732313a2062616c616e636520717565727920666f7220746865207a6560448201527f726f2061646472657373000000000000000000000000000000000000000000006064820152608401610c2f565b506001600160a01b031660009081526003602052604090205490565b6118526131f2565b61185c600061324c565b565b606060018054610b37906140ec565b601161187a600183614284565b8154811061188a5761188a6140d6565b90600052602060002090600d0201600501543410156118eb5760405162461bcd60e51b815260206004820152600d60248201527f4574686572206b7572616e6721000000000000000000000000000000000000006044820152606401610c2f565b60116118f8600183614284565b81548110611908576119086140d6565b600091825260209091206001600d9092020101546001600160a01b031633036119735760405162461bcd60e51b815260206004820181905260248201527f546964616b206461706174206d656d62656c6920617365742073656e646972696044820152606401610c2f565b600060646011611984600185614284565b81548110611994576119946140d6565b90600052602060002090600d020160060154346119b19190614297565b6119bb91906142ae565b9050611a0060116119cd600185614284565b815481106119dd576119dd6140d6565b600091825260209091206003600d9092020101546001600160a01b03168261329e565b611a4c6011611a10600185614284565b81548110611a2057611a206140d6565b600091825260209091206001600d9092020101546001600160a01b0316611a478334614284565b61329e565b600e8054906000611a5c8361426b565b90915550611aa690506011611a72600185614284565b81548110611a8257611a826140d6565b600091825260209091206001600d9092020101546001600160a01b0316338461301a565b604080516101a081018252600e54815233602082015260109181016011611ace600187614284565b81548110611ade57611ade6140d6565b60009182526020918290206002600d9092020101546001600160a01b03168252016011611b0c600187614284565b81548110611b1c57611b1c6140d6565b60009182526020918290206003600d9092020101546001600160a01b03168252016011611b4a600187614284565b81548110611b5a57611b5a6140d6565b90600052602060002090600d02016004018054611b76906140ec565b80601f0160208091040260200160405190810160405280929190818152602001828054611ba2906140ec565b8015611bef5780601f10611bc457610100808354040283529160200191611bef565b820191906000526020600020905b815481529060010190602001808311611bd257829003601f168201915b50505091835250503460208201526040016011611c0d600187614284565b81548110611c1d57611c1d6140d6565b90600052602060002090600d02016006015481526020016011600186611c439190614284565b81548110611c5357611c536140d6565b90600052602060002090600d02016007018054611c6f906140ec565b80601f0160208091040260200160405190810160405280929190818152602001828054611c9b906140ec565b8015611ce85780601f10611cbd57610100808354040283529160200191611ce8565b820191906000526020600020905b815481529060010190602001808311611ccb57829003601f168201915b50505091835250506020016011611d00600187614284565b81548110611d1057611d106140d6565b90600052602060002090600d02016008018054611d2c906140ec565b80601f0160208091040260200160405190810160405280929190818152602001828054611d58906140ec565b8015611da55780601f10611d7a57610100808354040283529160200191611da5565b820191906000526020600020905b815481529060010190602001808311611d8857829003601f168201915b50505091835250506020016011611dbd600187614284565b81548110611dcd57611dcd6140d6565b90600052602060002090600d02016009018054611de9906140ec565b80601f0160208091040260200160405190810160405280929190818152602001828054611e15906140ec565b8015611e625780601f10611e3757610100808354040283529160200191611e62565b820191906000526020600020905b815481529060010190602001808311611e4557829003601f168201915b50505091835250506020016011611e7a600187614284565b81548110611e8a57611e8a6140d6565b90600052602060002090600d0201600a018054611ea6906140ec565b80601f0160208091040260200160405190810160405280929190818152602001828054611ed2906140ec565b8015611f1f5780601f10611ef457610100808354040283529160200191611f1f565b820191906000526020600020905b815481529060010190602001808311611f0257829003601f168201915b50505091835250504260208201526040016011611f3d600187614284565b81548110611f4d57611f4d6140d6565b60009182526020808320600d92830201600c015460ff16151590935284546001808201875595835291839020845192909102019081559082015192810180546001600160a01b03199081166001600160a01b039586161790915560408301516002830180548316918616919091179055606083015160038301805490921694169390931790925560808101519091906004820190611feb90826142d0565b5060a0820151600582015560c0820151600682015560e0820151600782019061201490826142d0565b50610100820151600882019061202a90826142d0565b50610120820151600982019061204090826142d0565b50610140820151600a82019061205690826142d0565b50610160820151600b82015561018090910151600c909101805460ff1916911515919091179055600e5433907fcba3cd7aa949a282a2ff78f4d6e695d68a80f6019299ea42338d6c6a9005e79b90348460116120b3600189614284565b815481106120c3576120c36140d6565b90600052602060002090600d020160040160116001896120e39190614284565b815481106120f3576120f36140d6565b90600052602060002090600d0201600a014260405161211796959493929190614407565b60405180910390a233601161212d600185614284565b8154811061213d5761213d6140d6565b90600052602060002090600d020160010160006101000a8154816001600160a01b0302191690836001600160a01b03160217905550610d8082612c89565b6121863383836132fe565b5050565b60008082116121db5760405162461bcd60e51b815260206004820152600e60248201527f457468657220746f6f206c6f77210000000000000000000000000000000000006044820152606401610c2f565b60116121e8600185614284565b815481106121f8576121f86140d6565b60009182526020909120600d90910201600101546001600160a01b031633146122635760405162461bcd60e51b815260206004820152601660248201527f4f7065726174696f6e204e6f7420416c6c6f77656421000000000000000000006044820152606401610c2f565b816011612271600186614284565b81548110612281576122816140d6565b600091825260209091206005600d90920201015550600192915050565b600f543410156123165760405162461bcd60e51b815260206004820152602560248201527f4574686572206b7572616e6720756e74756b206d656c616b756b616e206d696e60448201527f74696e67210000000000000000000000000000000000000000000000000000006064820152608401610c2f565b600b866040516123269190614452565b9081526040519081900360200190205460ff16156123865760405162461bcd60e51b815260206004820152601160248201527f4e465420696e69207375646168206164610000000000000000000000000000006044820152606401610c2f565b600a546001600160a01b031633036123e05760405162461bcd60e51b815260206004820152601d60248201527f50656e6a75616c616e20746964616b206469706572626f6c65686b616e0000006044820152606401610c2f565b6123fb6123f5600a546001600160a01b031690565b3461329e565b600d805490600061240b8361426b565b9091555050604080516101a081018252600d8054825233602083018181529383019081526001600160a01b0387811660608501908152608085018a815260a0860189905260c0860188905260e086018f905261010086018c905261012086018e905261014086018d90524261016087015260016101808701819052601180549182018155600052865195027f31ecc21a745e3968a04e9570e4425bc18fa8019c68028196b546d1669c200c68810195865596517f31ecc21a745e3968a04e9570e4425bc18fa8019c68028196b546d1669c200c69880180549185166001600160a01b031992831617905593517f31ecc21a745e3968a04e9570e4425bc18fa8019c68028196b546d1669c200c6a8801805491851691861691909117905590517f31ecc21a745e3968a04e9570e4425bc18fa8019c68028196b546d1669c200c6b8701805491909316931692909217905551919290917f31ecc21a745e3968a04e9570e4425bc18fa8019c68028196b546d1669c200c6c9091019061258f90826142d0565b5060a0820151600582015560c0820151600682015560e082015160078201906125b890826142d0565b5061010082015160088201906125ce90826142d0565b5061012082015160098201906125e490826142d0565b50610140820151600a8201906125fa90826142d0565b50610160820151600b82015561018090910151600c909101805460ff1916911515919091179055600d5460405133917fcba3cd7aa949a282a2ff78f4d6e695d68a80f6019299ea42338d6c6a9005e79b9161265e919034906000908c90429061446e565b60405180910390a261267233600d546133cc565b6001600b876040516126849190614452565b9081526040805160209281900383019020805460ff191660ff9490941693909317909255600d546000908152600c909152208054336001600160a01b03199091161790555050505050505050565b6126dc3383612f23565b61274e5760405162461bcd60e51b815260206004820152603160248201527f4552433732313a207472616e736665722063616c6c6572206973206e6f74206f60448201527f776e6572206e6f7220617070726f7665640000000000000000000000000000006064820152608401610c2f565b61275a848484846133e6565b50505050565b6000818152600260205260409020546060906001600160a01b03166127ed5760405162461bcd60e51b815260206004820152602f60248201527f4552433732314d657461646174613a2055524920717565727920666f72206e6f60448201527f6e6578697374656e7420746f6b656e00000000000000000000000000000000006064820152608401610c2f565b600061280460408051602081019091526000815290565b90506000815111612824576040518060200160405280600081525061284f565b8061282e84613464565b60405160200161283f9291906144b3565b6040516020818303038152906040525b9392505050565b60606011805480602002602001604051908101604052809291908181526020016000905b82821015610adb576000848152602090819020604080516101a081018252600d86029092018054835260018101546001600160a01b03908116948401949094526002810154841691830191909152600381015490921660608201526004820180549192916080840191906128ed906140ec565b80601f0160208091040260200160405190810160405280929190818152602001828054612919906140ec565b80156129665780601f1061293b57610100808354040283529160200191612966565b820191906000526020600020905b81548152906001019060200180831161294957829003601f168201915b505050505081526020016005820154815260200160068201548152602001600782018054612993906140ec565b80601f01602080910402602001604051908101604052809291908181526020018280546129bf906140ec565b8015612a0c5780601f106129e157610100808354040283529160200191612a0c565b820191906000526020600020905b8154815290600101906020018083116129ef57829003601f168201915b50505050508152602001600882018054612a25906140ec565b80601f0160208091040260200160405190810160405280929190818152602001828054612a51906140ec565b8015612a9e5780601f10612a7357610100808354040283529160200191612a9e565b820191906000526020600020905b815481529060010190602001808311612a8157829003601f168201915b50505050508152602001600982018054612ab7906140ec565b80601f0160208091040260200160405190810160405280929190818152602001828054612ae3906140ec565b8015612b305780601f10612b0557610100808354040283529160200191612b30565b820191906000526020600020905b815481529060010190602001808311612b1357829003601f168201915b50505050508152602001600a82018054612b49906140ec565b80601f0160208091040260200160405190810160405280929190818152602001828054612b75906140ec565b8015612bc25780601f10612b9757610100808354040283529160200191612bc2565b820191906000526020600020905b815481529060010190602001808311612ba557829003601f168201915b5050509183525050600b820154602080830191909152600c9092015460ff161515604090910152908252600192909201910161287a565b612c016131f2565b6001600160a01b038116612c7d5760405162461bcd60e51b815260206004820152602660248201527f4f776e61626c653a206e6577206f776e657220697320746865207a65726f206160448201527f64647265737300000000000000000000000000000000000000000000000000006064820152608401610c2f565b612c868161324c565b50565b60006011612c98600184614284565b81548110612ca857612ca86140d6565b60009182526020909120600d90910201600101546001600160a01b03163314612d135760405162461bcd60e51b815260206004820152601660248201527f4f7065726174696f6e204e6f7420416c6c6f77656421000000000000000000006044820152606401610c2f565b6011612d20600184614284565b81548110612d3057612d306140d6565b60009182526020909120600c600d90920201015460ff161515600103612d965760006011612d5f600185614284565b81548110612d6f57612d6f6140d6565b60009182526020909120600d90910201600c01805460ff1916911515919091179055612e12565b6011612da3600184614284565b81548110612db357612db36140d6565b600091825260208220600c600d90920201015460ff1615159003612e125760016011612ddf8285614284565b81548110612def57612def6140d6565b60009182526020909120600d90910201600c01805460ff19169115159190911790555b506001919050565b60006001600160e01b031982167f80ac58cd000000000000000000000000000000000000000000000000000000001480612e7d57506001600160e01b031982167f5b5e139f00000000000000000000000000000000000000000000000000000000145b80610b2257507f01ffc9a7000000000000000000000000000000000000000000000000000000006001600160e01b0319831614610b22565b600081815260046020526040902080546001600160a01b0319166001600160a01b0384169081179091558190612eea82611725565b6001600160a01b03167f8c5be1e5ebec7d5bd14f71427d1e84f3dd0314c0f7b2291e5b200ac8c7c3b92560405160405180910390a45050565b6000818152600260205260408120546001600160a01b0316612f9c5760405162461bcd60e51b815260206004820152602c60248201527f4552433732313a206f70657261746f7220717565727920666f72206e6f6e657860448201526b34b9ba32b73a103a37b5b2b760a11b6064820152608401610c2f565b6000612fa783611725565b9050806001600160a01b0316846001600160a01b03161480612fe25750836001600160a01b0316612fd784610bba565b6001600160a01b0316145b8061301257506001600160a01b0380821660009081526005602090815260408083209388168352929052205460ff165b949350505050565b826001600160a01b031661302d82611725565b6001600160a01b0316146130a95760405162461bcd60e51b815260206004820152602960248201527f4552433732313a207472616e73666572206f6620746f6b656e2074686174206960448201527f73206e6f74206f776e00000000000000000000000000000000000000000000006064820152608401610c2f565b6001600160a01b0382166131245760405162461bcd60e51b8152602060048201526024808201527f4552433732313a207472616e7366657220746f20746865207a65726f2061646460448201527f72657373000000000000000000000000000000000000000000000000000000006064820152608401610c2f565b61312f838383613504565b61313a600082612eb5565b6001600160a01b0383166000908152600360205260408120805460019290613163908490614284565b90915550506001600160a01b03821660009081526003602052604081208054600192906131919084906144e2565b909155505060008181526002602052604080822080546001600160a01b0319166001600160a01b0386811691821790925591518493918716917fddf252ad1be2c89b69c2b068fc378daa952ba7f163c4a11628f55a4df523b3ef91a4505050565b600a546001600160a01b0316331461185c5760405162461bcd60e51b815260206004820181905260248201527f4f776e61626c653a2063616c6c6572206973206e6f7420746865206f776e65726044820152606401610c2f565b600a80546001600160a01b038381166001600160a01b0319831681179093556040519116919082907f8be0079c531659141344cd1fd0a4f28419497f9722a3daafe3b4186f6b6457e090600090a35050565b6000826001600160a01b03168260405160006040518083038185875af1925050503d80600081146132eb576040519150601f19603f3d011682016040523d82523d6000602084013e6132f0565b606091505b5050905080610d8057600080fd5b816001600160a01b0316836001600160a01b03160361335f5760405162461bcd60e51b815260206004820152601960248201527f4552433732313a20617070726f766520746f2063616c6c6572000000000000006044820152606401610c2f565b6001600160a01b03838116600081815260056020908152604080832094871680845294825291829020805460ff191686151590811790915591519182527f17307eab39ab6107e8899845ad3d59bd9653f200f220920489ca2b5937696c31910160405180910390a3505050565b6121868282604051806020016040528060008152506135bc565b6133f184848461301a565b6133fd8484848461363a565b61275a5760405162461bcd60e51b815260206004820152603260248201527f4552433732313a207472616e7366657220746f206e6f6e20455243373231526560448201527131b2b4bb32b91034b6b83632b6b2b73a32b960711b6064820152608401610c2f565b6060600061347183613786565b600101905060008167ffffffffffffffff81111561349157613491613e85565b6040519080825280601f01601f1916602001820160405280156134bb576020820181803683370190505b5090508181016020015b600019017f3031323334353637383961626364656600000000000000000000000000000000600a86061a8153600a85049450846134c557509392505050565b6001600160a01b03831661355f5761355a81600880546000838152600960205260408120829055600182018355919091527ff3f7a9fe364faab93b216da50a3214154f22a0a2b415b23a84c8169e8b636ee30155565b613582565b816001600160a01b0316836001600160a01b031614613582576135828382613868565b6001600160a01b03821661359957610d8081613905565b826001600160a01b0316826001600160a01b031614610d8057610d8082826139b4565b6135c683836139f8565b6135d3600084848461363a565b610d805760405162461bcd60e51b815260206004820152603260248201527f4552433732313a207472616e7366657220746f206e6f6e20455243373231526560448201527131b2b4bb32b91034b6b83632b6b2b73a32b960711b6064820152608401610c2f565b60006001600160a01b0384163b1561377b57604051630a85bd0160e11b81526001600160a01b0385169063150b7a029061367e9033908990889088906004016144f5565b6020604051808303816000875af19250505080156136b9575060408051601f3d908101601f191682019092526136b691810190614531565b60015b613761573d8080156136e7576040519150601f19603f3d011682016040523d82523d6000602084013e6136ec565b606091505b5080516000036137595760405162461bcd60e51b815260206004820152603260248201527f4552433732313a207472616e7366657220746f206e6f6e20455243373231526560448201527131b2b4bb32b91034b6b83632b6b2b73a32b960711b6064820152608401610c2f565b805181602001fd5b6001600160e01b031916630a85bd0160e11b149050613012565b506001949350505050565b6000807a184f03e93ff9f4daa797ed6e38ed64bf6a1f01000000000000000083106137cf577a184f03e93ff9f4daa797ed6e38ed64bf6a1f010000000000000000830492506040015b6d04ee2d6d415b85acef810000000083106137fb576d04ee2d6d415b85acef8100000000830492506020015b662386f26fc10000831061381957662386f26fc10000830492506010015b6305f5e1008310613831576305f5e100830492506008015b612710831061384557612710830492506004015b60648310613857576064830492506002015b600a8310610b225760010192915050565b60006001613875846117b0565b61387f9190614284565b6000838152600760205260409020549091508082146138d2576001600160a01b03841660009081526006602090815260408083208584528252808320548484528184208190558352600790915290208190555b5060009182526007602090815260408084208490556001600160a01b039094168352600681528383209183525290812055565b60085460009061391790600190614284565b6000838152600960205260408120546008805493945090928490811061393f5761393f6140d6565b906000526020600020015490508060088381548110613960576139606140d6565b60009182526020808320909101929092558281526009909152604080822084905585825281205560088054806139985761399861454e565b6001900381819060005260206000200160009055905550505050565b60006139bf836117b0565b6001600160a01b039093166000908152600660209081526040808320868452825280832085905593825260079052919091209190915550565b6001600160a01b038216613a4e5760405162461bcd60e51b815260206004820181905260248201527f4552433732313a206d696e7420746f20746865207a65726f20616464726573736044820152606401610c2f565b6000818152600260205260409020546001600160a01b031615613ab35760405162461bcd60e51b815260206004820152601c60248201527f4552433732313a20746f6b656e20616c7265616479206d696e746564000000006044820152606401610c2f565b613abf60008383613504565b6001600160a01b0382166000908152600360205260408120805460019290613ae89084906144e2565b909155505060008181526002602052604080822080546001600160a01b0319166001600160a01b03861690811790915590518392907fddf252ad1be2c89b69c2b068fc378daa952ba7f163c4a11628f55a4df523b3ef908290a45050565b60005b83811015613b61578181015183820152602001613b49565b50506000910152565b60008151808452613b82816020860160208601613b46565b601f01601f19169290920160200192915050565b60006101a0825184526020830151613bb960208601826001600160a01b03169052565b506040830151613bd460408601826001600160a01b03169052565b506060830151613bef60608601826001600160a01b03169052565b506080830151816080860152613c0782860182613b6a565b91505060a083015160a085015260c083015160c085015260e083015184820360e0860152613c358282613b6a565b9150506101008084015185830382870152613c508382613b6a565b925050506101208084015185830382870152613c6c8382613b6a565b925050506101408084015185830382870152613c888382613b6a565b9250505061016080840151818601525061018080840151613cac8287018215159052565b5090949350505050565b6000602080830181845280855180835260408601915060408160051b870101925083870160005b82811015613d0b57603f19888603018452613cf9858351613b96565b94509285019290850190600101613cdd565b5092979650505050505050565b6001600160e01b031981168114612c8657600080fd5b600060208284031215613d4057600080fd5b813561284f81613d18565b60208152600061284f6020830184613b6a565b600060208284031215613d7057600080fd5b5035919050565b80356001600160a01b0381168114613d8e57600080fd5b919050565b60008060408385031215613da657600080fd5b613daf83613d77565b946020939093013593505050565b600080600060608486031215613dd257600080fd5b613ddb84613d77565b9250613de960208501613d77565b9150604084013590509250925092565b60208152600061284f6020830184613b96565b600060208284031215613e1e57600080fd5b61284f82613d77565b60008060408385031215613e3a57600080fd5b613e4383613d77565b915060208301358015158114613e5857600080fd5b809150509250929050565b60008060408385031215613e7657600080fd5b50508035926020909101359150565b634e487b7160e01b600052604160045260246000fd5b600067ffffffffffffffff80841115613eb657613eb6613e85565b604051601f8501601f19908116603f01168101908282118183101715613ede57613ede613e85565b81604052809350858152868686011115613ef757600080fd5b858560208301376000602087830101525050509392505050565b600082601f830112613f2257600080fd5b61284f83833560208501613e9b565b600080600080600080600080610100898b031215613f4e57600080fd5b883567ffffffffffffffff80821115613f6657600080fd5b613f728c838d01613f11565b995060208b0135915080821115613f8857600080fd5b613f948c838d01613f11565b985060408b0135915080821115613faa57600080fd5b613fb68c838d01613f11565b975060608b0135915080821115613fcc57600080fd5b613fd88c838d01613f11565b965060808b0135915080821115613fee57600080fd5b50613ffb8b828c01613f11565b94505061400a60a08a01613d77565b925060c0890135915060e089013590509295985092959890939650565b6000806000806080858703121561403d57600080fd5b61404685613d77565b935061405460208601613d77565b925060408501359150606085013567ffffffffffffffff81111561407757600080fd5b8501601f8101871361408857600080fd5b61409787823560208401613e9b565b91505092959194509250565b600080604083850312156140b657600080fd5b6140bf83613d77565b91506140cd60208401613d77565b90509250929050565b634e487b7160e01b600052603260045260246000fd5b600181811c9082168061410057607f821691505b60208210810361412057634e487b7160e01b600052602260045260246000fd5b50919050565b601f821115610d8057600081815260208120601f850160051c8101602086101561414d5750805b601f850160051c820191505b8181101561416c57828155600101614159565b505050505050565b81810361417f575050565b61418982546140ec565b67ffffffffffffffff8111156141a1576141a1613e85565b6141b5816141af84546140ec565b84614126565b6000601f8211600181146141e957600083156141d15750848201545b600019600385901b1c1916600184901b17845561424e565b600085815260209020601f19841690600086815260209020845b838110156142235782860154825560019586019590910190602001614203565b50858310156142415781850154600019600388901b60f8161c191681555b50505060018360011b0184555b5050505050565b634e487b7160e01b600052601160045260246000fd5b60006001820161427d5761427d614255565b5060010190565b81810381811115610b2257610b22614255565b8082028115828204841417610b2257610b22614255565b6000826142cb57634e487b7160e01b600052601260045260246000fd5b500490565b815167ffffffffffffffff8111156142ea576142ea613e85565b6142f8816141af84546140ec565b602080601f83116001811461432d57600084156143155750858301515b600019600386901b1c1916600185901b17855561416c565b600085815260208120601f198616915b8281101561435c5788860151825594840194600190910190840161433d565b508582101561437a5787850151600019600388901b60f8161c191681555b5050505050600190811b01905550565b60008154614397816140ec565b8085526020600183811680156143b457600181146143ce576143fc565b60ff1985168884015283151560051b8801830195506143fc565b866000528260002060005b858110156143f45781548a82018601529083019084016143d9565b890184019650505b505050505092915050565b86815285602082015284604082015260c06060820152600061442c60c083018661438a565b828103608084015261443e818661438a565b9150508260a0830152979650505050505050565b60008251614464818460208701613b46565b9190910192915050565b85815284602082015283604082015260c06060820152600060c082015260e0608082015260006144a160e0830185613b6a565b90508260a08301529695505050505050565b600083516144c5818460208801613b46565b8351908301906144d9818360208801613b46565b01949350505050565b80820180821115610b2257610b22614255565b60006001600160a01b038087168352808616602084015250836040830152608060608301526145276080830184613b6a565b9695505050505050565b60006020828403121561454357600080fd5b815161284f81613d18565b634e487b7160e01b600052603160045260246000fdfea26469706673582212208d5c9c1b6fde9ed29094cbf7f43d97fbb5d043453b70cf95a33e54f349e05bd364736f6c63430008130033",
  "linkReferences": {},
  "deployedLinkReferences": {}
}